{
	"auction_contract/src/Auction.sol": {
		"Auction": {
			"abi": [
				{
					"inputs": [
						{
							"internalType": "uint256",
							"name": "_initPrice",
							"type": "uint256"
						}
					],
					"stateMutability": "nonpayable",
					"type": "constructor"
				},
				{
					"inputs": [
						{
							"internalType": "address",
							"name": "owner",
							"type": "address"
						}
					],
					"name": "OwnableInvalidOwner",
					"type": "error"
				},
				{
					"inputs": [
						{
							"internalType": "address",
							"name": "account",
							"type": "address"
						}
					],
					"name": "OwnableUnauthorizedAccount",
					"type": "error"
				},
				{
					"anonymous": false,
					"inputs": [
						{
							"indexed": true,
							"internalType": "address",
							"name": "winner",
							"type": "address"
						},
						{
							"indexed": false,
							"internalType": "uint256",
							"name": "winningBid",
							"type": "uint256"
						}
					],
					"name": "AuctionEnded",
					"type": "event"
				},
				{
					"anonymous": false,
					"inputs": [
						{
							"indexed": false,
							"internalType": "address",
							"name": "addr",
							"type": "address"
						},
						{
							"indexed": false,
							"internalType": "uint256",
							"name": "price",
							"type": "uint256"
						}
					],
					"name": "Bidding_msg",
					"type": "event"
				},
				{
					"anonymous": false,
					"inputs": [
						{
							"indexed": true,
							"internalType": "address",
							"name": "previousOwner",
							"type": "address"
						},
						{
							"indexed": true,
							"internalType": "address",
							"name": "newOwner",
							"type": "address"
						}
					],
					"name": "OwnershipTransferred",
					"type": "event"
				},
				{
					"inputs": [],
					"name": "auctionState",
					"outputs": [
						{
							"internalType": "enum Auction.AuctionState",
							"name": "",
							"type": "uint8"
						}
					],
					"stateMutability": "view",
					"type": "function"
				},
				{
					"inputs": [],
					"name": "bidding",
					"outputs": [],
					"stateMutability": "payable",
					"type": "function"
				},
				{
					"inputs": [],
					"name": "endAuction",
					"outputs": [],
					"stateMutability": "nonpayable",
					"type": "function"
				},
				{
					"inputs": [],
					"name": "highestBid",
					"outputs": [
						{
							"internalType": "uint256",
							"name": "",
							"type": "uint256"
						}
					],
					"stateMutability": "view",
					"type": "function"
				},
				{
					"inputs": [],
					"name": "owner",
					"outputs": [
						{
							"internalType": "address",
							"name": "",
							"type": "address"
						}
					],
					"stateMutability": "view",
					"type": "function"
				},
				{
					"inputs": [],
					"name": "renounceOwnership",
					"outputs": [],
					"stateMutability": "nonpayable",
					"type": "function"
				},
				{
					"inputs": [],
					"name": "startAuction",
					"outputs": [],
					"stateMutability": "nonpayable",
					"type": "function"
				},
				{
					"inputs": [
						{
							"internalType": "address",
							"name": "newOwner",
							"type": "address"
						}
					],
					"name": "transferOwnership",
					"outputs": [],
					"stateMutability": "nonpayable",
					"type": "function"
				},
				{
					"inputs": [],
					"name": "withdraw",
					"outputs": [],
					"stateMutability": "nonpayable",
					"type": "function"
				}
			],
			"devdoc": {
				"errors": {
					"OwnableInvalidOwner(address)": [
						{
							"details": "The owner is not a valid owner account. (eg. `address(0)`)"
						}
					],
					"OwnableUnauthorizedAccount(address)": [
						{
							"details": "The caller account is not authorized to perform an operation."
						}
					]
				},
				"kind": "dev",
				"methods": {
					"owner()": {
						"details": "Returns the address of the current owner."
					},
					"renounceOwnership()": {
						"details": "Leaves the contract without owner. It will not be possible to call `onlyOwner` functions. Can only be called by the current owner. NOTE: Renouncing ownership will leave the contract without an owner, thereby disabling any functionality that is only available to the owner."
					},
					"transferOwnership(address)": {
						"details": "Transfers ownership of the contract to a new account (`newOwner`). Can only be called by the current owner."
					}
				},
				"version": 1
			},
			"evm": {
				"assembly": "    /* \"auction_contract/src/Auction.sol\":1648:5609  contract Auction is Ownable{... */\n  mstore(0x40, 0x80)\n    /* \"auction_contract/src/Auction.sol\":1712:1721  5 minutes */\n  0x012c\n    /* \"auction_contract/src/Auction.sol\":1682:1721  uint private call_down_time = 5 minutes */\n  0x01\n  sstore\n    /* \"auction_contract/src/Auction.sol\":1754:1763  5 minutes */\n  0x012c\n    /* \"auction_contract/src/Auction.sol\":1728:1763  uint private delay_time = 5 minutes */\n  0x02\n  sstore\n    /* \"auction_contract/src/Auction.sol\":2213:2220  30 days */\n  0x278d00\n    /* \"auction_contract/src/Auction.sol\":2188:2220  uint private last_days = 30 days */\n  0x09\n  sstore\n    /* \"auction_contract/src/Auction.sol\":2585:2837  constructor(uint _initPrice) Ownable(msg.sender) {... */\n  callvalue\n  dup1\n  iszero\n  tag_1\n  jumpi\n  0x00\n  dup1\n  revert\ntag_1:\n  pop\n  mload(0x40)\n  sub(codesize, bytecodeSize)\n  dup1\n  bytecodeSize\n  dup4\n  codecopy\n  dup2\n  dup2\n  add\n  0x40\n  mstore\n  dup2\n  add\n  swap1\n  tag_2\n  swap2\n  swap1\n  tag_3\n  jump\t// in\ntag_2:\n    /* \"auction_contract/src/Auction.sol\":2622:2632  msg.sender */\n  caller\n    /* \"@openzeppelin/contracts/access/Ownable.sol\":1297:1298  0 */\n  0x00\n    /* \"@openzeppelin/contracts/access/Ownable.sol\":1273:1299  initialOwner == address(0) */\n  0xffffffffffffffffffffffffffffffffffffffff\n  and\n    /* \"@openzeppelin/contracts/access/Ownable.sol\":1273:1285  initialOwner */\n  dup2\n    /* \"@openzeppelin/contracts/access/Ownable.sol\":1273:1299  initialOwner == address(0) */\n  0xffffffffffffffffffffffffffffffffffffffff\n  and\n  sub\n    /* \"@openzeppelin/contracts/access/Ownable.sol\":1269:1364  if (initialOwner == address(0)) {... */\n  tag_7\n  jumpi\n    /* \"@openzeppelin/contracts/access/Ownable.sol\":1350:1351  0 */\n  0x00\n    /* \"@openzeppelin/contracts/access/Ownable.sol\":1322:1353  OwnableInvalidOwner(address(0)) */\n  mload(0x40)\n  0x1e4fbdf700000000000000000000000000000000000000000000000000000000\n  dup2\n  mstore\n  0x04\n  add\n  tag_8\n  swap2\n  swap1\n  tag_9\n  jump\t// in\ntag_8:\n  mload(0x40)\n  dup1\n  swap2\n  sub\n  swap1\n  revert\n    /* \"@openzeppelin/contracts/access/Ownable.sol\":1269:1364  if (initialOwner == address(0)) {... */\ntag_7:\n    /* \"@openzeppelin/contracts/access/Ownable.sol\":1373:1405  _transferOwnership(initialOwner) */\n  tag_10\n    /* \"@openzeppelin/contracts/access/Ownable.sol\":1392:1404  initialOwner */\n  dup2\n    /* \"@openzeppelin/contracts/access/Ownable.sol\":1373:1391  _transferOwnership */\n  shl(0x20, tag_11)\n    /* \"@openzeppelin/contracts/access/Ownable.sol\":1373:1405  _transferOwnership(initialOwner) */\n  0x20\n  shr\n  jump\t// in\ntag_10:\n    /* \"@openzeppelin/contracts/access/Ownable.sol\":1225:1412  constructor(address initialOwner) {... */\n  pop\n    /* \"auction_contract/src/Auction.sol\":2655:2670  block.timestamp */\n  timestamp\n    /* \"auction_contract/src/Auction.sol\":2644:2652  start_at */\n  0x06\n    /* \"auction_contract/src/Auction.sol\":2644:2670  start_at = block.timestamp */\n  dup2\n  swap1\n  sstore\n  pop\n    /* \"auction_contract/src/Auction.sol\":2710:2719  last_days */\n  sload(0x09)\n    /* \"auction_contract/src/Auction.sol\":2692:2707  block.timestamp */\n  timestamp\n    /* \"auction_contract/src/Auction.sol\":2692:2719  block.timestamp + last_days */\n  tag_13\n  swap2\n  swap1\n  tag_14\n  jump\t// in\ntag_13:\n    /* \"auction_contract/src/Auction.sol\":2680:2689  expire_at */\n  0x07\n    /* \"auction_contract/src/Auction.sol\":2680:2719  expire_at = block.timestamp + last_days */\n  dup2\n  swap1\n  sstore\n  pop\n    /* \"auction_contract/src/Auction.sol\":2743:2753  _initPrice */\n  dup1\n    /* \"auction_contract/src/Auction.sol\":2729:2740  current_bid */\n  0x08\n    /* \"auction_contract/src/Auction.sol\":2729:2753  current_bid = _initPrice */\n  dup2\n  swap1\n  sstore\n  pop\n    /* \"auction_contract/src/Auction.sol\":2772:2782  msg.sender */\n  caller\n    /* \"auction_contract/src/Auction.sol\":2763:2769  seller */\n  0x04\n  0x00\n    /* \"auction_contract/src/Auction.sol\":2763:2782  seller = msg.sender */\n  0x0100\n  exp\n  dup2\n  sload\n  dup2\n  0xffffffffffffffffffffffffffffffffffffffff\n  mul\n  not\n  and\n  swap1\n  dup4\n  0xffffffffffffffffffffffffffffffffffffffff\n  and\n  mul\n  or\n  swap1\n  sstore\n  pop\n    /* \"auction_contract/src/Auction.sol\":2807:2830  AuctionState.NotStarted */\n  0x00\n    /* \"auction_contract/src/Auction.sol\":2792:2804  auctionState */\n  0x0a\n  0x14\n    /* \"auction_contract/src/Auction.sol\":2792:2830  auctionState = AuctionState.NotStarted */\n  0x0100\n  exp\n  dup2\n  sload\n  dup2\n  0xff\n  mul\n  not\n  and\n  swap1\n  dup4\n  0x02\n  dup2\n  gt\n  iszero\n  tag_15\n  jumpi\n  tag_16\n  tag_17\n  jump\t// in\ntag_16:\ntag_15:\n  mul\n  or\n  swap1\n  sstore\n  pop\n    /* \"auction_contract/src/Auction.sol\":2585:2837  constructor(uint _initPrice) Ownable(msg.sender) {... */\n  pop\n    /* \"auction_contract/src/Auction.sol\":1648:5609  contract Auction is Ownable{... */\n  jump(tag_18)\n    /* \"@openzeppelin/contracts/access/Ownable.sol\":2912:3099  function _transferOwnership(address newOwner) internal virtual {... */\ntag_11:\n    /* \"@openzeppelin/contracts/access/Ownable.sol\":2985:3001  address oldOwner */\n  0x00\n    /* \"@openzeppelin/contracts/access/Ownable.sol\":3004:3010  _owner */\n  dup1\n  0x00\n  swap1\n  sload\n  swap1\n  0x0100\n  exp\n  swap1\n  div\n  0xffffffffffffffffffffffffffffffffffffffff\n  and\n    /* \"@openzeppelin/contracts/access/Ownable.sol\":2985:3010  address oldOwner = _owner */\n  swap1\n  pop\n    /* \"@openzeppelin/contracts/access/Ownable.sol\":3029:3037  newOwner */\n  dup2\n    /* \"@openzeppelin/contracts/access/Ownable.sol\":3020:3026  _owner */\n  0x00\n  dup1\n    /* \"@openzeppelin/contracts/access/Ownable.sol\":3020:3037  _owner = newOwner */\n  0x0100\n  exp\n  dup2\n  sload\n  dup2\n  0xffffffffffffffffffffffffffffffffffffffff\n  mul\n  not\n  and\n  swap1\n  dup4\n  0xffffffffffffffffffffffffffffffffffffffff\n  and\n  mul\n  or\n  swap1\n  sstore\n  pop\n    /* \"@openzeppelin/contracts/access/Ownable.sol\":3083:3091  newOwner */\n  dup2\n    /* \"@openzeppelin/contracts/access/Ownable.sol\":3052:3092  OwnershipTransferred(oldOwner, newOwner) */\n  0xffffffffffffffffffffffffffffffffffffffff\n  and\n    /* \"@openzeppelin/contracts/access/Ownable.sol\":3073:3081  oldOwner */\n  dup2\n    /* \"@openzeppelin/contracts/access/Ownable.sol\":3052:3092  OwnershipTransferred(oldOwner, newOwner) */\n  0xffffffffffffffffffffffffffffffffffffffff\n  and\n  0x8be0079c531659141344cd1fd0a4f28419497f9722a3daafe3b4186f6b6457e0\n  mload(0x40)\n  mload(0x40)\n  dup1\n  swap2\n  sub\n  swap1\n  log3\n    /* \"@openzeppelin/contracts/access/Ownable.sol\":2975:3099  {... */\n  pop\n    /* \"@openzeppelin/contracts/access/Ownable.sol\":2912:3099  function _transferOwnership(address newOwner) internal virtual {... */\n  pop\n  jump\t// out\n    /* \"#utility.yul\":88:205   */\ntag_21:\n    /* \"#utility.yul\":197:198   */\n  0x00\n    /* \"#utility.yul\":194:195   */\n  dup1\n    /* \"#utility.yul\":187:199   */\n  revert\n    /* \"#utility.yul\":334:411   */\ntag_23:\n    /* \"#utility.yul\":371:378   */\n  0x00\n    /* \"#utility.yul\":400:405   */\n  dup2\n    /* \"#utility.yul\":389:405   */\n  swap1\n  pop\n    /* \"#utility.yul\":334:411   */\n  swap2\n  swap1\n  pop\n  jump\t// out\n    /* \"#utility.yul\":417:539   */\ntag_24:\n    /* \"#utility.yul\":490:514   */\n  tag_36\n    /* \"#utility.yul\":508:513   */\n  dup2\n    /* \"#utility.yul\":490:514   */\n  tag_23\n  jump\t// in\ntag_36:\n    /* \"#utility.yul\":483:488   */\n  dup2\n    /* \"#utility.yul\":480:515   */\n  eq\n    /* \"#utility.yul\":470:533   */\n  tag_37\n  jumpi\n    /* \"#utility.yul\":529:530   */\n  0x00\n    /* \"#utility.yul\":526:527   */\n  dup1\n    /* \"#utility.yul\":519:531   */\n  revert\n    /* \"#utility.yul\":470:533   */\ntag_37:\n    /* \"#utility.yul\":417:539   */\n  pop\n  jump\t// out\n    /* \"#utility.yul\":545:688   */\ntag_25:\n    /* \"#utility.yul\":602:607   */\n  0x00\n    /* \"#utility.yul\":633:639   */\n  dup2\n    /* \"#utility.yul\":627:640   */\n  mload\n    /* \"#utility.yul\":618:640   */\n  swap1\n  pop\n    /* \"#utility.yul\":649:682   */\n  tag_39\n    /* \"#utility.yul\":676:681   */\n  dup2\n    /* \"#utility.yul\":649:682   */\n  tag_24\n  jump\t// in\ntag_39:\n    /* \"#utility.yul\":545:688   */\n  swap3\n  swap2\n  pop\n  pop\n  jump\t// out\n    /* \"#utility.yul\":694:1045   */\ntag_3:\n    /* \"#utility.yul\":764:770   */\n  0x00\n    /* \"#utility.yul\":813:815   */\n  0x20\n    /* \"#utility.yul\":801:810   */\n  dup3\n    /* \"#utility.yul\":792:799   */\n  dup5\n    /* \"#utility.yul\":788:811   */\n  sub\n    /* \"#utility.yul\":784:816   */\n  slt\n    /* \"#utility.yul\":781:900   */\n  iszero\n  tag_41\n  jumpi\n    /* \"#utility.yul\":819:898   */\n  tag_42\n  tag_21\n  jump\t// in\ntag_42:\n    /* \"#utility.yul\":781:900   */\ntag_41:\n    /* \"#utility.yul\":939:940   */\n  0x00\n    /* \"#utility.yul\":964:1028   */\n  tag_43\n    /* \"#utility.yul\":1020:1027   */\n  dup5\n    /* \"#utility.yul\":1011:1017   */\n  dup3\n    /* \"#utility.yul\":1000:1009   */\n  dup6\n    /* \"#utility.yul\":996:1018   */\n  add\n    /* \"#utility.yul\":964:1028   */\n  tag_25\n  jump\t// in\ntag_43:\n    /* \"#utility.yul\":954:1028   */\n  swap2\n  pop\n    /* \"#utility.yul\":910:1038   */\n  pop\n    /* \"#utility.yul\":694:1045   */\n  swap3\n  swap2\n  pop\n  pop\n  jump\t// out\n    /* \"#utility.yul\":1051:1177   */\ntag_26:\n    /* \"#utility.yul\":1088:1095   */\n  0x00\n    /* \"#utility.yul\":1128:1170   */\n  0xffffffffffffffffffffffffffffffffffffffff\n    /* \"#utility.yul\":1121:1126   */\n  dup3\n    /* \"#utility.yul\":1117:1171   */\n  and\n    /* \"#utility.yul\":1106:1171   */\n  swap1\n  pop\n    /* \"#utility.yul\":1051:1177   */\n  swap2\n  swap1\n  pop\n  jump\t// out\n    /* \"#utility.yul\":1183:1279   */\ntag_27:\n    /* \"#utility.yul\":1220:1227   */\n  0x00\n    /* \"#utility.yul\":1249:1273   */\n  tag_46\n    /* \"#utility.yul\":1267:1272   */\n  dup3\n    /* \"#utility.yul\":1249:1273   */\n  tag_26\n  jump\t// in\ntag_46:\n    /* \"#utility.yul\":1238:1273   */\n  swap1\n  pop\n    /* \"#utility.yul\":1183:1279   */\n  swap2\n  swap1\n  pop\n  jump\t// out\n    /* \"#utility.yul\":1285:1403   */\ntag_28:\n    /* \"#utility.yul\":1372:1396   */\n  tag_48\n    /* \"#utility.yul\":1390:1395   */\n  dup2\n    /* \"#utility.yul\":1372:1396   */\n  tag_27\n  jump\t// in\ntag_48:\n    /* \"#utility.yul\":1367:1370   */\n  dup3\n    /* \"#utility.yul\":1360:1397   */\n  mstore\n    /* \"#utility.yul\":1285:1403   */\n  pop\n  pop\n  jump\t// out\n    /* \"#utility.yul\":1409:1631   */\ntag_9:\n    /* \"#utility.yul\":1502:1506   */\n  0x00\n    /* \"#utility.yul\":1540:1542   */\n  0x20\n    /* \"#utility.yul\":1529:1538   */\n  dup3\n    /* \"#utility.yul\":1525:1543   */\n  add\n    /* \"#utility.yul\":1517:1543   */\n  swap1\n  pop\n    /* \"#utility.yul\":1553:1624   */\n  tag_50\n    /* \"#utility.yul\":1621:1622   */\n  0x00\n    /* \"#utility.yul\":1610:1619   */\n  dup4\n    /* \"#utility.yul\":1606:1623   */\n  add\n    /* \"#utility.yul\":1597:1603   */\n  dup5\n    /* \"#utility.yul\":1553:1624   */\n  tag_28\n  jump\t// in\ntag_50:\n    /* \"#utility.yul\":1409:1631   */\n  swap3\n  swap2\n  pop\n  pop\n  jump\t// out\n    /* \"#utility.yul\":1637:1817   */\ntag_29:\n    /* \"#utility.yul\":1685:1762   */\n  0x4e487b7100000000000000000000000000000000000000000000000000000000\n    /* \"#utility.yul\":1682:1683   */\n  0x00\n    /* \"#utility.yul\":1675:1763   */\n  mstore\n    /* \"#utility.yul\":1782:1786   */\n  0x11\n    /* \"#utility.yul\":1779:1780   */\n  0x04\n    /* \"#utility.yul\":1772:1787   */\n  mstore\n    /* \"#utility.yul\":1806:1810   */\n  0x24\n    /* \"#utility.yul\":1803:1804   */\n  0x00\n    /* \"#utility.yul\":1796:1811   */\n  revert\n    /* \"#utility.yul\":1823:2014   */\ntag_14:\n    /* \"#utility.yul\":1863:1866   */\n  0x00\n    /* \"#utility.yul\":1882:1902   */\n  tag_53\n    /* \"#utility.yul\":1900:1901   */\n  dup3\n    /* \"#utility.yul\":1882:1902   */\n  tag_23\n  jump\t// in\ntag_53:\n    /* \"#utility.yul\":1877:1902   */\n  swap2\n  pop\n    /* \"#utility.yul\":1916:1936   */\n  tag_54\n    /* \"#utility.yul\":1934:1935   */\n  dup4\n    /* \"#utility.yul\":1916:1936   */\n  tag_23\n  jump\t// in\ntag_54:\n    /* \"#utility.yul\":1911:1936   */\n  swap3\n  pop\n    /* \"#utility.yul\":1959:1960   */\n  dup3\n    /* \"#utility.yul\":1956:1957   */\n  dup3\n    /* \"#utility.yul\":1952:1961   */\n  add\n    /* \"#utility.yul\":1945:1961   */\n  swap1\n  pop\n    /* \"#utility.yul\":1980:1983   */\n  dup1\n    /* \"#utility.yul\":1977:1978   */\n  dup3\n    /* \"#utility.yul\":1974:1984   */\n  gt\n    /* \"#utility.yul\":1971:2007   */\n  iszero\n  tag_55\n  jumpi\n    /* \"#utility.yul\":1987:2005   */\n  tag_56\n  tag_29\n  jump\t// in\ntag_56:\n    /* \"#utility.yul\":1971:2007   */\ntag_55:\n    /* \"#utility.yul\":1823:2014   */\n  swap3\n  swap2\n  pop\n  pop\n  jump\t// out\n    /* \"#utility.yul\":2020:2200   */\ntag_17:\n    /* \"#utility.yul\":2068:2145   */\n  0x4e487b7100000000000000000000000000000000000000000000000000000000\n    /* \"#utility.yul\":2065:2066   */\n  0x00\n    /* \"#utility.yul\":2058:2146   */\n  mstore\n    /* \"#utility.yul\":2165:2169   */\n  0x21\n    /* \"#utility.yul\":2162:2163   */\n  0x04\n    /* \"#utility.yul\":2155:2170   */\n  mstore\n    /* \"#utility.yul\":2189:2193   */\n  0x24\n    /* \"#utility.yul\":2186:2187   */\n  0x00\n    /* \"#utility.yul\":2179:2194   */\n  revert\n    /* \"auction_contract/src/Auction.sol\":1648:5609  contract Auction is Ownable{... */\ntag_18:\n  dataSize(sub_0)\n  dup1\n  dataOffset(sub_0)\n  0x00\n  codecopy\n  0x00\n  return\nstop\n\nsub_0: assembly {\n        /* \"auction_contract/src/Auction.sol\":1648:5609  contract Auction is Ownable{... */\n      mstore(0x40, 0x80)\n      jumpi(tag_1, lt(calldatasize, 0x04))\n      shr(0xe0, calldataload(0x00))\n      dup1\n      0x8da5cb5b\n      gt\n      tag_11\n      jumpi\n      dup1\n      0x8da5cb5b\n      eq\n      tag_6\n      jumpi\n      dup1\n      0xd57bde79\n      eq\n      tag_7\n      jumpi\n      dup1\n      0xdb774c79\n      eq\n      tag_8\n      jumpi\n      dup1\n      0xf2fde38b\n      eq\n      tag_9\n      jumpi\n      dup1\n      0xfe67a54b\n      eq\n      tag_10\n      jumpi\n      jump(tag_1)\n    tag_11:\n      dup1\n      0x3ccfd60b\n      eq\n      tag_2\n      jumpi\n      dup1\n      0x6b64c769\n      eq\n      tag_3\n      jumpi\n      dup1\n      0x715018a6\n      eq\n      tag_4\n      jumpi\n      dup1\n      0x7fb45099\n      eq\n      tag_5\n      jumpi\n    tag_1:\n      0x00\n      dup1\n      revert\n        /* \"auction_contract/src/Auction.sol\":4609:4943  function withdraw() external {... */\n    tag_2:\n      callvalue\n      dup1\n      iszero\n      tag_12\n      jumpi\n      0x00\n      dup1\n      revert\n    tag_12:\n      pop\n      tag_13\n      tag_14\n      jump\t// in\n    tag_13:\n      stop\n        /* \"auction_contract/src/Auction.sol\":2892:3176  function startAuction() external onlyOwner {... */\n    tag_3:\n      callvalue\n      dup1\n      iszero\n      tag_15\n      jumpi\n      0x00\n      dup1\n      revert\n    tag_15:\n      pop\n      tag_16\n      tag_17\n      jump\t// in\n    tag_16:\n      stop\n        /* \"@openzeppelin/contracts/access/Ownable.sol\":2293:2394  function renounceOwnership() public virtual onlyOwner {... */\n    tag_4:\n      callvalue\n      dup1\n      iszero\n      tag_18\n      jumpi\n      0x00\n      dup1\n      revert\n    tag_18:\n      pop\n      tag_19\n      tag_20\n      jump\t// in\n    tag_19:\n      stop\n        /* \"auction_contract/src/Auction.sol\":2384:2416  AuctionState public auctionState */\n    tag_5:\n      callvalue\n      dup1\n      iszero\n      tag_21\n      jumpi\n      0x00\n      dup1\n      revert\n    tag_21:\n      pop\n      tag_22\n      tag_23\n      jump\t// in\n    tag_22:\n      mload(0x40)\n      tag_24\n      swap2\n      swap1\n      tag_25\n      jump\t// in\n    tag_24:\n      mload(0x40)\n      dup1\n      swap2\n      sub\n      swap1\n      return\n        /* \"@openzeppelin/contracts/access/Ownable.sol\":1638:1723  function owner() public view virtual returns (address) {... */\n    tag_6:\n      callvalue\n      dup1\n      iszero\n      tag_26\n      jumpi\n      0x00\n      dup1\n      revert\n    tag_26:\n      pop\n      tag_27\n      tag_28\n      jump\t// in\n    tag_27:\n      mload(0x40)\n      tag_29\n      swap2\n      swap1\n      tag_30\n      jump\t// in\n    tag_29:\n      mload(0x40)\n      dup1\n      swap2\n      sub\n      swap1\n      return\n        /* \"auction_contract/src/Auction.sol\":4981:5063  function highestBid() public view returns(uint){... */\n    tag_7:\n      callvalue\n      dup1\n      iszero\n      tag_31\n      jumpi\n      0x00\n      dup1\n      revert\n    tag_31:\n      pop\n      tag_32\n      tag_33\n      jump\t// in\n    tag_32:\n      mload(0x40)\n      tag_34\n      swap2\n      swap1\n      tag_35\n      jump\t// in\n    tag_34:\n      mload(0x40)\n      dup1\n      swap2\n      sub\n      swap1\n      return\n        /* \"auction_contract/src/Auction.sol\":3208:4567  function bidding() external payable{... */\n    tag_8:\n      tag_36\n      tag_37\n      jump\t// in\n    tag_36:\n      stop\n        /* \"@openzeppelin/contracts/access/Ownable.sol\":2543:2758  function transferOwnership(address newOwner) public virtual onlyOwner {... */\n    tag_9:\n      callvalue\n      dup1\n      iszero\n      tag_38\n      jumpi\n      0x00\n      dup1\n      revert\n    tag_38:\n      pop\n      tag_39\n      0x04\n      dup1\n      calldatasize\n      sub\n      dup2\n      add\n      swap1\n      tag_40\n      swap2\n      swap1\n      tag_41\n      jump\t// in\n    tag_40:\n      tag_42\n      jump\t// in\n    tag_39:\n      stop\n        /* \"auction_contract/src/Auction.sol\":5117:5606  function endAuction() external onlyOwner{... */\n    tag_10:\n      callvalue\n      dup1\n      iszero\n      tag_43\n      jumpi\n      0x00\n      dup1\n      revert\n    tag_43:\n      pop\n      tag_44\n      tag_45\n      jump\t// in\n    tag_44:\n      stop\n        /* \"auction_contract/src/Auction.sol\":4609:4943  function withdraw() external {... */\n    tag_14:\n        /* \"auction_contract/src/Auction.sol\":4648:4659  uint amount */\n      0x00\n        /* \"auction_contract/src/Auction.sol\":4662:4676  pendingReturns */\n      0x05\n        /* \"auction_contract/src/Auction.sol\":4662:4688  pendingReturns[msg.sender] */\n      0x00\n        /* \"auction_contract/src/Auction.sol\":4677:4687  msg.sender */\n      caller\n        /* \"auction_contract/src/Auction.sol\":4662:4688  pendingReturns[msg.sender] */\n      0xffffffffffffffffffffffffffffffffffffffff\n      and\n      0xffffffffffffffffffffffffffffffffffffffff\n      and\n      dup2\n      mstore\n      0x20\n      add\n      swap1\n      dup2\n      mstore\n      0x20\n      add\n      0x00\n      keccak256\n      sload\n        /* \"auction_contract/src/Auction.sol\":4648:4688  uint amount = pendingReturns[msg.sender] */\n      swap1\n      pop\n        /* \"auction_contract/src/Auction.sol\":4715:4716  0 */\n      0x00\n        /* \"auction_contract/src/Auction.sol\":4706:4712  amount */\n      dup2\n        /* \"auction_contract/src/Auction.sol\":4706:4716  amount > 0 */\n      gt\n        /* \"auction_contract/src/Auction.sol\":4698:4741  require(amount > 0, \"No funds to withdraw\") */\n      tag_47\n      jumpi\n      mload(0x40)\n      0x08c379a000000000000000000000000000000000000000000000000000000000\n      dup2\n      mstore\n      0x04\n      add\n      tag_48\n      swap1\n      tag_49\n      jump\t// in\n    tag_48:\n      mload(0x40)\n      dup1\n      swap2\n      sub\n      swap1\n      revert\n    tag_47:\n        /* \"auction_contract/src/Auction.sol\":4811:4812  0 */\n      0x00\n        /* \"auction_contract/src/Auction.sol\":4782:4796  pendingReturns */\n      0x05\n        /* \"auction_contract/src/Auction.sol\":4782:4808  pendingReturns[msg.sender] */\n      0x00\n        /* \"auction_contract/src/Auction.sol\":4797:4807  msg.sender */\n      caller\n        /* \"auction_contract/src/Auction.sol\":4782:4808  pendingReturns[msg.sender] */\n      0xffffffffffffffffffffffffffffffffffffffff\n      and\n      0xffffffffffffffffffffffffffffffffffffffff\n      and\n      dup2\n      mstore\n      0x20\n      add\n      swap1\n      dup2\n      mstore\n      0x20\n      add\n      0x00\n      keccak256\n        /* \"auction_contract/src/Auction.sol\":4782:4812  pendingReturns[msg.sender] = 0 */\n      dup2\n      swap1\n      sstore\n      pop\n        /* \"auction_contract/src/Auction.sol\":4828:4840  bool success */\n      0x00\n        /* \"auction_contract/src/Auction.sol\":4854:4864  msg.sender */\n      caller\n        /* \"auction_contract/src/Auction.sol\":4846:4870  payable(msg.sender).call */\n      0xffffffffffffffffffffffffffffffffffffffff\n      and\n        /* \"auction_contract/src/Auction.sol\":4878:4884  amount */\n      dup3\n        /* \"auction_contract/src/Auction.sol\":4846:4889  payable(msg.sender).call{value: amount}(\"\") */\n      mload(0x40)\n      tag_50\n      swap1\n      tag_51\n      jump\t// in\n    tag_50:\n      0x00\n      mload(0x40)\n      dup1\n      dup4\n      sub\n      dup2\n      dup6\n      dup8\n      gas\n      call\n      swap3\n      pop\n      pop\n      pop\n      returndatasize\n      dup1\n      0x00\n      dup2\n      eq\n      tag_54\n      jumpi\n      mload(0x40)\n      swap2\n      pop\n      and(add(returndatasize, 0x3f), not(0x1f))\n      dup3\n      add\n      0x40\n      mstore\n      returndatasize\n      dup3\n      mstore\n      returndatasize\n      0x00\n      0x20\n      dup5\n      add\n      returndatacopy\n      jump(tag_53)\n    tag_54:\n      0x60\n      swap2\n      pop\n    tag_53:\n      pop\n        /* \"auction_contract/src/Auction.sol\":4827:4889  (bool success, ) = payable(msg.sender).call{value: amount}(\"\") */\n      pop\n      swap1\n      pop\n        /* \"auction_contract/src/Auction.sol\":4907:4914  success */\n      dup1\n        /* \"auction_contract/src/Auction.sol\":4899:4936  require(success, \"Withdrawal failed\") */\n      tag_55\n      jumpi\n      mload(0x40)\n      0x08c379a000000000000000000000000000000000000000000000000000000000\n      dup2\n      mstore\n      0x04\n      add\n      tag_56\n      swap1\n      tag_57\n      jump\t// in\n    tag_56:\n      mload(0x40)\n      dup1\n      swap2\n      sub\n      swap1\n      revert\n    tag_55:\n        /* \"auction_contract/src/Auction.sol\":4638:4943  {... */\n      pop\n      pop\n        /* \"auction_contract/src/Auction.sol\":4609:4943  function withdraw() external {... */\n      jump\t// out\n        /* \"auction_contract/src/Auction.sol\":2892:3176  function startAuction() external onlyOwner {... */\n    tag_17:\n        /* \"@openzeppelin/contracts/access/Ownable.sol\":1531:1544  _checkOwner() */\n      tag_59\n        /* \"@openzeppelin/contracts/access/Ownable.sol\":1531:1542  _checkOwner */\n      tag_60\n        /* \"@openzeppelin/contracts/access/Ownable.sol\":1531:1544  _checkOwner() */\n      jump\t// in\n    tag_59:\n        /* \"auction_contract/src/Auction.sol\":2969:2992  AuctionState.NotStarted */\n      0x00\n        /* \"auction_contract/src/Auction.sol\":2953:2992  auctionState == AuctionState.NotStarted */\n      0x02\n      dup2\n      gt\n      iszero\n      tag_62\n      jumpi\n      tag_63\n      tag_64\n      jump\t// in\n    tag_63:\n    tag_62:\n        /* \"auction_contract/src/Auction.sol\":2953:2965  auctionState */\n      0x0a\n      0x14\n      swap1\n      sload\n      swap1\n      0x0100\n      exp\n      swap1\n      div\n      0xff\n      and\n        /* \"auction_contract/src/Auction.sol\":2953:2992  auctionState == AuctionState.NotStarted */\n      0x02\n      dup2\n      gt\n      iszero\n      tag_65\n      jumpi\n      tag_66\n      tag_64\n      jump\t// in\n    tag_66:\n    tag_65:\n      eq\n        /* \"auction_contract/src/Auction.sol\":2945:3034  require(auctionState == AuctionState.NotStarted, \"Auction has already started or ended.\") */\n      tag_67\n      jumpi\n      mload(0x40)\n      0x08c379a000000000000000000000000000000000000000000000000000000000\n      dup2\n      mstore\n      0x04\n      add\n      tag_68\n      swap1\n      tag_69\n      jump\t// in\n    tag_68:\n      mload(0x40)\n      dup1\n      swap2\n      sub\n      swap1\n      revert\n    tag_67:\n        /* \"auction_contract/src/Auction.sol\":3059:3078  AuctionState.Active */\n      0x01\n        /* \"auction_contract/src/Auction.sol\":3044:3056  auctionState */\n      0x0a\n      0x14\n        /* \"auction_contract/src/Auction.sol\":3044:3078  auctionState = AuctionState.Active */\n      0x0100\n      exp\n      dup2\n      sload\n      dup2\n      0xff\n      mul\n      not\n      and\n      swap1\n      dup4\n      0x02\n      dup2\n      gt\n      iszero\n      tag_70\n      jumpi\n      tag_71\n      tag_64\n      jump\t// in\n    tag_71:\n    tag_70:\n      mul\n      or\n      swap1\n      sstore\n      pop\n        /* \"auction_contract/src/Auction.sol\":3099:3114  block.timestamp */\n      timestamp\n        /* \"auction_contract/src/Auction.sol\":3088:3096  start_at */\n      0x06\n        /* \"auction_contract/src/Auction.sol\":3088:3114  start_at = block.timestamp */\n      dup2\n      swap1\n      sstore\n      pop\n        /* \"auction_contract/src/Auction.sol\":2892:3176  function startAuction() external onlyOwner {... */\n      jump\t// out\n        /* \"@openzeppelin/contracts/access/Ownable.sol\":2293:2394  function renounceOwnership() public virtual onlyOwner {... */\n    tag_20:\n        /* \"@openzeppelin/contracts/access/Ownable.sol\":1531:1544  _checkOwner() */\n      tag_73\n        /* \"@openzeppelin/contracts/access/Ownable.sol\":1531:1542  _checkOwner */\n      tag_60\n        /* \"@openzeppelin/contracts/access/Ownable.sol\":1531:1544  _checkOwner() */\n      jump\t// in\n    tag_73:\n        /* \"@openzeppelin/contracts/access/Ownable.sol\":2357:2387  _transferOwnership(address(0)) */\n      tag_75\n        /* \"@openzeppelin/contracts/access/Ownable.sol\":2384:2385  0 */\n      0x00\n        /* \"@openzeppelin/contracts/access/Ownable.sol\":2357:2375  _transferOwnership */\n      tag_76\n        /* \"@openzeppelin/contracts/access/Ownable.sol\":2357:2387  _transferOwnership(address(0)) */\n      jump\t// in\n    tag_75:\n        /* \"@openzeppelin/contracts/access/Ownable.sol\":2293:2394  function renounceOwnership() public virtual onlyOwner {... */\n      jump\t// out\n        /* \"auction_contract/src/Auction.sol\":2384:2416  AuctionState public auctionState */\n    tag_23:\n      0x0a\n      0x14\n      swap1\n      sload\n      swap1\n      0x0100\n      exp\n      swap1\n      div\n      0xff\n      and\n      dup2\n      jump\t// out\n        /* \"@openzeppelin/contracts/access/Ownable.sol\":1638:1723  function owner() public view virtual returns (address) {... */\n    tag_28:\n        /* \"@openzeppelin/contracts/access/Ownable.sol\":1684:1691  address */\n      0x00\n        /* \"@openzeppelin/contracts/access/Ownable.sol\":1710:1716  _owner */\n      dup1\n      0x00\n      swap1\n      sload\n      swap1\n      0x0100\n      exp\n      swap1\n      div\n      0xffffffffffffffffffffffffffffffffffffffff\n      and\n        /* \"@openzeppelin/contracts/access/Ownable.sol\":1703:1716  return _owner */\n      swap1\n      pop\n        /* \"@openzeppelin/contracts/access/Ownable.sol\":1638:1723  function owner() public view virtual returns (address) {... */\n      swap1\n      jump\t// out\n        /* \"auction_contract/src/Auction.sol\":4981:5063  function highestBid() public view returns(uint){... */\n    tag_33:\n        /* \"auction_contract/src/Auction.sol\":5023:5027  uint */\n      0x00\n        /* \"auction_contract/src/Auction.sol\":5045:5056  current_bid */\n      sload(0x08)\n        /* \"auction_contract/src/Auction.sol\":5038:5056  return current_bid */\n      swap1\n      pop\n        /* \"auction_contract/src/Auction.sol\":4981:5063  function highestBid() public view returns(uint){... */\n      swap1\n      jump\t// out\n        /* \"auction_contract/src/Auction.sol\":3208:4567  function bidding() external payable{... */\n    tag_37:\n        /* \"auction_contract/src/Auction.sol\":3277:3296  AuctionState.Active */\n      0x01\n        /* \"auction_contract/src/Auction.sol\":3261:3296  auctionState == AuctionState.Active */\n      0x02\n      dup2\n      gt\n      iszero\n      tag_80\n      jumpi\n      tag_81\n      tag_64\n      jump\t// in\n    tag_81:\n    tag_80:\n        /* \"auction_contract/src/Auction.sol\":3261:3273  auctionState */\n      0x0a\n      0x14\n      swap1\n      sload\n      swap1\n      0x0100\n      exp\n      swap1\n      div\n      0xff\n      and\n        /* \"auction_contract/src/Auction.sol\":3261:3296  auctionState == AuctionState.Active */\n      0x02\n      dup2\n      gt\n      iszero\n      tag_82\n      jumpi\n      tag_83\n      tag_64\n      jump\t// in\n    tag_83:\n    tag_82:\n      eq\n        /* \"auction_contract/src/Auction.sol\":3253:3323  require(auctionState == AuctionState.Active, \"Auction is not active.\") */\n      tag_84\n      jumpi\n      mload(0x40)\n      0x08c379a000000000000000000000000000000000000000000000000000000000\n      dup2\n      mstore\n      0x04\n      add\n      tag_85\n      swap1\n      tag_86\n      jump\t// in\n    tag_85:\n      mload(0x40)\n      dup1\n      swap2\n      sub\n      swap1\n      revert\n    tag_84:\n        /* \"auction_contract/src/Auction.sol\":3399:3407  start_at */\n      sload(0x06)\n        /* \"auction_contract/src/Auction.sol\":3381:3396  block.timestamp */\n      timestamp\n        /* \"auction_contract/src/Auction.sol\":3381:3407  block.timestamp > start_at */\n      gt\n        /* \"auction_contract/src/Auction.sol\":3373:3436  require(block.timestamp > start_at, \"the auction is not start\") */\n      tag_87\n      jumpi\n      mload(0x40)\n      0x08c379a000000000000000000000000000000000000000000000000000000000\n      dup2\n      mstore\n      0x04\n      add\n      tag_88\n      swap1\n      tag_89\n      jump\t// in\n    tag_88:\n      mload(0x40)\n      dup1\n      swap2\n      sub\n      swap1\n      revert\n    tag_87:\n        /* \"auction_contract/src/Auction.sol\":3472:3481  expire_at */\n      sload(0x07)\n        /* \"auction_contract/src/Auction.sol\":3454:3469  block.timestamp */\n      timestamp\n        /* \"auction_contract/src/Auction.sol\":3454:3481  block.timestamp < expire_at */\n      lt\n        /* \"auction_contract/src/Auction.sol\":3446:3506  require(block.timestamp < expire_at, \"the anction is ended\") */\n      tag_90\n      jumpi\n      mload(0x40)\n      0x08c379a000000000000000000000000000000000000000000000000000000000\n      dup2\n      mstore\n      0x04\n      add\n      tag_91\n      swap1\n      tag_92\n      jump\t// in\n    tag_91:\n      mload(0x40)\n      dup1\n      swap2\n      sub\n      swap1\n      revert\n    tag_90:\n        /* \"auction_contract/src/Auction.sol\":3588:3599  current_bid */\n      sload(0x08)\n        /* \"auction_contract/src/Auction.sol\":3576:3585  msg.value */\n      callvalue\n        /* \"auction_contract/src/Auction.sol\":3576:3599  msg.value > current_bid */\n      gt\n        /* \"auction_contract/src/Auction.sol\":3568:3640  require(msg.value > current_bid, \"price must higher than current price\") */\n      tag_93\n      jumpi\n      mload(0x40)\n      0x08c379a000000000000000000000000000000000000000000000000000000000\n      dup2\n      mstore\n      0x04\n      add\n      tag_94\n      swap1\n      tag_95\n      jump\t// in\n    tag_94:\n      mload(0x40)\n      dup1\n      swap2\n      sub\n      swap1\n      revert\n    tag_93:\n        /* \"auction_contract/src/Auction.sol\":3723:3737  call_down_time */\n      sload(0x01)\n        /* \"auction_contract/src/Auction.sol\":3699:3707  bid_time */\n      0x03\n        /* \"auction_contract/src/Auction.sol\":3699:3719  bid_time[msg.sender] */\n      0x00\n        /* \"auction_contract/src/Auction.sol\":3708:3718  msg.sender */\n      caller\n        /* \"auction_contract/src/Auction.sol\":3699:3719  bid_time[msg.sender] */\n      0xffffffffffffffffffffffffffffffffffffffff\n      and\n      0xffffffffffffffffffffffffffffffffffffffff\n      and\n      dup2\n      mstore\n      0x20\n      add\n      swap1\n      dup2\n      mstore\n      0x20\n      add\n      0x00\n      keccak256\n      sload\n        /* \"auction_contract/src/Auction.sol\":3681:3696  block.timestamp */\n      timestamp\n        /* \"auction_contract/src/Auction.sol\":3681:3719  block.timestamp - bid_time[msg.sender] */\n      tag_96\n      swap2\n      swap1\n      tag_97\n      jump\t// in\n    tag_96:\n        /* \"auction_contract/src/Auction.sol\":3680:3737  (block.timestamp - bid_time[msg.sender]) > call_down_time */\n      gt\n        /* \"auction_contract/src/Auction.sol\":3672:3792  require((block.timestamp - bid_time[msg.sender]) > call_down_time, \"call down, you biding just now, try it 5 min later\") */\n      tag_98\n      jumpi\n      mload(0x40)\n      0x08c379a000000000000000000000000000000000000000000000000000000000\n      dup2\n      mstore\n      0x04\n      add\n      tag_99\n      swap1\n      tag_100\n      jump\t// in\n    tag_99:\n      mload(0x40)\n      dup1\n      swap2\n      sub\n      swap1\n      revert\n    tag_98:\n        /* \"auction_contract/src/Auction.sol\":3910:3920  delay_time */\n      sload(0x02)\n        /* \"auction_contract/src/Auction.sol\":3891:3906  block.timestamp */\n      timestamp\n        /* \"auction_contract/src/Auction.sol\":3879:3888  expire_at */\n      sload(0x07)\n        /* \"auction_contract/src/Auction.sol\":3879:3906  expire_at - block.timestamp */\n      tag_101\n      swap2\n      swap1\n      tag_97\n      jump\t// in\n    tag_101:\n        /* \"auction_contract/src/Auction.sol\":3878:3920  (expire_at - block.timestamp) < delay_time */\n      lt\n        /* \"auction_contract/src/Auction.sol\":3874:3981  if ((expire_at - block.timestamp) < delay_time) {... */\n      iszero\n      tag_102\n      jumpi\n        /* \"auction_contract/src/Auction.sol\":3960:3970  delay_time */\n      sload(0x02)\n        /* \"auction_contract/src/Auction.sol\":3948:3957  expire_at */\n      sload(0x07)\n        /* \"auction_contract/src/Auction.sol\":3948:3970  expire_at + delay_time */\n      tag_103\n      swap2\n      swap1\n      tag_104\n      jump\t// in\n    tag_103:\n        /* \"auction_contract/src/Auction.sol\":3936:3945  expire_at */\n      0x07\n        /* \"auction_contract/src/Auction.sol\":3936:3970  expire_at = expire_at + delay_time */\n      dup2\n      swap1\n      sstore\n      pop\n        /* \"auction_contract/src/Auction.sol\":3874:3981  if ((expire_at - block.timestamp) < delay_time) {... */\n    tag_102:\n        /* \"auction_contract/src/Auction.sol\":4085:4086  0 */\n      0x00\n        /* \"auction_contract/src/Auction.sol\":4055:4087  current_max_bidder != address(0) */\n      0xffffffffffffffffffffffffffffffffffffffff\n      and\n        /* \"auction_contract/src/Auction.sol\":4055:4073  current_max_bidder */\n      0x0a\n      0x00\n      swap1\n      sload\n      swap1\n      0x0100\n      exp\n      swap1\n      div\n      0xffffffffffffffffffffffffffffffffffffffff\n      and\n        /* \"auction_contract/src/Auction.sol\":4055:4087  current_max_bidder != address(0) */\n      0xffffffffffffffffffffffffffffffffffffffff\n      and\n      eq\n        /* \"auction_contract/src/Auction.sol\":4051:4312  if (current_max_bidder != address(0)) {... */\n      tag_105\n      jumpi\n        /* \"auction_contract/src/Auction.sol\":4290:4301  current_bid */\n      sload(0x08)\n        /* \"auction_contract/src/Auction.sol\":4252:4266  pendingReturns */\n      0x05\n        /* \"auction_contract/src/Auction.sol\":4252:4286  pendingReturns[current_max_bidder] */\n      0x00\n        /* \"auction_contract/src/Auction.sol\":4267:4285  current_max_bidder */\n      0x0a\n      0x00\n      swap1\n      sload\n      swap1\n      0x0100\n      exp\n      swap1\n      div\n      0xffffffffffffffffffffffffffffffffffffffff\n      and\n        /* \"auction_contract/src/Auction.sol\":4252:4286  pendingReturns[current_max_bidder] */\n      0xffffffffffffffffffffffffffffffffffffffff\n      and\n      0xffffffffffffffffffffffffffffffffffffffff\n      and\n      dup2\n      mstore\n      0x20\n      add\n      swap1\n      dup2\n      mstore\n      0x20\n      add\n      0x00\n      keccak256\n      0x00\n        /* \"auction_contract/src/Auction.sol\":4252:4301  pendingReturns[current_max_bidder] += current_bid */\n      dup3\n      dup3\n      sload\n      tag_106\n      swap2\n      swap1\n      tag_104\n      jump\t// in\n    tag_106:\n      swap3\n      pop\n      pop\n      dup2\n      swap1\n      sstore\n      pop\n        /* \"auction_contract/src/Auction.sol\":4051:4312  if (current_max_bidder != address(0)) {... */\n    tag_105:\n        /* \"auction_contract/src/Auction.sol\":4372:4381  msg.value */\n      callvalue\n        /* \"auction_contract/src/Auction.sol\":4358:4369  current_bid */\n      0x08\n        /* \"auction_contract/src/Auction.sol\":4358:4381  current_bid = msg.value */\n      dup2\n      swap1\n      sstore\n      pop\n        /* \"auction_contract/src/Auction.sol\":4420:4430  msg.sender */\n      caller\n        /* \"auction_contract/src/Auction.sol\":4391:4409  current_max_bidder */\n      0x0a\n      0x00\n        /* \"auction_contract/src/Auction.sol\":4391:4431  current_max_bidder = payable(msg.sender) */\n      0x0100\n      exp\n      dup2\n      sload\n      dup2\n      0xffffffffffffffffffffffffffffffffffffffff\n      mul\n      not\n      and\n      swap1\n      dup4\n      0xffffffffffffffffffffffffffffffffffffffff\n      and\n      mul\n      or\n      swap1\n      sstore\n      pop\n        /* \"auction_contract/src/Auction.sol\":4464:4479  block.timestamp */\n      timestamp\n        /* \"auction_contract/src/Auction.sol\":4441:4449  bid_time */\n      0x03\n        /* \"auction_contract/src/Auction.sol\":4441:4461  bid_time[msg.sender] */\n      0x00\n        /* \"auction_contract/src/Auction.sol\":4450:4460  msg.sender */\n      caller\n        /* \"auction_contract/src/Auction.sol\":4441:4461  bid_time[msg.sender] */\n      0xffffffffffffffffffffffffffffffffffffffff\n      and\n      0xffffffffffffffffffffffffffffffffffffffff\n      and\n      dup2\n      mstore\n      0x20\n      add\n      swap1\n      dup2\n      mstore\n      0x20\n      add\n      0x00\n      keccak256\n        /* \"auction_contract/src/Auction.sol\":4441:4479  bid_time[msg.sender] = block.timestamp */\n      dup2\n      swap1\n      sstore\n      pop\n        /* \"auction_contract/src/Auction.sol\":4525:4559  Bidding_msg(msg.sender, msg.value) */\n      0xad39847edbff9b525a524a14bdea0ffc8ba7b93fca296e09a5147991599e8e56\n        /* \"auction_contract/src/Auction.sol\":4537:4547  msg.sender */\n      caller\n        /* \"auction_contract/src/Auction.sol\":4549:4558  msg.value */\n      callvalue\n        /* \"auction_contract/src/Auction.sol\":4525:4559  Bidding_msg(msg.sender, msg.value) */\n      mload(0x40)\n      tag_107\n      swap3\n      swap2\n      swap1\n      tag_108\n      jump\t// in\n    tag_107:\n      mload(0x40)\n      dup1\n      swap2\n      sub\n      swap1\n      log1\n        /* \"auction_contract/src/Auction.sol\":3208:4567  function bidding() external payable{... */\n      jump\t// out\n        /* \"@openzeppelin/contracts/access/Ownable.sol\":2543:2758  function transferOwnership(address newOwner) public virtual onlyOwner {... */\n    tag_42:\n        /* \"@openzeppelin/contracts/access/Ownable.sol\":1531:1544  _checkOwner() */\n      tag_110\n        /* \"@openzeppelin/contracts/access/Ownable.sol\":1531:1542  _checkOwner */\n      tag_60\n        /* \"@openzeppelin/contracts/access/Ownable.sol\":1531:1544  _checkOwner() */\n      jump\t// in\n    tag_110:\n        /* \"@openzeppelin/contracts/access/Ownable.sol\":2647:2648  0 */\n      0x00\n        /* \"@openzeppelin/contracts/access/Ownable.sol\":2627:2649  newOwner == address(0) */\n      0xffffffffffffffffffffffffffffffffffffffff\n      and\n        /* \"@openzeppelin/contracts/access/Ownable.sol\":2627:2635  newOwner */\n      dup2\n        /* \"@openzeppelin/contracts/access/Ownable.sol\":2627:2649  newOwner == address(0) */\n      0xffffffffffffffffffffffffffffffffffffffff\n      and\n      sub\n        /* \"@openzeppelin/contracts/access/Ownable.sol\":2623:2714  if (newOwner == address(0)) {... */\n      tag_112\n      jumpi\n        /* \"@openzeppelin/contracts/access/Ownable.sol\":2700:2701  0 */\n      0x00\n        /* \"@openzeppelin/contracts/access/Ownable.sol\":2672:2703  OwnableInvalidOwner(address(0)) */\n      mload(0x40)\n      0x1e4fbdf700000000000000000000000000000000000000000000000000000000\n      dup2\n      mstore\n      0x04\n      add\n      tag_113\n      swap2\n      swap1\n      tag_30\n      jump\t// in\n    tag_113:\n      mload(0x40)\n      dup1\n      swap2\n      sub\n      swap1\n      revert\n        /* \"@openzeppelin/contracts/access/Ownable.sol\":2623:2714  if (newOwner == address(0)) {... */\n    tag_112:\n        /* \"@openzeppelin/contracts/access/Ownable.sol\":2723:2751  _transferOwnership(newOwner) */\n      tag_114\n        /* \"@openzeppelin/contracts/access/Ownable.sol\":2742:2750  newOwner */\n      dup2\n        /* \"@openzeppelin/contracts/access/Ownable.sol\":2723:2741  _transferOwnership */\n      tag_76\n        /* \"@openzeppelin/contracts/access/Ownable.sol\":2723:2751  _transferOwnership(newOwner) */\n      jump\t// in\n    tag_114:\n        /* \"@openzeppelin/contracts/access/Ownable.sol\":2543:2758  function transferOwnership(address newOwner) public virtual onlyOwner {... */\n      pop\n      jump\t// out\n        /* \"auction_contract/src/Auction.sol\":5117:5606  function endAuction() external onlyOwner{... */\n    tag_45:\n        /* \"@openzeppelin/contracts/access/Ownable.sol\":1531:1544  _checkOwner() */\n      tag_116\n        /* \"@openzeppelin/contracts/access/Ownable.sol\":1531:1542  _checkOwner */\n      tag_60\n        /* \"@openzeppelin/contracts/access/Ownable.sol\":1531:1544  _checkOwner() */\n      jump\t// in\n    tag_116:\n        /* \"auction_contract/src/Auction.sol\":5247:5256  expire_at */\n      sload(0x07)\n        /* \"auction_contract/src/Auction.sol\":5229:5244  block.timestamp */\n      timestamp\n        /* \"auction_contract/src/Auction.sol\":5229:5256  block.timestamp > expire_at */\n      gt\n        /* \"auction_contract/src/Auction.sol\":5221:5281  require(block.timestamp > expire_at, \"auction is not ended\") */\n      tag_118\n      jumpi\n      mload(0x40)\n      0x08c379a000000000000000000000000000000000000000000000000000000000\n      dup2\n      mstore\n      0x04\n      add\n      tag_119\n      swap1\n      tag_120\n      jump\t// in\n    tag_119:\n      mload(0x40)\n      dup1\n      swap2\n      sub\n      swap1\n      revert\n    tag_118:\n        /* \"auction_contract/src/Auction.sol\":5315:5334  AuctionState.Active */\n      0x01\n        /* \"auction_contract/src/Auction.sol\":5299:5334  auctionState == AuctionState.Active */\n      0x02\n      dup2\n      gt\n      iszero\n      tag_121\n      jumpi\n      tag_122\n      tag_64\n      jump\t// in\n    tag_122:\n    tag_121:\n        /* \"auction_contract/src/Auction.sol\":5299:5311  auctionState */\n      0x0a\n      0x14\n      swap1\n      sload\n      swap1\n      0x0100\n      exp\n      swap1\n      div\n      0xff\n      and\n        /* \"auction_contract/src/Auction.sol\":5299:5334  auctionState == AuctionState.Active */\n      0x02\n      dup2\n      gt\n      iszero\n      tag_123\n      jumpi\n      tag_124\n      tag_64\n      jump\t// in\n    tag_124:\n    tag_123:\n      eq\n        /* \"auction_contract/src/Auction.sol\":5291:5361  require(auctionState == AuctionState.Active, \"Auction is not active.\") */\n      tag_125\n      jumpi\n      mload(0x40)\n      0x08c379a000000000000000000000000000000000000000000000000000000000\n      dup2\n      mstore\n      0x04\n      add\n      tag_126\n      swap1\n      tag_86\n      jump\t// in\n    tag_126:\n      mload(0x40)\n      dup1\n      swap2\n      sub\n      swap1\n      revert\n    tag_125:\n        /* \"auction_contract/src/Auction.sol\":5387:5405  AuctionState.Ended */\n      0x02\n        /* \"auction_contract/src/Auction.sol\":5372:5384  auctionState */\n      0x0a\n      0x14\n        /* \"auction_contract/src/Auction.sol\":5372:5405  auctionState = AuctionState.Ended */\n      0x0100\n      exp\n      dup2\n      sload\n      dup2\n      0xff\n      mul\n      not\n      and\n      swap1\n      dup4\n      0x02\n      dup2\n      gt\n      iszero\n      tag_127\n      jumpi\n      tag_128\n      tag_64\n      jump\t// in\n    tag_128:\n    tag_127:\n      mul\n      or\n      swap1\n      sstore\n      pop\n        /* \"auction_contract/src/Auction.sol\":5441:5453  bool success */\n      0x00\n        /* \"auction_contract/src/Auction.sol\":5459:5465  seller */\n      0x04\n      0x00\n      swap1\n      sload\n      swap1\n      0x0100\n      exp\n      swap1\n      div\n      0xffffffffffffffffffffffffffffffffffffffff\n      and\n        /* \"auction_contract/src/Auction.sol\":5459:5470  seller.call */\n      0xffffffffffffffffffffffffffffffffffffffff\n      and\n        /* \"auction_contract/src/Auction.sol\":5478:5489  current_bid */\n      sload(0x08)\n        /* \"auction_contract/src/Auction.sol\":5459:5494  seller.call{value: current_bid}(\"\") */\n      mload(0x40)\n      tag_129\n      swap1\n      tag_51\n      jump\t// in\n    tag_129:\n      0x00\n      mload(0x40)\n      dup1\n      dup4\n      sub\n      dup2\n      dup6\n      dup8\n      gas\n      call\n      swap3\n      pop\n      pop\n      pop\n      returndatasize\n      dup1\n      0x00\n      dup2\n      eq\n      tag_132\n      jumpi\n      mload(0x40)\n      swap2\n      pop\n      and(add(returndatasize, 0x3f), not(0x1f))\n      dup3\n      add\n      0x40\n      mstore\n      returndatasize\n      dup3\n      mstore\n      returndatasize\n      0x00\n      0x20\n      dup5\n      add\n      returndatacopy\n      jump(tag_131)\n    tag_132:\n      0x60\n      swap2\n      pop\n    tag_131:\n      pop\n        /* \"auction_contract/src/Auction.sol\":5440:5494  (bool success, ) = seller.call{value: current_bid}(\"\") */\n      pop\n      swap1\n      pop\n        /* \"auction_contract/src/Auction.sol\":5512:5519  success */\n      dup1\n        /* \"auction_contract/src/Auction.sol\":5504:5538  require(success, \"transfer faile\") */\n      tag_133\n      jumpi\n      mload(0x40)\n      0x08c379a000000000000000000000000000000000000000000000000000000000\n      dup2\n      mstore\n      0x04\n      add\n      tag_134\n      swap1\n      tag_135\n      jump\t// in\n    tag_134:\n      mload(0x40)\n      dup1\n      swap2\n      sub\n      swap1\n      revert\n    tag_133:\n        /* \"auction_contract/src/Auction.sol\":5567:5585  current_max_bidder */\n      0x0a\n      0x00\n      swap1\n      sload\n      swap1\n      0x0100\n      exp\n      swap1\n      div\n      0xffffffffffffffffffffffffffffffffffffffff\n      and\n        /* \"auction_contract/src/Auction.sol\":5554:5599  AuctionEnded(current_max_bidder, current_bid) */\n      0xffffffffffffffffffffffffffffffffffffffff\n      and\n      0xdaec4582d5d9595688c8c98545fdd1c696d41c6aeaeb636737e84ed2f5c00eda\n        /* \"auction_contract/src/Auction.sol\":5587:5598  current_bid */\n      sload(0x08)\n        /* \"auction_contract/src/Auction.sol\":5554:5599  AuctionEnded(current_max_bidder, current_bid) */\n      mload(0x40)\n      tag_136\n      swap2\n      swap1\n      tag_35\n      jump\t// in\n    tag_136:\n      mload(0x40)\n      dup1\n      swap2\n      sub\n      swap1\n      log2\n        /* \"auction_contract/src/Auction.sol\":5157:5606  {... */\n      pop\n        /* \"auction_contract/src/Auction.sol\":5117:5606  function endAuction() external onlyOwner{... */\n      jump\t// out\n        /* \"@openzeppelin/contracts/access/Ownable.sol\":1796:1958  function _checkOwner() internal view virtual {... */\n    tag_60:\n        /* \"@openzeppelin/contracts/access/Ownable.sol\":1866:1878  _msgSender() */\n      tag_138\n        /* \"@openzeppelin/contracts/access/Ownable.sol\":1866:1876  _msgSender */\n      tag_139\n        /* \"@openzeppelin/contracts/access/Ownable.sol\":1866:1878  _msgSender() */\n      jump\t// in\n    tag_138:\n        /* \"@openzeppelin/contracts/access/Ownable.sol\":1855:1878  owner() != _msgSender() */\n      0xffffffffffffffffffffffffffffffffffffffff\n      and\n        /* \"@openzeppelin/contracts/access/Ownable.sol\":1855:1862  owner() */\n      tag_140\n        /* \"@openzeppelin/contracts/access/Ownable.sol\":1855:1860  owner */\n      tag_28\n        /* \"@openzeppelin/contracts/access/Ownable.sol\":1855:1862  owner() */\n      jump\t// in\n    tag_140:\n        /* \"@openzeppelin/contracts/access/Ownable.sol\":1855:1878  owner() != _msgSender() */\n      0xffffffffffffffffffffffffffffffffffffffff\n      and\n      eq\n        /* \"@openzeppelin/contracts/access/Ownable.sol\":1851:1952  if (owner() != _msgSender()) {... */\n      tag_141\n      jumpi\n        /* \"@openzeppelin/contracts/access/Ownable.sol\":1928:1940  _msgSender() */\n      tag_142\n        /* \"@openzeppelin/contracts/access/Ownable.sol\":1928:1938  _msgSender */\n      tag_139\n        /* \"@openzeppelin/contracts/access/Ownable.sol\":1928:1940  _msgSender() */\n      jump\t// in\n    tag_142:\n        /* \"@openzeppelin/contracts/access/Ownable.sol\":1901:1941  OwnableUnauthorizedAccount(_msgSender()) */\n      mload(0x40)\n      0x118cdaa700000000000000000000000000000000000000000000000000000000\n      dup2\n      mstore\n      0x04\n      add\n      tag_143\n      swap2\n      swap1\n      tag_30\n      jump\t// in\n    tag_143:\n      mload(0x40)\n      dup1\n      swap2\n      sub\n      swap1\n      revert\n        /* \"@openzeppelin/contracts/access/Ownable.sol\":1851:1952  if (owner() != _msgSender()) {... */\n    tag_141:\n        /* \"@openzeppelin/contracts/access/Ownable.sol\":1796:1958  function _checkOwner() internal view virtual {... */\n      jump\t// out\n        /* \"@openzeppelin/contracts/access/Ownable.sol\":2912:3099  function _transferOwnership(address newOwner) internal virtual {... */\n    tag_76:\n        /* \"@openzeppelin/contracts/access/Ownable.sol\":2985:3001  address oldOwner */\n      0x00\n        /* \"@openzeppelin/contracts/access/Ownable.sol\":3004:3010  _owner */\n      dup1\n      0x00\n      swap1\n      sload\n      swap1\n      0x0100\n      exp\n      swap1\n      div\n      0xffffffffffffffffffffffffffffffffffffffff\n      and\n        /* \"@openzeppelin/contracts/access/Ownable.sol\":2985:3010  address oldOwner = _owner */\n      swap1\n      pop\n        /* \"@openzeppelin/contracts/access/Ownable.sol\":3029:3037  newOwner */\n      dup2\n        /* \"@openzeppelin/contracts/access/Ownable.sol\":3020:3026  _owner */\n      0x00\n      dup1\n        /* \"@openzeppelin/contracts/access/Ownable.sol\":3020:3037  _owner = newOwner */\n      0x0100\n      exp\n      dup2\n      sload\n      dup2\n      0xffffffffffffffffffffffffffffffffffffffff\n      mul\n      not\n      and\n      swap1\n      dup4\n      0xffffffffffffffffffffffffffffffffffffffff\n      and\n      mul\n      or\n      swap1\n      sstore\n      pop\n        /* \"@openzeppelin/contracts/access/Ownable.sol\":3083:3091  newOwner */\n      dup2\n        /* \"@openzeppelin/contracts/access/Ownable.sol\":3052:3092  OwnershipTransferred(oldOwner, newOwner) */\n      0xffffffffffffffffffffffffffffffffffffffff\n      and\n        /* \"@openzeppelin/contracts/access/Ownable.sol\":3073:3081  oldOwner */\n      dup2\n        /* \"@openzeppelin/contracts/access/Ownable.sol\":3052:3092  OwnershipTransferred(oldOwner, newOwner) */\n      0xffffffffffffffffffffffffffffffffffffffff\n      and\n      0x8be0079c531659141344cd1fd0a4f28419497f9722a3daafe3b4186f6b6457e0\n      mload(0x40)\n      mload(0x40)\n      dup1\n      swap2\n      sub\n      swap1\n      log3\n        /* \"@openzeppelin/contracts/access/Ownable.sol\":2975:3099  {... */\n      pop\n        /* \"@openzeppelin/contracts/access/Ownable.sol\":2912:3099  function _transferOwnership(address newOwner) internal virtual {... */\n      pop\n      jump\t// out\n        /* \"@openzeppelin/contracts/utils/Context.sol\":656:752  function _msgSender() internal view virtual returns (address) {... */\n    tag_139:\n        /* \"@openzeppelin/contracts/utils/Context.sol\":709:716  address */\n      0x00\n        /* \"@openzeppelin/contracts/utils/Context.sol\":735:745  msg.sender */\n      caller\n        /* \"@openzeppelin/contracts/utils/Context.sol\":728:745  return msg.sender */\n      swap1\n      pop\n        /* \"@openzeppelin/contracts/utils/Context.sol\":656:752  function _msgSender() internal view virtual returns (address) {... */\n      swap1\n      jump\t// out\n        /* \"#utility.yul\":7:187   */\n    tag_64:\n        /* \"#utility.yul\":55:132   */\n      0x4e487b7100000000000000000000000000000000000000000000000000000000\n        /* \"#utility.yul\":52:53   */\n      0x00\n        /* \"#utility.yul\":45:133   */\n      mstore\n        /* \"#utility.yul\":152:156   */\n      0x21\n        /* \"#utility.yul\":149:150   */\n      0x04\n        /* \"#utility.yul\":142:157   */\n      mstore\n        /* \"#utility.yul\":176:180   */\n      0x24\n        /* \"#utility.yul\":173:174   */\n      0x00\n        /* \"#utility.yul\":166:181   */\n      revert\n        /* \"#utility.yul\":193:314   */\n    tag_146:\n        /* \"#utility.yul\":282:283   */\n      0x03\n        /* \"#utility.yul\":275:280   */\n      dup2\n        /* \"#utility.yul\":272:284   */\n      lt\n        /* \"#utility.yul\":262:308   */\n      tag_188\n      jumpi\n        /* \"#utility.yul\":288:306   */\n      tag_189\n      tag_64\n      jump\t// in\n    tag_189:\n        /* \"#utility.yul\":262:308   */\n    tag_188:\n        /* \"#utility.yul\":193:314   */\n      pop\n      jump\t// out\n        /* \"#utility.yul\":320:463   */\n    tag_147:\n        /* \"#utility.yul\":373:380   */\n      0x00\n        /* \"#utility.yul\":402:407   */\n      dup2\n        /* \"#utility.yul\":391:407   */\n      swap1\n      pop\n        /* \"#utility.yul\":408:457   */\n      tag_191\n        /* \"#utility.yul\":451:456   */\n      dup3\n        /* \"#utility.yul\":408:457   */\n      tag_146\n      jump\t// in\n    tag_191:\n        /* \"#utility.yul\":320:463   */\n      swap2\n      swap1\n      pop\n      jump\t// out\n        /* \"#utility.yul\":469:612   */\n    tag_148:\n        /* \"#utility.yul\":533:542   */\n      0x00\n        /* \"#utility.yul\":566:606   */\n      tag_193\n        /* \"#utility.yul\":600:605   */\n      dup3\n        /* \"#utility.yul\":566:606   */\n      tag_147\n      jump\t// in\n    tag_193:\n        /* \"#utility.yul\":553:606   */\n      swap1\n      pop\n        /* \"#utility.yul\":469:612   */\n      swap2\n      swap1\n      pop\n      jump\t// out\n        /* \"#utility.yul\":618:777   */\n    tag_149:\n        /* \"#utility.yul\":719:770   */\n      tag_195\n        /* \"#utility.yul\":764:769   */\n      dup2\n        /* \"#utility.yul\":719:770   */\n      tag_148\n      jump\t// in\n    tag_195:\n        /* \"#utility.yul\":714:717   */\n      dup3\n        /* \"#utility.yul\":707:771   */\n      mstore\n        /* \"#utility.yul\":618:777   */\n      pop\n      pop\n      jump\t// out\n        /* \"#utility.yul\":783:1033   */\n    tag_25:\n        /* \"#utility.yul\":890:894   */\n      0x00\n        /* \"#utility.yul\":928:930   */\n      0x20\n        /* \"#utility.yul\":917:926   */\n      dup3\n        /* \"#utility.yul\":913:931   */\n      add\n        /* \"#utility.yul\":905:931   */\n      swap1\n      pop\n        /* \"#utility.yul\":941:1026   */\n      tag_197\n        /* \"#utility.yul\":1023:1024   */\n      0x00\n        /* \"#utility.yul\":1012:1021   */\n      dup4\n        /* \"#utility.yul\":1008:1025   */\n      add\n        /* \"#utility.yul\":999:1005   */\n      dup5\n        /* \"#utility.yul\":941:1026   */\n      tag_149\n      jump\t// in\n    tag_197:\n        /* \"#utility.yul\":783:1033   */\n      swap3\n      swap2\n      pop\n      pop\n      jump\t// out\n        /* \"#utility.yul\":1039:1165   */\n    tag_150:\n        /* \"#utility.yul\":1076:1083   */\n      0x00\n        /* \"#utility.yul\":1116:1158   */\n      0xffffffffffffffffffffffffffffffffffffffff\n        /* \"#utility.yul\":1109:1114   */\n      dup3\n        /* \"#utility.yul\":1105:1159   */\n      and\n        /* \"#utility.yul\":1094:1159   */\n      swap1\n      pop\n        /* \"#utility.yul\":1039:1165   */\n      swap2\n      swap1\n      pop\n      jump\t// out\n        /* \"#utility.yul\":1171:1267   */\n    tag_151:\n        /* \"#utility.yul\":1208:1215   */\n      0x00\n        /* \"#utility.yul\":1237:1261   */\n      tag_200\n        /* \"#utility.yul\":1255:1260   */\n      dup3\n        /* \"#utility.yul\":1237:1261   */\n      tag_150\n      jump\t// in\n    tag_200:\n        /* \"#utility.yul\":1226:1261   */\n      swap1\n      pop\n        /* \"#utility.yul\":1171:1267   */\n      swap2\n      swap1\n      pop\n      jump\t// out\n        /* \"#utility.yul\":1273:1391   */\n    tag_152:\n        /* \"#utility.yul\":1360:1384   */\n      tag_202\n        /* \"#utility.yul\":1378:1383   */\n      dup2\n        /* \"#utility.yul\":1360:1384   */\n      tag_151\n      jump\t// in\n    tag_202:\n        /* \"#utility.yul\":1355:1358   */\n      dup3\n        /* \"#utility.yul\":1348:1385   */\n      mstore\n        /* \"#utility.yul\":1273:1391   */\n      pop\n      pop\n      jump\t// out\n        /* \"#utility.yul\":1397:1619   */\n    tag_30:\n        /* \"#utility.yul\":1490:1494   */\n      0x00\n        /* \"#utility.yul\":1528:1530   */\n      0x20\n        /* \"#utility.yul\":1517:1526   */\n      dup3\n        /* \"#utility.yul\":1513:1531   */\n      add\n        /* \"#utility.yul\":1505:1531   */\n      swap1\n      pop\n        /* \"#utility.yul\":1541:1612   */\n      tag_204\n        /* \"#utility.yul\":1609:1610   */\n      0x00\n        /* \"#utility.yul\":1598:1607   */\n      dup4\n        /* \"#utility.yul\":1594:1611   */\n      add\n        /* \"#utility.yul\":1585:1591   */\n      dup5\n        /* \"#utility.yul\":1541:1612   */\n      tag_152\n      jump\t// in\n    tag_204:\n        /* \"#utility.yul\":1397:1619   */\n      swap3\n      swap2\n      pop\n      pop\n      jump\t// out\n        /* \"#utility.yul\":1625:1702   */\n    tag_153:\n        /* \"#utility.yul\":1662:1669   */\n      0x00\n        /* \"#utility.yul\":1691:1696   */\n      dup2\n        /* \"#utility.yul\":1680:1696   */\n      swap1\n      pop\n        /* \"#utility.yul\":1625:1702   */\n      swap2\n      swap1\n      pop\n      jump\t// out\n        /* \"#utility.yul\":1708:1826   */\n    tag_154:\n        /* \"#utility.yul\":1795:1819   */\n      tag_207\n        /* \"#utility.yul\":1813:1818   */\n      dup2\n        /* \"#utility.yul\":1795:1819   */\n      tag_153\n      jump\t// in\n    tag_207:\n        /* \"#utility.yul\":1790:1793   */\n      dup3\n        /* \"#utility.yul\":1783:1820   */\n      mstore\n        /* \"#utility.yul\":1708:1826   */\n      pop\n      pop\n      jump\t// out\n        /* \"#utility.yul\":1832:2054   */\n    tag_35:\n        /* \"#utility.yul\":1925:1929   */\n      0x00\n        /* \"#utility.yul\":1963:1965   */\n      0x20\n        /* \"#utility.yul\":1952:1961   */\n      dup3\n        /* \"#utility.yul\":1948:1966   */\n      add\n        /* \"#utility.yul\":1940:1966   */\n      swap1\n      pop\n        /* \"#utility.yul\":1976:2047   */\n      tag_209\n        /* \"#utility.yul\":2044:2045   */\n      0x00\n        /* \"#utility.yul\":2033:2042   */\n      dup4\n        /* \"#utility.yul\":2029:2046   */\n      add\n        /* \"#utility.yul\":2020:2026   */\n      dup5\n        /* \"#utility.yul\":1976:2047   */\n      tag_154\n      jump\t// in\n    tag_209:\n        /* \"#utility.yul\":1832:2054   */\n      swap3\n      swap2\n      pop\n      pop\n      jump\t// out\n        /* \"#utility.yul\":2141:2258   */\n    tag_156:\n        /* \"#utility.yul\":2250:2251   */\n      0x00\n        /* \"#utility.yul\":2247:2248   */\n      dup1\n        /* \"#utility.yul\":2240:2252   */\n      revert\n        /* \"#utility.yul\":2387:2509   */\n    tag_158:\n        /* \"#utility.yul\":2460:2484   */\n      tag_214\n        /* \"#utility.yul\":2478:2483   */\n      dup2\n        /* \"#utility.yul\":2460:2484   */\n      tag_151\n      jump\t// in\n    tag_214:\n        /* \"#utility.yul\":2453:2458   */\n      dup2\n        /* \"#utility.yul\":2450:2485   */\n      eq\n        /* \"#utility.yul\":2440:2503   */\n      tag_215\n      jumpi\n        /* \"#utility.yul\":2499:2500   */\n      0x00\n        /* \"#utility.yul\":2496:2497   */\n      dup1\n        /* \"#utility.yul\":2489:2501   */\n      revert\n        /* \"#utility.yul\":2440:2503   */\n    tag_215:\n        /* \"#utility.yul\":2387:2509   */\n      pop\n      jump\t// out\n        /* \"#utility.yul\":2515:2654   */\n    tag_159:\n        /* \"#utility.yul\":2561:2566   */\n      0x00\n        /* \"#utility.yul\":2599:2605   */\n      dup2\n        /* \"#utility.yul\":2586:2606   */\n      calldataload\n        /* \"#utility.yul\":2577:2606   */\n      swap1\n      pop\n        /* \"#utility.yul\":2615:2648   */\n      tag_217\n        /* \"#utility.yul\":2642:2647   */\n      dup2\n        /* \"#utility.yul\":2615:2648   */\n      tag_158\n      jump\t// in\n    tag_217:\n        /* \"#utility.yul\":2515:2654   */\n      swap3\n      swap2\n      pop\n      pop\n      jump\t// out\n        /* \"#utility.yul\":2660:2989   */\n    tag_41:\n        /* \"#utility.yul\":2719:2725   */\n      0x00\n        /* \"#utility.yul\":2768:2770   */\n      0x20\n        /* \"#utility.yul\":2756:2765   */\n      dup3\n        /* \"#utility.yul\":2747:2754   */\n      dup5\n        /* \"#utility.yul\":2743:2766   */\n      sub\n        /* \"#utility.yul\":2739:2771   */\n      slt\n        /* \"#utility.yul\":2736:2855   */\n      iszero\n      tag_219\n      jumpi\n        /* \"#utility.yul\":2774:2853   */\n      tag_220\n      tag_156\n      jump\t// in\n    tag_220:\n        /* \"#utility.yul\":2736:2855   */\n    tag_219:\n        /* \"#utility.yul\":2894:2895   */\n      0x00\n        /* \"#utility.yul\":2919:2972   */\n      tag_221\n        /* \"#utility.yul\":2964:2971   */\n      dup5\n        /* \"#utility.yul\":2955:2961   */\n      dup3\n        /* \"#utility.yul\":2944:2953   */\n      dup6\n        /* \"#utility.yul\":2940:2962   */\n      add\n        /* \"#utility.yul\":2919:2972   */\n      tag_159\n      jump\t// in\n    tag_221:\n        /* \"#utility.yul\":2909:2972   */\n      swap2\n      pop\n        /* \"#utility.yul\":2865:2982   */\n      pop\n        /* \"#utility.yul\":2660:2989   */\n      swap3\n      swap2\n      pop\n      pop\n      jump\t// out\n        /* \"#utility.yul\":2995:3164   */\n    tag_160:\n        /* \"#utility.yul\":3079:3090   */\n      0x00\n        /* \"#utility.yul\":3113:3119   */\n      dup3\n        /* \"#utility.yul\":3108:3111   */\n      dup3\n        /* \"#utility.yul\":3101:3120   */\n      mstore\n        /* \"#utility.yul\":3153:3157   */\n      0x20\n        /* \"#utility.yul\":3148:3151   */\n      dup3\n        /* \"#utility.yul\":3144:3158   */\n      add\n        /* \"#utility.yul\":3129:3158   */\n      swap1\n      pop\n        /* \"#utility.yul\":2995:3164   */\n      swap3\n      swap2\n      pop\n      pop\n      jump\t// out\n        /* \"#utility.yul\":3170:3340   */\n    tag_161:\n        /* \"#utility.yul\":3310:3332   */\n      0x4e6f2066756e647320746f207769746864726177000000000000000000000000\n        /* \"#utility.yul\":3306:3307   */\n      0x00\n        /* \"#utility.yul\":3298:3304   */\n      dup3\n        /* \"#utility.yul\":3294:3308   */\n      add\n        /* \"#utility.yul\":3287:3333   */\n      mstore\n        /* \"#utility.yul\":3170:3340   */\n      pop\n      jump\t// out\n        /* \"#utility.yul\":3346:3712   */\n    tag_162:\n        /* \"#utility.yul\":3488:3491   */\n      0x00\n        /* \"#utility.yul\":3509:3576   */\n      tag_225\n        /* \"#utility.yul\":3573:3575   */\n      0x14\n        /* \"#utility.yul\":3568:3571   */\n      dup4\n        /* \"#utility.yul\":3509:3576   */\n      tag_160\n      jump\t// in\n    tag_225:\n        /* \"#utility.yul\":3502:3576   */\n      swap2\n      pop\n        /* \"#utility.yul\":3585:3678   */\n      tag_226\n        /* \"#utility.yul\":3674:3677   */\n      dup3\n        /* \"#utility.yul\":3585:3678   */\n      tag_161\n      jump\t// in\n    tag_226:\n        /* \"#utility.yul\":3703:3705   */\n      0x20\n        /* \"#utility.yul\":3698:3701   */\n      dup3\n        /* \"#utility.yul\":3694:3706   */\n      add\n        /* \"#utility.yul\":3687:3706   */\n      swap1\n      pop\n        /* \"#utility.yul\":3346:3712   */\n      swap2\n      swap1\n      pop\n      jump\t// out\n        /* \"#utility.yul\":3718:4137   */\n    tag_49:\n        /* \"#utility.yul\":3884:3888   */\n      0x00\n        /* \"#utility.yul\":3922:3924   */\n      0x20\n        /* \"#utility.yul\":3911:3920   */\n      dup3\n        /* \"#utility.yul\":3907:3925   */\n      add\n        /* \"#utility.yul\":3899:3925   */\n      swap1\n      pop\n        /* \"#utility.yul\":3971:3980   */\n      dup2\n        /* \"#utility.yul\":3965:3969   */\n      dup2\n        /* \"#utility.yul\":3961:3981   */\n      sub\n        /* \"#utility.yul\":3957:3958   */\n      0x00\n        /* \"#utility.yul\":3946:3955   */\n      dup4\n        /* \"#utility.yul\":3942:3959   */\n      add\n        /* \"#utility.yul\":3935:3982   */\n      mstore\n        /* \"#utility.yul\":3999:4130   */\n      tag_228\n        /* \"#utility.yul\":4125:4129   */\n      dup2\n        /* \"#utility.yul\":3999:4130   */\n      tag_162\n      jump\t// in\n    tag_228:\n        /* \"#utility.yul\":3991:4130   */\n      swap1\n      pop\n        /* \"#utility.yul\":3718:4137   */\n      swap2\n      swap1\n      pop\n      jump\t// out\n        /* \"#utility.yul\":4143:4290   */\n    tag_163:\n        /* \"#utility.yul\":4244:4255   */\n      0x00\n        /* \"#utility.yul\":4281:4284   */\n      dup2\n        /* \"#utility.yul\":4266:4284   */\n      swap1\n      pop\n        /* \"#utility.yul\":4143:4290   */\n      swap3\n      swap2\n      pop\n      pop\n      jump\t// out\n        /* \"#utility.yul\":4296:4410   */\n    tag_164:\n      pop\n      jump\t// out\n        /* \"#utility.yul\":4416:4814   */\n    tag_165:\n        /* \"#utility.yul\":4575:4578   */\n      0x00\n        /* \"#utility.yul\":4596:4679   */\n      tag_232\n        /* \"#utility.yul\":4677:4678   */\n      0x00\n        /* \"#utility.yul\":4672:4675   */\n      dup4\n        /* \"#utility.yul\":4596:4679   */\n      tag_163\n      jump\t// in\n    tag_232:\n        /* \"#utility.yul\":4589:4679   */\n      swap2\n      pop\n        /* \"#utility.yul\":4688:4781   */\n      tag_233\n        /* \"#utility.yul\":4777:4780   */\n      dup3\n        /* \"#utility.yul\":4688:4781   */\n      tag_164\n      jump\t// in\n    tag_233:\n        /* \"#utility.yul\":4806:4807   */\n      0x00\n        /* \"#utility.yul\":4801:4804   */\n      dup3\n        /* \"#utility.yul\":4797:4808   */\n      add\n        /* \"#utility.yul\":4790:4808   */\n      swap1\n      pop\n        /* \"#utility.yul\":4416:4814   */\n      swap2\n      swap1\n      pop\n      jump\t// out\n        /* \"#utility.yul\":4820:5199   */\n    tag_51:\n        /* \"#utility.yul\":5004:5007   */\n      0x00\n        /* \"#utility.yul\":5026:5173   */\n      tag_235\n        /* \"#utility.yul\":5169:5172   */\n      dup3\n        /* \"#utility.yul\":5026:5173   */\n      tag_165\n      jump\t// in\n    tag_235:\n        /* \"#utility.yul\":5019:5173   */\n      swap2\n      pop\n        /* \"#utility.yul\":5190:5193   */\n      dup2\n        /* \"#utility.yul\":5183:5193   */\n      swap1\n      pop\n        /* \"#utility.yul\":4820:5199   */\n      swap2\n      swap1\n      pop\n      jump\t// out\n        /* \"#utility.yul\":5205:5372   */\n    tag_166:\n        /* \"#utility.yul\":5345:5364   */\n      0x5769746864726177616c206661696c6564000000000000000000000000000000\n        /* \"#utility.yul\":5341:5342   */\n      0x00\n        /* \"#utility.yul\":5333:5339   */\n      dup3\n        /* \"#utility.yul\":5329:5343   */\n      add\n        /* \"#utility.yul\":5322:5365   */\n      mstore\n        /* \"#utility.yul\":5205:5372   */\n      pop\n      jump\t// out\n        /* \"#utility.yul\":5378:5744   */\n    tag_167:\n        /* \"#utility.yul\":5520:5523   */\n      0x00\n        /* \"#utility.yul\":5541:5608   */\n      tag_238\n        /* \"#utility.yul\":5605:5607   */\n      0x11\n        /* \"#utility.yul\":5600:5603   */\n      dup4\n        /* \"#utility.yul\":5541:5608   */\n      tag_160\n      jump\t// in\n    tag_238:\n        /* \"#utility.yul\":5534:5608   */\n      swap2\n      pop\n        /* \"#utility.yul\":5617:5710   */\n      tag_239\n        /* \"#utility.yul\":5706:5709   */\n      dup3\n        /* \"#utility.yul\":5617:5710   */\n      tag_166\n      jump\t// in\n    tag_239:\n        /* \"#utility.yul\":5735:5737   */\n      0x20\n        /* \"#utility.yul\":5730:5733   */\n      dup3\n        /* \"#utility.yul\":5726:5738   */\n      add\n        /* \"#utility.yul\":5719:5738   */\n      swap1\n      pop\n        /* \"#utility.yul\":5378:5744   */\n      swap2\n      swap1\n      pop\n      jump\t// out\n        /* \"#utility.yul\":5750:6169   */\n    tag_57:\n        /* \"#utility.yul\":5916:5920   */\n      0x00\n        /* \"#utility.yul\":5954:5956   */\n      0x20\n        /* \"#utility.yul\":5943:5952   */\n      dup3\n        /* \"#utility.yul\":5939:5957   */\n      add\n        /* \"#utility.yul\":5931:5957   */\n      swap1\n      pop\n        /* \"#utility.yul\":6003:6012   */\n      dup2\n        /* \"#utility.yul\":5997:6001   */\n      dup2\n        /* \"#utility.yul\":5993:6013   */\n      sub\n        /* \"#utility.yul\":5989:5990   */\n      0x00\n        /* \"#utility.yul\":5978:5987   */\n      dup4\n        /* \"#utility.yul\":5974:5991   */\n      add\n        /* \"#utility.yul\":5967:6014   */\n      mstore\n        /* \"#utility.yul\":6031:6162   */\n      tag_241\n        /* \"#utility.yul\":6157:6161   */\n      dup2\n        /* \"#utility.yul\":6031:6162   */\n      tag_167\n      jump\t// in\n    tag_241:\n        /* \"#utility.yul\":6023:6162   */\n      swap1\n      pop\n        /* \"#utility.yul\":5750:6169   */\n      swap2\n      swap1\n      pop\n      jump\t// out\n        /* \"#utility.yul\":6175:6399   */\n    tag_168:\n        /* \"#utility.yul\":6315:6349   */\n      0x41756374696f6e2068617320616c72656164792073746172746564206f722065\n        /* \"#utility.yul\":6311:6312   */\n      0x00\n        /* \"#utility.yul\":6303:6309   */\n      dup3\n        /* \"#utility.yul\":6299:6313   */\n      add\n        /* \"#utility.yul\":6292:6350   */\n      mstore\n        /* \"#utility.yul\":6384:6391   */\n      0x6e6465642e000000000000000000000000000000000000000000000000000000\n        /* \"#utility.yul\":6379:6381   */\n      0x20\n        /* \"#utility.yul\":6371:6377   */\n      dup3\n        /* \"#utility.yul\":6367:6382   */\n      add\n        /* \"#utility.yul\":6360:6392   */\n      mstore\n        /* \"#utility.yul\":6175:6399   */\n      pop\n      jump\t// out\n        /* \"#utility.yul\":6405:6771   */\n    tag_169:\n        /* \"#utility.yul\":6547:6550   */\n      0x00\n        /* \"#utility.yul\":6568:6635   */\n      tag_244\n        /* \"#utility.yul\":6632:6634   */\n      0x25\n        /* \"#utility.yul\":6627:6630   */\n      dup4\n        /* \"#utility.yul\":6568:6635   */\n      tag_160\n      jump\t// in\n    tag_244:\n        /* \"#utility.yul\":6561:6635   */\n      swap2\n      pop\n        /* \"#utility.yul\":6644:6737   */\n      tag_245\n        /* \"#utility.yul\":6733:6736   */\n      dup3\n        /* \"#utility.yul\":6644:6737   */\n      tag_168\n      jump\t// in\n    tag_245:\n        /* \"#utility.yul\":6762:6764   */\n      0x40\n        /* \"#utility.yul\":6757:6760   */\n      dup3\n        /* \"#utility.yul\":6753:6765   */\n      add\n        /* \"#utility.yul\":6746:6765   */\n      swap1\n      pop\n        /* \"#utility.yul\":6405:6771   */\n      swap2\n      swap1\n      pop\n      jump\t// out\n        /* \"#utility.yul\":6777:7196   */\n    tag_69:\n        /* \"#utility.yul\":6943:6947   */\n      0x00\n        /* \"#utility.yul\":6981:6983   */\n      0x20\n        /* \"#utility.yul\":6970:6979   */\n      dup3\n        /* \"#utility.yul\":6966:6984   */\n      add\n        /* \"#utility.yul\":6958:6984   */\n      swap1\n      pop\n        /* \"#utility.yul\":7030:7039   */\n      dup2\n        /* \"#utility.yul\":7024:7028   */\n      dup2\n        /* \"#utility.yul\":7020:7040   */\n      sub\n        /* \"#utility.yul\":7016:7017   */\n      0x00\n        /* \"#utility.yul\":7005:7014   */\n      dup4\n        /* \"#utility.yul\":7001:7018   */\n      add\n        /* \"#utility.yul\":6994:7041   */\n      mstore\n        /* \"#utility.yul\":7058:7189   */\n      tag_247\n        /* \"#utility.yul\":7184:7188   */\n      dup2\n        /* \"#utility.yul\":7058:7189   */\n      tag_169\n      jump\t// in\n    tag_247:\n        /* \"#utility.yul\":7050:7189   */\n      swap1\n      pop\n        /* \"#utility.yul\":6777:7196   */\n      swap2\n      swap1\n      pop\n      jump\t// out\n        /* \"#utility.yul\":7202:7374   */\n    tag_170:\n        /* \"#utility.yul\":7342:7366   */\n      0x41756374696f6e206973206e6f74206163746976652e00000000000000000000\n        /* \"#utility.yul\":7338:7339   */\n      0x00\n        /* \"#utility.yul\":7330:7336   */\n      dup3\n        /* \"#utility.yul\":7326:7340   */\n      add\n        /* \"#utility.yul\":7319:7367   */\n      mstore\n        /* \"#utility.yul\":7202:7374   */\n      pop\n      jump\t// out\n        /* \"#utility.yul\":7380:7746   */\n    tag_171:\n        /* \"#utility.yul\":7522:7525   */\n      0x00\n        /* \"#utility.yul\":7543:7610   */\n      tag_250\n        /* \"#utility.yul\":7607:7609   */\n      0x16\n        /* \"#utility.yul\":7602:7605   */\n      dup4\n        /* \"#utility.yul\":7543:7610   */\n      tag_160\n      jump\t// in\n    tag_250:\n        /* \"#utility.yul\":7536:7610   */\n      swap2\n      pop\n        /* \"#utility.yul\":7619:7712   */\n      tag_251\n        /* \"#utility.yul\":7708:7711   */\n      dup3\n        /* \"#utility.yul\":7619:7712   */\n      tag_170\n      jump\t// in\n    tag_251:\n        /* \"#utility.yul\":7737:7739   */\n      0x20\n        /* \"#utility.yul\":7732:7735   */\n      dup3\n        /* \"#utility.yul\":7728:7740   */\n      add\n        /* \"#utility.yul\":7721:7740   */\n      swap1\n      pop\n        /* \"#utility.yul\":7380:7746   */\n      swap2\n      swap1\n      pop\n      jump\t// out\n        /* \"#utility.yul\":7752:8171   */\n    tag_86:\n        /* \"#utility.yul\":7918:7922   */\n      0x00\n        /* \"#utility.yul\":7956:7958   */\n      0x20\n        /* \"#utility.yul\":7945:7954   */\n      dup3\n        /* \"#utility.yul\":7941:7959   */\n      add\n        /* \"#utility.yul\":7933:7959   */\n      swap1\n      pop\n        /* \"#utility.yul\":8005:8014   */\n      dup2\n        /* \"#utility.yul\":7999:8003   */\n      dup2\n        /* \"#utility.yul\":7995:8015   */\n      sub\n        /* \"#utility.yul\":7991:7992   */\n      0x00\n        /* \"#utility.yul\":7980:7989   */\n      dup4\n        /* \"#utility.yul\":7976:7993   */\n      add\n        /* \"#utility.yul\":7969:8016   */\n      mstore\n        /* \"#utility.yul\":8033:8164   */\n      tag_253\n        /* \"#utility.yul\":8159:8163   */\n      dup2\n        /* \"#utility.yul\":8033:8164   */\n      tag_171\n      jump\t// in\n    tag_253:\n        /* \"#utility.yul\":8025:8164   */\n      swap1\n      pop\n        /* \"#utility.yul\":7752:8171   */\n      swap2\n      swap1\n      pop\n      jump\t// out\n        /* \"#utility.yul\":8177:8351   */\n    tag_172:\n        /* \"#utility.yul\":8317:8343   */\n      0x7468652061756374696f6e206973206e6f742073746172740000000000000000\n        /* \"#utility.yul\":8313:8314   */\n      0x00\n        /* \"#utility.yul\":8305:8311   */\n      dup3\n        /* \"#utility.yul\":8301:8315   */\n      add\n        /* \"#utility.yul\":8294:8344   */\n      mstore\n        /* \"#utility.yul\":8177:8351   */\n      pop\n      jump\t// out\n        /* \"#utility.yul\":8357:8723   */\n    tag_173:\n        /* \"#utility.yul\":8499:8502   */\n      0x00\n        /* \"#utility.yul\":8520:8587   */\n      tag_256\n        /* \"#utility.yul\":8584:8586   */\n      0x18\n        /* \"#utility.yul\":8579:8582   */\n      dup4\n        /* \"#utility.yul\":8520:8587   */\n      tag_160\n      jump\t// in\n    tag_256:\n        /* \"#utility.yul\":8513:8587   */\n      swap2\n      pop\n        /* \"#utility.yul\":8596:8689   */\n      tag_257\n        /* \"#utility.yul\":8685:8688   */\n      dup3\n        /* \"#utility.yul\":8596:8689   */\n      tag_172\n      jump\t// in\n    tag_257:\n        /* \"#utility.yul\":8714:8716   */\n      0x20\n        /* \"#utility.yul\":8709:8712   */\n      dup3\n        /* \"#utility.yul\":8705:8717   */\n      add\n        /* \"#utility.yul\":8698:8717   */\n      swap1\n      pop\n        /* \"#utility.yul\":8357:8723   */\n      swap2\n      swap1\n      pop\n      jump\t// out\n        /* \"#utility.yul\":8729:9148   */\n    tag_89:\n        /* \"#utility.yul\":8895:8899   */\n      0x00\n        /* \"#utility.yul\":8933:8935   */\n      0x20\n        /* \"#utility.yul\":8922:8931   */\n      dup3\n        /* \"#utility.yul\":8918:8936   */\n      add\n        /* \"#utility.yul\":8910:8936   */\n      swap1\n      pop\n        /* \"#utility.yul\":8982:8991   */\n      dup2\n        /* \"#utility.yul\":8976:8980   */\n      dup2\n        /* \"#utility.yul\":8972:8992   */\n      sub\n        /* \"#utility.yul\":8968:8969   */\n      0x00\n        /* \"#utility.yul\":8957:8966   */\n      dup4\n        /* \"#utility.yul\":8953:8970   */\n      add\n        /* \"#utility.yul\":8946:8993   */\n      mstore\n        /* \"#utility.yul\":9010:9141   */\n      tag_259\n        /* \"#utility.yul\":9136:9140   */\n      dup2\n        /* \"#utility.yul\":9010:9141   */\n      tag_173\n      jump\t// in\n    tag_259:\n        /* \"#utility.yul\":9002:9141   */\n      swap1\n      pop\n        /* \"#utility.yul\":8729:9148   */\n      swap2\n      swap1\n      pop\n      jump\t// out\n        /* \"#utility.yul\":9154:9324   */\n    tag_174:\n        /* \"#utility.yul\":9294:9316   */\n      0x74686520616e6374696f6e20697320656e646564000000000000000000000000\n        /* \"#utility.yul\":9290:9291   */\n      0x00\n        /* \"#utility.yul\":9282:9288   */\n      dup3\n        /* \"#utility.yul\":9278:9292   */\n      add\n        /* \"#utility.yul\":9271:9317   */\n      mstore\n        /* \"#utility.yul\":9154:9324   */\n      pop\n      jump\t// out\n        /* \"#utility.yul\":9330:9696   */\n    tag_175:\n        /* \"#utility.yul\":9472:9475   */\n      0x00\n        /* \"#utility.yul\":9493:9560   */\n      tag_262\n        /* \"#utility.yul\":9557:9559   */\n      0x14\n        /* \"#utility.yul\":9552:9555   */\n      dup4\n        /* \"#utility.yul\":9493:9560   */\n      tag_160\n      jump\t// in\n    tag_262:\n        /* \"#utility.yul\":9486:9560   */\n      swap2\n      pop\n        /* \"#utility.yul\":9569:9662   */\n      tag_263\n        /* \"#utility.yul\":9658:9661   */\n      dup3\n        /* \"#utility.yul\":9569:9662   */\n      tag_174\n      jump\t// in\n    tag_263:\n        /* \"#utility.yul\":9687:9689   */\n      0x20\n        /* \"#utility.yul\":9682:9685   */\n      dup3\n        /* \"#utility.yul\":9678:9690   */\n      add\n        /* \"#utility.yul\":9671:9690   */\n      swap1\n      pop\n        /* \"#utility.yul\":9330:9696   */\n      swap2\n      swap1\n      pop\n      jump\t// out\n        /* \"#utility.yul\":9702:10121   */\n    tag_92:\n        /* \"#utility.yul\":9868:9872   */\n      0x00\n        /* \"#utility.yul\":9906:9908   */\n      0x20\n        /* \"#utility.yul\":9895:9904   */\n      dup3\n        /* \"#utility.yul\":9891:9909   */\n      add\n        /* \"#utility.yul\":9883:9909   */\n      swap1\n      pop\n        /* \"#utility.yul\":9955:9964   */\n      dup2\n        /* \"#utility.yul\":9949:9953   */\n      dup2\n        /* \"#utility.yul\":9945:9965   */\n      sub\n        /* \"#utility.yul\":9941:9942   */\n      0x00\n        /* \"#utility.yul\":9930:9939   */\n      dup4\n        /* \"#utility.yul\":9926:9943   */\n      add\n        /* \"#utility.yul\":9919:9966   */\n      mstore\n        /* \"#utility.yul\":9983:10114   */\n      tag_265\n        /* \"#utility.yul\":10109:10113   */\n      dup2\n        /* \"#utility.yul\":9983:10114   */\n      tag_175\n      jump\t// in\n    tag_265:\n        /* \"#utility.yul\":9975:10114   */\n      swap1\n      pop\n        /* \"#utility.yul\":9702:10121   */\n      swap2\n      swap1\n      pop\n      jump\t// out\n        /* \"#utility.yul\":10127:10350   */\n    tag_176:\n        /* \"#utility.yul\":10267:10301   */\n      0x7072696365206d75737420686967686572207468616e2063757272656e742070\n        /* \"#utility.yul\":10263:10264   */\n      0x00\n        /* \"#utility.yul\":10255:10261   */\n      dup3\n        /* \"#utility.yul\":10251:10265   */\n      add\n        /* \"#utility.yul\":10244:10302   */\n      mstore\n        /* \"#utility.yul\":10336:10342   */\n      0x7269636500000000000000000000000000000000000000000000000000000000\n        /* \"#utility.yul\":10331:10333   */\n      0x20\n        /* \"#utility.yul\":10323:10329   */\n      dup3\n        /* \"#utility.yul\":10319:10334   */\n      add\n        /* \"#utility.yul\":10312:10343   */\n      mstore\n        /* \"#utility.yul\":10127:10350   */\n      pop\n      jump\t// out\n        /* \"#utility.yul\":10356:10722   */\n    tag_177:\n        /* \"#utility.yul\":10498:10501   */\n      0x00\n        /* \"#utility.yul\":10519:10586   */\n      tag_268\n        /* \"#utility.yul\":10583:10585   */\n      0x24\n        /* \"#utility.yul\":10578:10581   */\n      dup4\n        /* \"#utility.yul\":10519:10586   */\n      tag_160\n      jump\t// in\n    tag_268:\n        /* \"#utility.yul\":10512:10586   */\n      swap2\n      pop\n        /* \"#utility.yul\":10595:10688   */\n      tag_269\n        /* \"#utility.yul\":10684:10687   */\n      dup3\n        /* \"#utility.yul\":10595:10688   */\n      tag_176\n      jump\t// in\n    tag_269:\n        /* \"#utility.yul\":10713:10715   */\n      0x40\n        /* \"#utility.yul\":10708:10711   */\n      dup3\n        /* \"#utility.yul\":10704:10716   */\n      add\n        /* \"#utility.yul\":10697:10716   */\n      swap1\n      pop\n        /* \"#utility.yul\":10356:10722   */\n      swap2\n      swap1\n      pop\n      jump\t// out\n        /* \"#utility.yul\":10728:11147   */\n    tag_95:\n        /* \"#utility.yul\":10894:10898   */\n      0x00\n        /* \"#utility.yul\":10932:10934   */\n      0x20\n        /* \"#utility.yul\":10921:10930   */\n      dup3\n        /* \"#utility.yul\":10917:10935   */\n      add\n        /* \"#utility.yul\":10909:10935   */\n      swap1\n      pop\n        /* \"#utility.yul\":10981:10990   */\n      dup2\n        /* \"#utility.yul\":10975:10979   */\n      dup2\n        /* \"#utility.yul\":10971:10991   */\n      sub\n        /* \"#utility.yul\":10967:10968   */\n      0x00\n        /* \"#utility.yul\":10956:10965   */\n      dup4\n        /* \"#utility.yul\":10952:10969   */\n      add\n        /* \"#utility.yul\":10945:10992   */\n      mstore\n        /* \"#utility.yul\":11009:11140   */\n      tag_271\n        /* \"#utility.yul\":11135:11139   */\n      dup2\n        /* \"#utility.yul\":11009:11140   */\n      tag_177\n      jump\t// in\n    tag_271:\n        /* \"#utility.yul\":11001:11140   */\n      swap1\n      pop\n        /* \"#utility.yul\":10728:11147   */\n      swap2\n      swap1\n      pop\n      jump\t// out\n        /* \"#utility.yul\":11153:11333   */\n    tag_178:\n        /* \"#utility.yul\":11201:11278   */\n      0x4e487b7100000000000000000000000000000000000000000000000000000000\n        /* \"#utility.yul\":11198:11199   */\n      0x00\n        /* \"#utility.yul\":11191:11279   */\n      mstore\n        /* \"#utility.yul\":11298:11302   */\n      0x11\n        /* \"#utility.yul\":11295:11296   */\n      0x04\n        /* \"#utility.yul\":11288:11303   */\n      mstore\n        /* \"#utility.yul\":11322:11326   */\n      0x24\n        /* \"#utility.yul\":11319:11320   */\n      0x00\n        /* \"#utility.yul\":11312:11327   */\n      revert\n        /* \"#utility.yul\":11339:11533   */\n    tag_97:\n        /* \"#utility.yul\":11379:11383   */\n      0x00\n        /* \"#utility.yul\":11399:11419   */\n      tag_274\n        /* \"#utility.yul\":11417:11418   */\n      dup3\n        /* \"#utility.yul\":11399:11419   */\n      tag_153\n      jump\t// in\n    tag_274:\n        /* \"#utility.yul\":11394:11419   */\n      swap2\n      pop\n        /* \"#utility.yul\":11433:11453   */\n      tag_275\n        /* \"#utility.yul\":11451:11452   */\n      dup4\n        /* \"#utility.yul\":11433:11453   */\n      tag_153\n      jump\t// in\n    tag_275:\n        /* \"#utility.yul\":11428:11453   */\n      swap3\n      pop\n        /* \"#utility.yul\":11477:11478   */\n      dup3\n        /* \"#utility.yul\":11474:11475   */\n      dup3\n        /* \"#utility.yul\":11470:11479   */\n      sub\n        /* \"#utility.yul\":11462:11479   */\n      swap1\n      pop\n        /* \"#utility.yul\":11501:11502   */\n      dup2\n        /* \"#utility.yul\":11495:11499   */\n      dup2\n        /* \"#utility.yul\":11492:11503   */\n      gt\n        /* \"#utility.yul\":11489:11526   */\n      iszero\n      tag_276\n      jumpi\n        /* \"#utility.yul\":11506:11524   */\n      tag_277\n      tag_178\n      jump\t// in\n    tag_277:\n        /* \"#utility.yul\":11489:11526   */\n    tag_276:\n        /* \"#utility.yul\":11339:11533   */\n      swap3\n      swap2\n      pop\n      pop\n      jump\t// out\n        /* \"#utility.yul\":11539:11776   */\n    tag_179:\n        /* \"#utility.yul\":11679:11713   */\n      0x63616c6c20646f776e2c20796f7520626964696e67206a757374206e6f772c20\n        /* \"#utility.yul\":11675:11676   */\n      0x00\n        /* \"#utility.yul\":11667:11673   */\n      dup3\n        /* \"#utility.yul\":11663:11677   */\n      add\n        /* \"#utility.yul\":11656:11714   */\n      mstore\n        /* \"#utility.yul\":11748:11768   */\n      0x7472792069742035206d696e206c617465720000000000000000000000000000\n        /* \"#utility.yul\":11743:11745   */\n      0x20\n        /* \"#utility.yul\":11735:11741   */\n      dup3\n        /* \"#utility.yul\":11731:11746   */\n      add\n        /* \"#utility.yul\":11724:11769   */\n      mstore\n        /* \"#utility.yul\":11539:11776   */\n      pop\n      jump\t// out\n        /* \"#utility.yul\":11782:12148   */\n    tag_180:\n        /* \"#utility.yul\":11924:11927   */\n      0x00\n        /* \"#utility.yul\":11945:12012   */\n      tag_280\n        /* \"#utility.yul\":12009:12011   */\n      0x32\n        /* \"#utility.yul\":12004:12007   */\n      dup4\n        /* \"#utility.yul\":11945:12012   */\n      tag_160\n      jump\t// in\n    tag_280:\n        /* \"#utility.yul\":11938:12012   */\n      swap2\n      pop\n        /* \"#utility.yul\":12021:12114   */\n      tag_281\n        /* \"#utility.yul\":12110:12113   */\n      dup3\n        /* \"#utility.yul\":12021:12114   */\n      tag_179\n      jump\t// in\n    tag_281:\n        /* \"#utility.yul\":12139:12141   */\n      0x40\n        /* \"#utility.yul\":12134:12137   */\n      dup3\n        /* \"#utility.yul\":12130:12142   */\n      add\n        /* \"#utility.yul\":12123:12142   */\n      swap1\n      pop\n        /* \"#utility.yul\":11782:12148   */\n      swap2\n      swap1\n      pop\n      jump\t// out\n        /* \"#utility.yul\":12154:12573   */\n    tag_100:\n        /* \"#utility.yul\":12320:12324   */\n      0x00\n        /* \"#utility.yul\":12358:12360   */\n      0x20\n        /* \"#utility.yul\":12347:12356   */\n      dup3\n        /* \"#utility.yul\":12343:12361   */\n      add\n        /* \"#utility.yul\":12335:12361   */\n      swap1\n      pop\n        /* \"#utility.yul\":12407:12416   */\n      dup2\n        /* \"#utility.yul\":12401:12405   */\n      dup2\n        /* \"#utility.yul\":12397:12417   */\n      sub\n        /* \"#utility.yul\":12393:12394   */\n      0x00\n        /* \"#utility.yul\":12382:12391   */\n      dup4\n        /* \"#utility.yul\":12378:12395   */\n      add\n        /* \"#utility.yul\":12371:12418   */\n      mstore\n        /* \"#utility.yul\":12435:12566   */\n      tag_283\n        /* \"#utility.yul\":12561:12565   */\n      dup2\n        /* \"#utility.yul\":12435:12566   */\n      tag_180\n      jump\t// in\n    tag_283:\n        /* \"#utility.yul\":12427:12566   */\n      swap1\n      pop\n        /* \"#utility.yul\":12154:12573   */\n      swap2\n      swap1\n      pop\n      jump\t// out\n        /* \"#utility.yul\":12579:12770   */\n    tag_104:\n        /* \"#utility.yul\":12619:12622   */\n      0x00\n        /* \"#utility.yul\":12638:12658   */\n      tag_285\n        /* \"#utility.yul\":12656:12657   */\n      dup3\n        /* \"#utility.yul\":12638:12658   */\n      tag_153\n      jump\t// in\n    tag_285:\n        /* \"#utility.yul\":12633:12658   */\n      swap2\n      pop\n        /* \"#utility.yul\":12672:12692   */\n      tag_286\n        /* \"#utility.yul\":12690:12691   */\n      dup4\n        /* \"#utility.yul\":12672:12692   */\n      tag_153\n      jump\t// in\n    tag_286:\n        /* \"#utility.yul\":12667:12692   */\n      swap3\n      pop\n        /* \"#utility.yul\":12715:12716   */\n      dup3\n        /* \"#utility.yul\":12712:12713   */\n      dup3\n        /* \"#utility.yul\":12708:12717   */\n      add\n        /* \"#utility.yul\":12701:12717   */\n      swap1\n      pop\n        /* \"#utility.yul\":12736:12739   */\n      dup1\n        /* \"#utility.yul\":12733:12734   */\n      dup3\n        /* \"#utility.yul\":12730:12740   */\n      gt\n        /* \"#utility.yul\":12727:12763   */\n      iszero\n      tag_287\n      jumpi\n        /* \"#utility.yul\":12743:12761   */\n      tag_288\n      tag_178\n      jump\t// in\n    tag_288:\n        /* \"#utility.yul\":12727:12763   */\n    tag_287:\n        /* \"#utility.yul\":12579:12770   */\n      swap3\n      swap2\n      pop\n      pop\n      jump\t// out\n        /* \"#utility.yul\":12776:13108   */\n    tag_108:\n        /* \"#utility.yul\":12897:12901   */\n      0x00\n        /* \"#utility.yul\":12935:12937   */\n      0x40\n        /* \"#utility.yul\":12924:12933   */\n      dup3\n        /* \"#utility.yul\":12920:12938   */\n      add\n        /* \"#utility.yul\":12912:12938   */\n      swap1\n      pop\n        /* \"#utility.yul\":12948:13019   */\n      tag_290\n        /* \"#utility.yul\":13016:13017   */\n      0x00\n        /* \"#utility.yul\":13005:13014   */\n      dup4\n        /* \"#utility.yul\":13001:13018   */\n      add\n        /* \"#utility.yul\":12992:12998   */\n      dup6\n        /* \"#utility.yul\":12948:13019   */\n      tag_152\n      jump\t// in\n    tag_290:\n        /* \"#utility.yul\":13029:13101   */\n      tag_291\n        /* \"#utility.yul\":13097:13099   */\n      0x20\n        /* \"#utility.yul\":13086:13095   */\n      dup4\n        /* \"#utility.yul\":13082:13100   */\n      add\n        /* \"#utility.yul\":13073:13079   */\n      dup5\n        /* \"#utility.yul\":13029:13101   */\n      tag_154\n      jump\t// in\n    tag_291:\n        /* \"#utility.yul\":12776:13108   */\n      swap4\n      swap3\n      pop\n      pop\n      pop\n      jump\t// out\n        /* \"#utility.yul\":13114:13284   */\n    tag_181:\n        /* \"#utility.yul\":13254:13276   */\n      0x61756374696f6e206973206e6f7420656e646564000000000000000000000000\n        /* \"#utility.yul\":13250:13251   */\n      0x00\n        /* \"#utility.yul\":13242:13248   */\n      dup3\n        /* \"#utility.yul\":13238:13252   */\n      add\n        /* \"#utility.yul\":13231:13277   */\n      mstore\n        /* \"#utility.yul\":13114:13284   */\n      pop\n      jump\t// out\n        /* \"#utility.yul\":13290:13656   */\n    tag_182:\n        /* \"#utility.yul\":13432:13435   */\n      0x00\n        /* \"#utility.yul\":13453:13520   */\n      tag_294\n        /* \"#utility.yul\":13517:13519   */\n      0x14\n        /* \"#utility.yul\":13512:13515   */\n      dup4\n        /* \"#utility.yul\":13453:13520   */\n      tag_160\n      jump\t// in\n    tag_294:\n        /* \"#utility.yul\":13446:13520   */\n      swap2\n      pop\n        /* \"#utility.yul\":13529:13622   */\n      tag_295\n        /* \"#utility.yul\":13618:13621   */\n      dup3\n        /* \"#utility.yul\":13529:13622   */\n      tag_181\n      jump\t// in\n    tag_295:\n        /* \"#utility.yul\":13647:13649   */\n      0x20\n        /* \"#utility.yul\":13642:13645   */\n      dup3\n        /* \"#utility.yul\":13638:13650   */\n      add\n        /* \"#utility.yul\":13631:13650   */\n      swap1\n      pop\n        /* \"#utility.yul\":13290:13656   */\n      swap2\n      swap1\n      pop\n      jump\t// out\n        /* \"#utility.yul\":13662:14081   */\n    tag_120:\n        /* \"#utility.yul\":13828:13832   */\n      0x00\n        /* \"#utility.yul\":13866:13868   */\n      0x20\n        /* \"#utility.yul\":13855:13864   */\n      dup3\n        /* \"#utility.yul\":13851:13869   */\n      add\n        /* \"#utility.yul\":13843:13869   */\n      swap1\n      pop\n        /* \"#utility.yul\":13915:13924   */\n      dup2\n        /* \"#utility.yul\":13909:13913   */\n      dup2\n        /* \"#utility.yul\":13905:13925   */\n      sub\n        /* \"#utility.yul\":13901:13902   */\n      0x00\n        /* \"#utility.yul\":13890:13899   */\n      dup4\n        /* \"#utility.yul\":13886:13903   */\n      add\n        /* \"#utility.yul\":13879:13926   */\n      mstore\n        /* \"#utility.yul\":13943:14074   */\n      tag_297\n        /* \"#utility.yul\":14069:14073   */\n      dup2\n        /* \"#utility.yul\":13943:14074   */\n      tag_182\n      jump\t// in\n    tag_297:\n        /* \"#utility.yul\":13935:14074   */\n      swap1\n      pop\n        /* \"#utility.yul\":13662:14081   */\n      swap2\n      swap1\n      pop\n      jump\t// out\n        /* \"#utility.yul\":14087:14251   */\n    tag_183:\n        /* \"#utility.yul\":14227:14243   */\n      0x7472616e73666572206661696c65000000000000000000000000000000000000\n        /* \"#utility.yul\":14223:14224   */\n      0x00\n        /* \"#utility.yul\":14215:14221   */\n      dup3\n        /* \"#utility.yul\":14211:14225   */\n      add\n        /* \"#utility.yul\":14204:14244   */\n      mstore\n        /* \"#utility.yul\":14087:14251   */\n      pop\n      jump\t// out\n        /* \"#utility.yul\":14257:14623   */\n    tag_184:\n        /* \"#utility.yul\":14399:14402   */\n      0x00\n        /* \"#utility.yul\":14420:14487   */\n      tag_300\n        /* \"#utility.yul\":14484:14486   */\n      0x0e\n        /* \"#utility.yul\":14479:14482   */\n      dup4\n        /* \"#utility.yul\":14420:14487   */\n      tag_160\n      jump\t// in\n    tag_300:\n        /* \"#utility.yul\":14413:14487   */\n      swap2\n      pop\n        /* \"#utility.yul\":14496:14589   */\n      tag_301\n        /* \"#utility.yul\":14585:14588   */\n      dup3\n        /* \"#utility.yul\":14496:14589   */\n      tag_183\n      jump\t// in\n    tag_301:\n        /* \"#utility.yul\":14614:14616   */\n      0x20\n        /* \"#utility.yul\":14609:14612   */\n      dup3\n        /* \"#utility.yul\":14605:14617   */\n      add\n        /* \"#utility.yul\":14598:14617   */\n      swap1\n      pop\n        /* \"#utility.yul\":14257:14623   */\n      swap2\n      swap1\n      pop\n      jump\t// out\n        /* \"#utility.yul\":14629:15048   */\n    tag_135:\n        /* \"#utility.yul\":14795:14799   */\n      0x00\n        /* \"#utility.yul\":14833:14835   */\n      0x20\n        /* \"#utility.yul\":14822:14831   */\n      dup3\n        /* \"#utility.yul\":14818:14836   */\n      add\n        /* \"#utility.yul\":14810:14836   */\n      swap1\n      pop\n        /* \"#utility.yul\":14882:14891   */\n      dup2\n        /* \"#utility.yul\":14876:14880   */\n      dup2\n        /* \"#utility.yul\":14872:14892   */\n      sub\n        /* \"#utility.yul\":14868:14869   */\n      0x00\n        /* \"#utility.yul\":14857:14866   */\n      dup4\n        /* \"#utility.yul\":14853:14870   */\n      add\n        /* \"#utility.yul\":14846:14893   */\n      mstore\n        /* \"#utility.yul\":14910:15041   */\n      tag_303\n        /* \"#utility.yul\":15036:15040   */\n      dup2\n        /* \"#utility.yul\":14910:15041   */\n      tag_184\n      jump\t// in\n    tag_303:\n        /* \"#utility.yul\":14902:15041   */\n      swap1\n      pop\n        /* \"#utility.yul\":14629:15048   */\n      swap2\n      swap1\n      pop\n      jump\t// out\n\n    auxdata: 0xa26469706673582212202061d85cd26af703570ddfd40b2a8660deb5d46f4d131ad365832c74568a120464736f6c634300081a0033\n}\n",
				"bytecode": {
					"linkReferences": {},
					"object": "608060405261012c60015561012c60025562278d00600955348015610022575f80fd5b506040516116303803806116308339818101604052810190610044919061024f565b335f73ffffffffffffffffffffffffffffffffffffffff168173ffffffffffffffffffffffffffffffffffffffff16036100b5575f6040517f1e4fbdf70000000000000000000000000000000000000000000000000000000081526004016100ac91906102b9565b60405180910390fd5b6100c48161015760201b60201c565b5042600681905550600954426100da91906102ff565b600781905550806008819055503360045f6101000a81548173ffffffffffffffffffffffffffffffffffffffff021916908373ffffffffffffffffffffffffffffffffffffffff1602179055505f600a60146101000a81548160ff0219169083600281111561014c5761014b610332565b5b02179055505061035f565b5f805f9054906101000a900473ffffffffffffffffffffffffffffffffffffffff169050815f806101000a81548173ffffffffffffffffffffffffffffffffffffffff021916908373ffffffffffffffffffffffffffffffffffffffff1602179055508173ffffffffffffffffffffffffffffffffffffffff168173ffffffffffffffffffffffffffffffffffffffff167f8be0079c531659141344cd1fd0a4f28419497f9722a3daafe3b4186f6b6457e060405160405180910390a35050565b5f80fd5b5f819050919050565b61022e8161021c565b8114610238575f80fd5b50565b5f8151905061024981610225565b92915050565b5f6020828403121561026457610263610218565b5b5f6102718482850161023b565b91505092915050565b5f73ffffffffffffffffffffffffffffffffffffffff82169050919050565b5f6102a38261027a565b9050919050565b6102b381610299565b82525050565b5f6020820190506102cc5f8301846102aa565b92915050565b7f4e487b71000000000000000000000000000000000000000000000000000000005f52601160045260245ffd5b5f6103098261021c565b91506103148361021c565b925082820190508082111561032c5761032b6102d2565b5b92915050565b7f4e487b71000000000000000000000000000000000000000000000000000000005f52602160045260245ffd5b6112c48061036c5f395ff3fe608060405260043610610085575f3560e01c80638da5cb5b116100585780638da5cb5b146100f5578063d57bde791461011f578063db774c7914610149578063f2fde38b14610153578063fe67a54b1461017b57610085565b80633ccfd60b146100895780636b64c7691461009f578063715018a6146100b55780637fb45099146100cb575b5f80fd5b348015610094575f80fd5b5061009d610191565b005b3480156100aa575f80fd5b506100b3610302565b005b3480156100c0575f80fd5b506100c96103b3565b005b3480156100d6575f80fd5b506100df6103c6565b6040516100ec9190610c06565b60405180910390f35b348015610100575f80fd5b506101096103d9565b6040516101169190610c5e565b60405180910390f35b34801561012a575f80fd5b50610133610400565b6040516101409190610c8f565b60405180910390f35b610151610409565b005b34801561015e575f80fd5b5061017960048036038101906101749190610cd6565b610794565b005b348015610186575f80fd5b5061018f610818565b005b5f60055f3373ffffffffffffffffffffffffffffffffffffffff1673ffffffffffffffffffffffffffffffffffffffff1681526020019081526020015f205490505f8111610214576040517f08c379a000000000000000000000000000000000000000000000000000000000815260040161020b90610d5b565b60405180910390fd5b5f60055f3373ffffffffffffffffffffffffffffffffffffffff1673ffffffffffffffffffffffffffffffffffffffff1681526020019081526020015f20819055505f3373ffffffffffffffffffffffffffffffffffffffff168260405161027b90610da6565b5f6040518083038185875af1925050503d805f81146102b5576040519150601f19603f3d011682016040523d82523d5f602084013e6102ba565b606091505b50509050806102fe576040517f08c379a00000000000000000000000000000000000000000000000000000000081526004016102f590610e04565b60405180910390fd5b5050565b61030a610a44565b5f600281111561031d5761031c610b93565b5b600a60149054906101000a900460ff16600281111561033f5761033e610b93565b5b1461037f576040517f08c379a000000000000000000000000000000000000000000000000000000000815260040161037690610e92565b60405180910390fd5b6001600a60146101000a81548160ff021916908360028111156103a5576103a4610b93565b5b021790555042600681905550565b6103bb610a44565b6103c45f610acb565b565b600a60149054906101000a900460ff1681565b5f805f9054906101000a900473ffffffffffffffffffffffffffffffffffffffff16905090565b5f600854905090565b6001600281111561041d5761041c610b93565b5b600a60149054906101000a900460ff16600281111561043f5761043e610b93565b5b1461047f576040517f08c379a000000000000000000000000000000000000000000000000000000000815260040161047690610efa565b60405180910390fd5b60065442116104c3576040517f08c379a00000000000000000000000000000000000000000000000000000000081526004016104ba90610f62565b60405180910390fd5b6007544210610507576040517f08c379a00000000000000000000000000000000000000000000000000000000081526004016104fe90610fca565b60405180910390fd5b600854341161054b576040517f08c379a000000000000000000000000000000000000000000000000000000000815260040161054290611058565b60405180910390fd5b60015460035f3373ffffffffffffffffffffffffffffffffffffffff1673ffffffffffffffffffffffffffffffffffffffff1681526020019081526020015f20544261059791906110a3565b116105d7576040517f08c379a00000000000000000000000000000000000000000000000000000000081526004016105ce90611146565b60405180910390fd5b600254426007546105e891906110a3565b1015610605576002546007546105fe9190611164565b6007819055505b5f73ffffffffffffffffffffffffffffffffffffffff16600a5f9054906101000a900473ffffffffffffffffffffffffffffffffffffffff1673ffffffffffffffffffffffffffffffffffffffff16146106d05760085460055f600a5f9054906101000a900473ffffffffffffffffffffffffffffffffffffffff1673ffffffffffffffffffffffffffffffffffffffff1673ffffffffffffffffffffffffffffffffffffffff1681526020019081526020015f205f8282546106c89190611164565b925050819055505b3460088190555033600a5f6101000a81548173ffffffffffffffffffffffffffffffffffffffff021916908373ffffffffffffffffffffffffffffffffffffffff1602179055504260035f3373ffffffffffffffffffffffffffffffffffffffff1673ffffffffffffffffffffffffffffffffffffffff1681526020019081526020015f20819055507fad39847edbff9b525a524a14bdea0ffc8ba7b93fca296e09a5147991599e8e56333460405161078a929190611197565b60405180910390a1565b61079c610a44565b5f73ffffffffffffffffffffffffffffffffffffffff168173ffffffffffffffffffffffffffffffffffffffff160361080c575f6040517f1e4fbdf70000000000000000000000000000000000000000000000000000000081526004016108039190610c5e565b60405180910390fd5b61081581610acb565b50565b610820610a44565b6007544211610864576040517f08c379a000000000000000000000000000000000000000000000000000000000815260040161085b90611208565b60405180910390fd5b6001600281111561087857610877610b93565b5b600a60149054906101000a900460ff16600281111561089a57610899610b93565b5b146108da576040517f08c379a00000000000000000000000000000000000000000000000000000000081526004016108d190610efa565b60405180910390fd5b6002600a60146101000a81548160ff02191690836002811115610900576108ff610b93565b5b02179055505f60045f9054906101000a900473ffffffffffffffffffffffffffffffffffffffff1673ffffffffffffffffffffffffffffffffffffffff1660085460405161094d90610da6565b5f6040518083038185875af1925050503d805f8114610987576040519150601f19603f3d011682016040523d82523d5f602084013e61098c565b606091505b50509050806109d0576040517f08c379a00000000000000000000000000000000000000000000000000000000081526004016109c790611270565b60405180910390fd5b600a5f9054906101000a900473ffffffffffffffffffffffffffffffffffffffff1673ffffffffffffffffffffffffffffffffffffffff167fdaec4582d5d9595688c8c98545fdd1c696d41c6aeaeb636737e84ed2f5c00eda600854604051610a399190610c8f565b60405180910390a250565b610a4c610b8c565b73ffffffffffffffffffffffffffffffffffffffff16610a6a6103d9565b73ffffffffffffffffffffffffffffffffffffffff1614610ac957610a8d610b8c565b6040517f118cdaa7000000000000000000000000000000000000000000000000000000008152600401610ac09190610c5e565b60405180910390fd5b565b5f805f9054906101000a900473ffffffffffffffffffffffffffffffffffffffff169050815f806101000a81548173ffffffffffffffffffffffffffffffffffffffff021916908373ffffffffffffffffffffffffffffffffffffffff1602179055508173ffffffffffffffffffffffffffffffffffffffff168173ffffffffffffffffffffffffffffffffffffffff167f8be0079c531659141344cd1fd0a4f28419497f9722a3daafe3b4186f6b6457e060405160405180910390a35050565b5f33905090565b7f4e487b71000000000000000000000000000000000000000000000000000000005f52602160045260245ffd5b60038110610bd157610bd0610b93565b5b50565b5f819050610be182610bc0565b919050565b5f610bf082610bd4565b9050919050565b610c0081610be6565b82525050565b5f602082019050610c195f830184610bf7565b92915050565b5f73ffffffffffffffffffffffffffffffffffffffff82169050919050565b5f610c4882610c1f565b9050919050565b610c5881610c3e565b82525050565b5f602082019050610c715f830184610c4f565b92915050565b5f819050919050565b610c8981610c77565b82525050565b5f602082019050610ca25f830184610c80565b92915050565b5f80fd5b610cb581610c3e565b8114610cbf575f80fd5b50565b5f81359050610cd081610cac565b92915050565b5f60208284031215610ceb57610cea610ca8565b5b5f610cf884828501610cc2565b91505092915050565b5f82825260208201905092915050565b7f4e6f2066756e647320746f2077697468647261770000000000000000000000005f82015250565b5f610d45601483610d01565b9150610d5082610d11565b602082019050919050565b5f6020820190508181035f830152610d7281610d39565b9050919050565b5f81905092915050565b50565b5f610d915f83610d79565b9150610d9c82610d83565b5f82019050919050565b5f610db082610d86565b9150819050919050565b7f5769746864726177616c206661696c65640000000000000000000000000000005f82015250565b5f610dee601183610d01565b9150610df982610dba565b602082019050919050565b5f6020820190508181035f830152610e1b81610de2565b9050919050565b7f41756374696f6e2068617320616c72656164792073746172746564206f7220655f8201527f6e6465642e000000000000000000000000000000000000000000000000000000602082015250565b5f610e7c602583610d01565b9150610e8782610e22565b604082019050919050565b5f6020820190508181035f830152610ea981610e70565b9050919050565b7f41756374696f6e206973206e6f74206163746976652e000000000000000000005f82015250565b5f610ee4601683610d01565b9150610eef82610eb0565b602082019050919050565b5f6020820190508181035f830152610f1181610ed8565b9050919050565b7f7468652061756374696f6e206973206e6f7420737461727400000000000000005f82015250565b5f610f4c601883610d01565b9150610f5782610f18565b602082019050919050565b5f6020820190508181035f830152610f7981610f40565b9050919050565b7f74686520616e6374696f6e20697320656e6465640000000000000000000000005f82015250565b5f610fb4601483610d01565b9150610fbf82610f80565b602082019050919050565b5f6020820190508181035f830152610fe181610fa8565b9050919050565b7f7072696365206d75737420686967686572207468616e2063757272656e7420705f8201527f7269636500000000000000000000000000000000000000000000000000000000602082015250565b5f611042602483610d01565b915061104d82610fe8565b604082019050919050565b5f6020820190508181035f83015261106f81611036565b9050919050565b7f4e487b71000000000000000000000000000000000000000000000000000000005f52601160045260245ffd5b5f6110ad82610c77565b91506110b883610c77565b92508282039050818111156110d0576110cf611076565b5b92915050565b7f63616c6c20646f776e2c20796f7520626964696e67206a757374206e6f772c205f8201527f7472792069742035206d696e206c617465720000000000000000000000000000602082015250565b5f611130603283610d01565b915061113b826110d6565b604082019050919050565b5f6020820190508181035f83015261115d81611124565b9050919050565b5f61116e82610c77565b915061117983610c77565b925082820190508082111561119157611190611076565b5b92915050565b5f6040820190506111aa5f830185610c4f565b6111b76020830184610c80565b9392505050565b7f61756374696f6e206973206e6f7420656e6465640000000000000000000000005f82015250565b5f6111f2601483610d01565b91506111fd826111be565b602082019050919050565b5f6020820190508181035f83015261121f816111e6565b9050919050565b7f7472616e73666572206661696c650000000000000000000000000000000000005f82015250565b5f61125a600e83610d01565b915061126582611226565b602082019050919050565b5f6020820190508181035f8301526112878161124e565b905091905056fea26469706673582212202061d85cd26af703570ddfd40b2a8660deb5d46f4d131ad365832c74568a120464736f6c634300081a0033",
					"opcodes": "PUSH1 0x80 PUSH1 0x40 MSTORE PUSH2 0x12C PUSH1 0x1 SSTORE PUSH2 0x12C PUSH1 0x2 SSTORE PUSH3 0x278D00 PUSH1 0x9 SSTORE CALLVALUE DUP1 ISZERO PUSH2 0x22 JUMPI PUSH0 DUP1 REVERT JUMPDEST POP PUSH1 0x40 MLOAD PUSH2 0x1630 CODESIZE SUB DUP1 PUSH2 0x1630 DUP4 CODECOPY DUP2 DUP2 ADD PUSH1 0x40 MSTORE DUP2 ADD SWAP1 PUSH2 0x44 SWAP2 SWAP1 PUSH2 0x24F JUMP JUMPDEST CALLER PUSH0 PUSH20 0xFFFFFFFFFFFFFFFFFFFFFFFFFFFFFFFFFFFFFFFF AND DUP2 PUSH20 0xFFFFFFFFFFFFFFFFFFFFFFFFFFFFFFFFFFFFFFFF AND SUB PUSH2 0xB5 JUMPI PUSH0 PUSH1 0x40 MLOAD PUSH32 0x1E4FBDF700000000000000000000000000000000000000000000000000000000 DUP2 MSTORE PUSH1 0x4 ADD PUSH2 0xAC SWAP2 SWAP1 PUSH2 0x2B9 JUMP JUMPDEST PUSH1 0x40 MLOAD DUP1 SWAP2 SUB SWAP1 REVERT JUMPDEST PUSH2 0xC4 DUP2 PUSH2 0x157 PUSH1 0x20 SHL PUSH1 0x20 SHR JUMP JUMPDEST POP TIMESTAMP PUSH1 0x6 DUP2 SWAP1 SSTORE POP PUSH1 0x9 SLOAD TIMESTAMP PUSH2 0xDA SWAP2 SWAP1 PUSH2 0x2FF JUMP JUMPDEST PUSH1 0x7 DUP2 SWAP1 SSTORE POP DUP1 PUSH1 0x8 DUP2 SWAP1 SSTORE POP CALLER PUSH1 0x4 PUSH0 PUSH2 0x100 EXP DUP2 SLOAD DUP2 PUSH20 0xFFFFFFFFFFFFFFFFFFFFFFFFFFFFFFFFFFFFFFFF MUL NOT AND SWAP1 DUP4 PUSH20 0xFFFFFFFFFFFFFFFFFFFFFFFFFFFFFFFFFFFFFFFF AND MUL OR SWAP1 SSTORE POP PUSH0 PUSH1 0xA PUSH1 0x14 PUSH2 0x100 EXP DUP2 SLOAD DUP2 PUSH1 0xFF MUL NOT AND SWAP1 DUP4 PUSH1 0x2 DUP2 GT ISZERO PUSH2 0x14C JUMPI PUSH2 0x14B PUSH2 0x332 JUMP JUMPDEST JUMPDEST MUL OR SWAP1 SSTORE POP POP PUSH2 0x35F JUMP JUMPDEST PUSH0 DUP1 PUSH0 SWAP1 SLOAD SWAP1 PUSH2 0x100 EXP SWAP1 DIV PUSH20 0xFFFFFFFFFFFFFFFFFFFFFFFFFFFFFFFFFFFFFFFF AND SWAP1 POP DUP2 PUSH0 DUP1 PUSH2 0x100 EXP DUP2 SLOAD DUP2 PUSH20 0xFFFFFFFFFFFFFFFFFFFFFFFFFFFFFFFFFFFFFFFF MUL NOT AND SWAP1 DUP4 PUSH20 0xFFFFFFFFFFFFFFFFFFFFFFFFFFFFFFFFFFFFFFFF AND MUL OR SWAP1 SSTORE POP DUP2 PUSH20 0xFFFFFFFFFFFFFFFFFFFFFFFFFFFFFFFFFFFFFFFF AND DUP2 PUSH20 0xFFFFFFFFFFFFFFFFFFFFFFFFFFFFFFFFFFFFFFFF AND PUSH32 0x8BE0079C531659141344CD1FD0A4F28419497F9722A3DAAFE3B4186F6B6457E0 PUSH1 0x40 MLOAD PUSH1 0x40 MLOAD DUP1 SWAP2 SUB SWAP1 LOG3 POP POP JUMP JUMPDEST PUSH0 DUP1 REVERT JUMPDEST PUSH0 DUP2 SWAP1 POP SWAP2 SWAP1 POP JUMP JUMPDEST PUSH2 0x22E DUP2 PUSH2 0x21C JUMP JUMPDEST DUP2 EQ PUSH2 0x238 JUMPI PUSH0 DUP1 REVERT JUMPDEST POP JUMP JUMPDEST PUSH0 DUP2 MLOAD SWAP1 POP PUSH2 0x249 DUP2 PUSH2 0x225 JUMP JUMPDEST SWAP3 SWAP2 POP POP JUMP JUMPDEST PUSH0 PUSH1 0x20 DUP3 DUP5 SUB SLT ISZERO PUSH2 0x264 JUMPI PUSH2 0x263 PUSH2 0x218 JUMP JUMPDEST JUMPDEST PUSH0 PUSH2 0x271 DUP5 DUP3 DUP6 ADD PUSH2 0x23B JUMP JUMPDEST SWAP2 POP POP SWAP3 SWAP2 POP POP JUMP JUMPDEST PUSH0 PUSH20 0xFFFFFFFFFFFFFFFFFFFFFFFFFFFFFFFFFFFFFFFF DUP3 AND SWAP1 POP SWAP2 SWAP1 POP JUMP JUMPDEST PUSH0 PUSH2 0x2A3 DUP3 PUSH2 0x27A JUMP JUMPDEST SWAP1 POP SWAP2 SWAP1 POP JUMP JUMPDEST PUSH2 0x2B3 DUP2 PUSH2 0x299 JUMP JUMPDEST DUP3 MSTORE POP POP JUMP JUMPDEST PUSH0 PUSH1 0x20 DUP3 ADD SWAP1 POP PUSH2 0x2CC PUSH0 DUP4 ADD DUP5 PUSH2 0x2AA JUMP JUMPDEST SWAP3 SWAP2 POP POP JUMP JUMPDEST PUSH32 0x4E487B7100000000000000000000000000000000000000000000000000000000 PUSH0 MSTORE PUSH1 0x11 PUSH1 0x4 MSTORE PUSH1 0x24 PUSH0 REVERT JUMPDEST PUSH0 PUSH2 0x309 DUP3 PUSH2 0x21C JUMP JUMPDEST SWAP2 POP PUSH2 0x314 DUP4 PUSH2 0x21C JUMP JUMPDEST SWAP3 POP DUP3 DUP3 ADD SWAP1 POP DUP1 DUP3 GT ISZERO PUSH2 0x32C JUMPI PUSH2 0x32B PUSH2 0x2D2 JUMP JUMPDEST JUMPDEST SWAP3 SWAP2 POP POP JUMP JUMPDEST PUSH32 0x4E487B7100000000000000000000000000000000000000000000000000000000 PUSH0 MSTORE PUSH1 0x21 PUSH1 0x4 MSTORE PUSH1 0x24 PUSH0 REVERT JUMPDEST PUSH2 0x12C4 DUP1 PUSH2 0x36C PUSH0 CODECOPY PUSH0 RETURN INVALID PUSH1 0x80 PUSH1 0x40 MSTORE PUSH1 0x4 CALLDATASIZE LT PUSH2 0x85 JUMPI PUSH0 CALLDATALOAD PUSH1 0xE0 SHR DUP1 PUSH4 0x8DA5CB5B GT PUSH2 0x58 JUMPI DUP1 PUSH4 0x8DA5CB5B EQ PUSH2 0xF5 JUMPI DUP1 PUSH4 0xD57BDE79 EQ PUSH2 0x11F JUMPI DUP1 PUSH4 0xDB774C79 EQ PUSH2 0x149 JUMPI DUP1 PUSH4 0xF2FDE38B EQ PUSH2 0x153 JUMPI DUP1 PUSH4 0xFE67A54B EQ PUSH2 0x17B JUMPI PUSH2 0x85 JUMP JUMPDEST DUP1 PUSH4 0x3CCFD60B EQ PUSH2 0x89 JUMPI DUP1 PUSH4 0x6B64C769 EQ PUSH2 0x9F JUMPI DUP1 PUSH4 0x715018A6 EQ PUSH2 0xB5 JUMPI DUP1 PUSH4 0x7FB45099 EQ PUSH2 0xCB JUMPI JUMPDEST PUSH0 DUP1 REVERT JUMPDEST CALLVALUE DUP1 ISZERO PUSH2 0x94 JUMPI PUSH0 DUP1 REVERT JUMPDEST POP PUSH2 0x9D PUSH2 0x191 JUMP JUMPDEST STOP JUMPDEST CALLVALUE DUP1 ISZERO PUSH2 0xAA JUMPI PUSH0 DUP1 REVERT JUMPDEST POP PUSH2 0xB3 PUSH2 0x302 JUMP JUMPDEST STOP JUMPDEST CALLVALUE DUP1 ISZERO PUSH2 0xC0 JUMPI PUSH0 DUP1 REVERT JUMPDEST POP PUSH2 0xC9 PUSH2 0x3B3 JUMP JUMPDEST STOP JUMPDEST CALLVALUE DUP1 ISZERO PUSH2 0xD6 JUMPI PUSH0 DUP1 REVERT JUMPDEST POP PUSH2 0xDF PUSH2 0x3C6 JUMP JUMPDEST PUSH1 0x40 MLOAD PUSH2 0xEC SWAP2 SWAP1 PUSH2 0xC06 JUMP JUMPDEST PUSH1 0x40 MLOAD DUP1 SWAP2 SUB SWAP1 RETURN JUMPDEST CALLVALUE DUP1 ISZERO PUSH2 0x100 JUMPI PUSH0 DUP1 REVERT JUMPDEST POP PUSH2 0x109 PUSH2 0x3D9 JUMP JUMPDEST PUSH1 0x40 MLOAD PUSH2 0x116 SWAP2 SWAP1 PUSH2 0xC5E JUMP JUMPDEST PUSH1 0x40 MLOAD DUP1 SWAP2 SUB SWAP1 RETURN JUMPDEST CALLVALUE DUP1 ISZERO PUSH2 0x12A JUMPI PUSH0 DUP1 REVERT JUMPDEST POP PUSH2 0x133 PUSH2 0x400 JUMP JUMPDEST PUSH1 0x40 MLOAD PUSH2 0x140 SWAP2 SWAP1 PUSH2 0xC8F JUMP JUMPDEST PUSH1 0x40 MLOAD DUP1 SWAP2 SUB SWAP1 RETURN JUMPDEST PUSH2 0x151 PUSH2 0x409 JUMP JUMPDEST STOP JUMPDEST CALLVALUE DUP1 ISZERO PUSH2 0x15E JUMPI PUSH0 DUP1 REVERT JUMPDEST POP PUSH2 0x179 PUSH1 0x4 DUP1 CALLDATASIZE SUB DUP2 ADD SWAP1 PUSH2 0x174 SWAP2 SWAP1 PUSH2 0xCD6 JUMP JUMPDEST PUSH2 0x794 JUMP JUMPDEST STOP JUMPDEST CALLVALUE DUP1 ISZERO PUSH2 0x186 JUMPI PUSH0 DUP1 REVERT JUMPDEST POP PUSH2 0x18F PUSH2 0x818 JUMP JUMPDEST STOP JUMPDEST PUSH0 PUSH1 0x5 PUSH0 CALLER PUSH20 0xFFFFFFFFFFFFFFFFFFFFFFFFFFFFFFFFFFFFFFFF AND PUSH20 0xFFFFFFFFFFFFFFFFFFFFFFFFFFFFFFFFFFFFFFFF AND DUP2 MSTORE PUSH1 0x20 ADD SWAP1 DUP2 MSTORE PUSH1 0x20 ADD PUSH0 KECCAK256 SLOAD SWAP1 POP PUSH0 DUP2 GT PUSH2 0x214 JUMPI PUSH1 0x40 MLOAD PUSH32 0x8C379A000000000000000000000000000000000000000000000000000000000 DUP2 MSTORE PUSH1 0x4 ADD PUSH2 0x20B SWAP1 PUSH2 0xD5B JUMP JUMPDEST PUSH1 0x40 MLOAD DUP1 SWAP2 SUB SWAP1 REVERT JUMPDEST PUSH0 PUSH1 0x5 PUSH0 CALLER PUSH20 0xFFFFFFFFFFFFFFFFFFFFFFFFFFFFFFFFFFFFFFFF AND PUSH20 0xFFFFFFFFFFFFFFFFFFFFFFFFFFFFFFFFFFFFFFFF AND DUP2 MSTORE PUSH1 0x20 ADD SWAP1 DUP2 MSTORE PUSH1 0x20 ADD PUSH0 KECCAK256 DUP2 SWAP1 SSTORE POP PUSH0 CALLER PUSH20 0xFFFFFFFFFFFFFFFFFFFFFFFFFFFFFFFFFFFFFFFF AND DUP3 PUSH1 0x40 MLOAD PUSH2 0x27B SWAP1 PUSH2 0xDA6 JUMP JUMPDEST PUSH0 PUSH1 0x40 MLOAD DUP1 DUP4 SUB DUP2 DUP6 DUP8 GAS CALL SWAP3 POP POP POP RETURNDATASIZE DUP1 PUSH0 DUP2 EQ PUSH2 0x2B5 JUMPI PUSH1 0x40 MLOAD SWAP2 POP PUSH1 0x1F NOT PUSH1 0x3F RETURNDATASIZE ADD AND DUP3 ADD PUSH1 0x40 MSTORE RETURNDATASIZE DUP3 MSTORE RETURNDATASIZE PUSH0 PUSH1 0x20 DUP5 ADD RETURNDATACOPY PUSH2 0x2BA JUMP JUMPDEST PUSH1 0x60 SWAP2 POP JUMPDEST POP POP SWAP1 POP DUP1 PUSH2 0x2FE JUMPI PUSH1 0x40 MLOAD PUSH32 0x8C379A000000000000000000000000000000000000000000000000000000000 DUP2 MSTORE PUSH1 0x4 ADD PUSH2 0x2F5 SWAP1 PUSH2 0xE04 JUMP JUMPDEST PUSH1 0x40 MLOAD DUP1 SWAP2 SUB SWAP1 REVERT JUMPDEST POP POP JUMP JUMPDEST PUSH2 0x30A PUSH2 0xA44 JUMP JUMPDEST PUSH0 PUSH1 0x2 DUP2 GT ISZERO PUSH2 0x31D JUMPI PUSH2 0x31C PUSH2 0xB93 JUMP JUMPDEST JUMPDEST PUSH1 0xA PUSH1 0x14 SWAP1 SLOAD SWAP1 PUSH2 0x100 EXP SWAP1 DIV PUSH1 0xFF AND PUSH1 0x2 DUP2 GT ISZERO PUSH2 0x33F JUMPI PUSH2 0x33E PUSH2 0xB93 JUMP JUMPDEST JUMPDEST EQ PUSH2 0x37F JUMPI PUSH1 0x40 MLOAD PUSH32 0x8C379A000000000000000000000000000000000000000000000000000000000 DUP2 MSTORE PUSH1 0x4 ADD PUSH2 0x376 SWAP1 PUSH2 0xE92 JUMP JUMPDEST PUSH1 0x40 MLOAD DUP1 SWAP2 SUB SWAP1 REVERT JUMPDEST PUSH1 0x1 PUSH1 0xA PUSH1 0x14 PUSH2 0x100 EXP DUP2 SLOAD DUP2 PUSH1 0xFF MUL NOT AND SWAP1 DUP4 PUSH1 0x2 DUP2 GT ISZERO PUSH2 0x3A5 JUMPI PUSH2 0x3A4 PUSH2 0xB93 JUMP JUMPDEST JUMPDEST MUL OR SWAP1 SSTORE POP TIMESTAMP PUSH1 0x6 DUP2 SWAP1 SSTORE POP JUMP JUMPDEST PUSH2 0x3BB PUSH2 0xA44 JUMP JUMPDEST PUSH2 0x3C4 PUSH0 PUSH2 0xACB JUMP JUMPDEST JUMP JUMPDEST PUSH1 0xA PUSH1 0x14 SWAP1 SLOAD SWAP1 PUSH2 0x100 EXP SWAP1 DIV PUSH1 0xFF AND DUP2 JUMP JUMPDEST PUSH0 DUP1 PUSH0 SWAP1 SLOAD SWAP1 PUSH2 0x100 EXP SWAP1 DIV PUSH20 0xFFFFFFFFFFFFFFFFFFFFFFFFFFFFFFFFFFFFFFFF AND SWAP1 POP SWAP1 JUMP JUMPDEST PUSH0 PUSH1 0x8 SLOAD SWAP1 POP SWAP1 JUMP JUMPDEST PUSH1 0x1 PUSH1 0x2 DUP2 GT ISZERO PUSH2 0x41D JUMPI PUSH2 0x41C PUSH2 0xB93 JUMP JUMPDEST JUMPDEST PUSH1 0xA PUSH1 0x14 SWAP1 SLOAD SWAP1 PUSH2 0x100 EXP SWAP1 DIV PUSH1 0xFF AND PUSH1 0x2 DUP2 GT ISZERO PUSH2 0x43F JUMPI PUSH2 0x43E PUSH2 0xB93 JUMP JUMPDEST JUMPDEST EQ PUSH2 0x47F JUMPI PUSH1 0x40 MLOAD PUSH32 0x8C379A000000000000000000000000000000000000000000000000000000000 DUP2 MSTORE PUSH1 0x4 ADD PUSH2 0x476 SWAP1 PUSH2 0xEFA JUMP JUMPDEST PUSH1 0x40 MLOAD DUP1 SWAP2 SUB SWAP1 REVERT JUMPDEST PUSH1 0x6 SLOAD TIMESTAMP GT PUSH2 0x4C3 JUMPI PUSH1 0x40 MLOAD PUSH32 0x8C379A000000000000000000000000000000000000000000000000000000000 DUP2 MSTORE PUSH1 0x4 ADD PUSH2 0x4BA SWAP1 PUSH2 0xF62 JUMP JUMPDEST PUSH1 0x40 MLOAD DUP1 SWAP2 SUB SWAP1 REVERT JUMPDEST PUSH1 0x7 SLOAD TIMESTAMP LT PUSH2 0x507 JUMPI PUSH1 0x40 MLOAD PUSH32 0x8C379A000000000000000000000000000000000000000000000000000000000 DUP2 MSTORE PUSH1 0x4 ADD PUSH2 0x4FE SWAP1 PUSH2 0xFCA JUMP JUMPDEST PUSH1 0x40 MLOAD DUP1 SWAP2 SUB SWAP1 REVERT JUMPDEST PUSH1 0x8 SLOAD CALLVALUE GT PUSH2 0x54B JUMPI PUSH1 0x40 MLOAD PUSH32 0x8C379A000000000000000000000000000000000000000000000000000000000 DUP2 MSTORE PUSH1 0x4 ADD PUSH2 0x542 SWAP1 PUSH2 0x1058 JUMP JUMPDEST PUSH1 0x40 MLOAD DUP1 SWAP2 SUB SWAP1 REVERT JUMPDEST PUSH1 0x1 SLOAD PUSH1 0x3 PUSH0 CALLER PUSH20 0xFFFFFFFFFFFFFFFFFFFFFFFFFFFFFFFFFFFFFFFF AND PUSH20 0xFFFFFFFFFFFFFFFFFFFFFFFFFFFFFFFFFFFFFFFF AND DUP2 MSTORE PUSH1 0x20 ADD SWAP1 DUP2 MSTORE PUSH1 0x20 ADD PUSH0 KECCAK256 SLOAD TIMESTAMP PUSH2 0x597 SWAP2 SWAP1 PUSH2 0x10A3 JUMP JUMPDEST GT PUSH2 0x5D7 JUMPI PUSH1 0x40 MLOAD PUSH32 0x8C379A000000000000000000000000000000000000000000000000000000000 DUP2 MSTORE PUSH1 0x4 ADD PUSH2 0x5CE SWAP1 PUSH2 0x1146 JUMP JUMPDEST PUSH1 0x40 MLOAD DUP1 SWAP2 SUB SWAP1 REVERT JUMPDEST PUSH1 0x2 SLOAD TIMESTAMP PUSH1 0x7 SLOAD PUSH2 0x5E8 SWAP2 SWAP1 PUSH2 0x10A3 JUMP JUMPDEST LT ISZERO PUSH2 0x605 JUMPI PUSH1 0x2 SLOAD PUSH1 0x7 SLOAD PUSH2 0x5FE SWAP2 SWAP1 PUSH2 0x1164 JUMP JUMPDEST PUSH1 0x7 DUP2 SWAP1 SSTORE POP JUMPDEST PUSH0 PUSH20 0xFFFFFFFFFFFFFFFFFFFFFFFFFFFFFFFFFFFFFFFF AND PUSH1 0xA PUSH0 SWAP1 SLOAD SWAP1 PUSH2 0x100 EXP SWAP1 DIV PUSH20 0xFFFFFFFFFFFFFFFFFFFFFFFFFFFFFFFFFFFFFFFF AND PUSH20 0xFFFFFFFFFFFFFFFFFFFFFFFFFFFFFFFFFFFFFFFF AND EQ PUSH2 0x6D0 JUMPI PUSH1 0x8 SLOAD PUSH1 0x5 PUSH0 PUSH1 0xA PUSH0 SWAP1 SLOAD SWAP1 PUSH2 0x100 EXP SWAP1 DIV PUSH20 0xFFFFFFFFFFFFFFFFFFFFFFFFFFFFFFFFFFFFFFFF AND PUSH20 0xFFFFFFFFFFFFFFFFFFFFFFFFFFFFFFFFFFFFFFFF AND PUSH20 0xFFFFFFFFFFFFFFFFFFFFFFFFFFFFFFFFFFFFFFFF AND DUP2 MSTORE PUSH1 0x20 ADD SWAP1 DUP2 MSTORE PUSH1 0x20 ADD PUSH0 KECCAK256 PUSH0 DUP3 DUP3 SLOAD PUSH2 0x6C8 SWAP2 SWAP1 PUSH2 0x1164 JUMP JUMPDEST SWAP3 POP POP DUP2 SWAP1 SSTORE POP JUMPDEST CALLVALUE PUSH1 0x8 DUP2 SWAP1 SSTORE POP CALLER PUSH1 0xA PUSH0 PUSH2 0x100 EXP DUP2 SLOAD DUP2 PUSH20 0xFFFFFFFFFFFFFFFFFFFFFFFFFFFFFFFFFFFFFFFF MUL NOT AND SWAP1 DUP4 PUSH20 0xFFFFFFFFFFFFFFFFFFFFFFFFFFFFFFFFFFFFFFFF AND MUL OR SWAP1 SSTORE POP TIMESTAMP PUSH1 0x3 PUSH0 CALLER PUSH20 0xFFFFFFFFFFFFFFFFFFFFFFFFFFFFFFFFFFFFFFFF AND PUSH20 0xFFFFFFFFFFFFFFFFFFFFFFFFFFFFFFFFFFFFFFFF AND DUP2 MSTORE PUSH1 0x20 ADD SWAP1 DUP2 MSTORE PUSH1 0x20 ADD PUSH0 KECCAK256 DUP2 SWAP1 SSTORE POP PUSH32 0xAD39847EDBFF9B525A524A14BDEA0FFC8BA7B93FCA296E09A5147991599E8E56 CALLER CALLVALUE PUSH1 0x40 MLOAD PUSH2 0x78A SWAP3 SWAP2 SWAP1 PUSH2 0x1197 JUMP JUMPDEST PUSH1 0x40 MLOAD DUP1 SWAP2 SUB SWAP1 LOG1 JUMP JUMPDEST PUSH2 0x79C PUSH2 0xA44 JUMP JUMPDEST PUSH0 PUSH20 0xFFFFFFFFFFFFFFFFFFFFFFFFFFFFFFFFFFFFFFFF AND DUP2 PUSH20 0xFFFFFFFFFFFFFFFFFFFFFFFFFFFFFFFFFFFFFFFF AND SUB PUSH2 0x80C JUMPI PUSH0 PUSH1 0x40 MLOAD PUSH32 0x1E4FBDF700000000000000000000000000000000000000000000000000000000 DUP2 MSTORE PUSH1 0x4 ADD PUSH2 0x803 SWAP2 SWAP1 PUSH2 0xC5E JUMP JUMPDEST PUSH1 0x40 MLOAD DUP1 SWAP2 SUB SWAP1 REVERT JUMPDEST PUSH2 0x815 DUP2 PUSH2 0xACB JUMP JUMPDEST POP JUMP JUMPDEST PUSH2 0x820 PUSH2 0xA44 JUMP JUMPDEST PUSH1 0x7 SLOAD TIMESTAMP GT PUSH2 0x864 JUMPI PUSH1 0x40 MLOAD PUSH32 0x8C379A000000000000000000000000000000000000000000000000000000000 DUP2 MSTORE PUSH1 0x4 ADD PUSH2 0x85B SWAP1 PUSH2 0x1208 JUMP JUMPDEST PUSH1 0x40 MLOAD DUP1 SWAP2 SUB SWAP1 REVERT JUMPDEST PUSH1 0x1 PUSH1 0x2 DUP2 GT ISZERO PUSH2 0x878 JUMPI PUSH2 0x877 PUSH2 0xB93 JUMP JUMPDEST JUMPDEST PUSH1 0xA PUSH1 0x14 SWAP1 SLOAD SWAP1 PUSH2 0x100 EXP SWAP1 DIV PUSH1 0xFF AND PUSH1 0x2 DUP2 GT ISZERO PUSH2 0x89A JUMPI PUSH2 0x899 PUSH2 0xB93 JUMP JUMPDEST JUMPDEST EQ PUSH2 0x8DA JUMPI PUSH1 0x40 MLOAD PUSH32 0x8C379A000000000000000000000000000000000000000000000000000000000 DUP2 MSTORE PUSH1 0x4 ADD PUSH2 0x8D1 SWAP1 PUSH2 0xEFA JUMP JUMPDEST PUSH1 0x40 MLOAD DUP1 SWAP2 SUB SWAP1 REVERT JUMPDEST PUSH1 0x2 PUSH1 0xA PUSH1 0x14 PUSH2 0x100 EXP DUP2 SLOAD DUP2 PUSH1 0xFF MUL NOT AND SWAP1 DUP4 PUSH1 0x2 DUP2 GT ISZERO PUSH2 0x900 JUMPI PUSH2 0x8FF PUSH2 0xB93 JUMP JUMPDEST JUMPDEST MUL OR SWAP1 SSTORE POP PUSH0 PUSH1 0x4 PUSH0 SWAP1 SLOAD SWAP1 PUSH2 0x100 EXP SWAP1 DIV PUSH20 0xFFFFFFFFFFFFFFFFFFFFFFFFFFFFFFFFFFFFFFFF AND PUSH20 0xFFFFFFFFFFFFFFFFFFFFFFFFFFFFFFFFFFFFFFFF AND PUSH1 0x8 SLOAD PUSH1 0x40 MLOAD PUSH2 0x94D SWAP1 PUSH2 0xDA6 JUMP JUMPDEST PUSH0 PUSH1 0x40 MLOAD DUP1 DUP4 SUB DUP2 DUP6 DUP8 GAS CALL SWAP3 POP POP POP RETURNDATASIZE DUP1 PUSH0 DUP2 EQ PUSH2 0x987 JUMPI PUSH1 0x40 MLOAD SWAP2 POP PUSH1 0x1F NOT PUSH1 0x3F RETURNDATASIZE ADD AND DUP3 ADD PUSH1 0x40 MSTORE RETURNDATASIZE DUP3 MSTORE RETURNDATASIZE PUSH0 PUSH1 0x20 DUP5 ADD RETURNDATACOPY PUSH2 0x98C JUMP JUMPDEST PUSH1 0x60 SWAP2 POP JUMPDEST POP POP SWAP1 POP DUP1 PUSH2 0x9D0 JUMPI PUSH1 0x40 MLOAD PUSH32 0x8C379A000000000000000000000000000000000000000000000000000000000 DUP2 MSTORE PUSH1 0x4 ADD PUSH2 0x9C7 SWAP1 PUSH2 0x1270 JUMP JUMPDEST PUSH1 0x40 MLOAD DUP1 SWAP2 SUB SWAP1 REVERT JUMPDEST PUSH1 0xA PUSH0 SWAP1 SLOAD SWAP1 PUSH2 0x100 EXP SWAP1 DIV PUSH20 0xFFFFFFFFFFFFFFFFFFFFFFFFFFFFFFFFFFFFFFFF AND PUSH20 0xFFFFFFFFFFFFFFFFFFFFFFFFFFFFFFFFFFFFFFFF AND PUSH32 0xDAEC4582D5D9595688C8C98545FDD1C696D41C6AEAEB636737E84ED2F5C00EDA PUSH1 0x8 SLOAD PUSH1 0x40 MLOAD PUSH2 0xA39 SWAP2 SWAP1 PUSH2 0xC8F JUMP JUMPDEST PUSH1 0x40 MLOAD DUP1 SWAP2 SUB SWAP1 LOG2 POP JUMP JUMPDEST PUSH2 0xA4C PUSH2 0xB8C JUMP JUMPDEST PUSH20 0xFFFFFFFFFFFFFFFFFFFFFFFFFFFFFFFFFFFFFFFF AND PUSH2 0xA6A PUSH2 0x3D9 JUMP JUMPDEST PUSH20 0xFFFFFFFFFFFFFFFFFFFFFFFFFFFFFFFFFFFFFFFF AND EQ PUSH2 0xAC9 JUMPI PUSH2 0xA8D PUSH2 0xB8C JUMP JUMPDEST PUSH1 0x40 MLOAD PUSH32 0x118CDAA700000000000000000000000000000000000000000000000000000000 DUP2 MSTORE PUSH1 0x4 ADD PUSH2 0xAC0 SWAP2 SWAP1 PUSH2 0xC5E JUMP JUMPDEST PUSH1 0x40 MLOAD DUP1 SWAP2 SUB SWAP1 REVERT JUMPDEST JUMP JUMPDEST PUSH0 DUP1 PUSH0 SWAP1 SLOAD SWAP1 PUSH2 0x100 EXP SWAP1 DIV PUSH20 0xFFFFFFFFFFFFFFFFFFFFFFFFFFFFFFFFFFFFFFFF AND SWAP1 POP DUP2 PUSH0 DUP1 PUSH2 0x100 EXP DUP2 SLOAD DUP2 PUSH20 0xFFFFFFFFFFFFFFFFFFFFFFFFFFFFFFFFFFFFFFFF MUL NOT AND SWAP1 DUP4 PUSH20 0xFFFFFFFFFFFFFFFFFFFFFFFFFFFFFFFFFFFFFFFF AND MUL OR SWAP1 SSTORE POP DUP2 PUSH20 0xFFFFFFFFFFFFFFFFFFFFFFFFFFFFFFFFFFFFFFFF AND DUP2 PUSH20 0xFFFFFFFFFFFFFFFFFFFFFFFFFFFFFFFFFFFFFFFF AND PUSH32 0x8BE0079C531659141344CD1FD0A4F28419497F9722A3DAAFE3B4186F6B6457E0 PUSH1 0x40 MLOAD PUSH1 0x40 MLOAD DUP1 SWAP2 SUB SWAP1 LOG3 POP POP JUMP JUMPDEST PUSH0 CALLER SWAP1 POP SWAP1 JUMP JUMPDEST PUSH32 0x4E487B7100000000000000000000000000000000000000000000000000000000 PUSH0 MSTORE PUSH1 0x21 PUSH1 0x4 MSTORE PUSH1 0x24 PUSH0 REVERT JUMPDEST PUSH1 0x3 DUP2 LT PUSH2 0xBD1 JUMPI PUSH2 0xBD0 PUSH2 0xB93 JUMP JUMPDEST JUMPDEST POP JUMP JUMPDEST PUSH0 DUP2 SWAP1 POP PUSH2 0xBE1 DUP3 PUSH2 0xBC0 JUMP JUMPDEST SWAP2 SWAP1 POP JUMP JUMPDEST PUSH0 PUSH2 0xBF0 DUP3 PUSH2 0xBD4 JUMP JUMPDEST SWAP1 POP SWAP2 SWAP1 POP JUMP JUMPDEST PUSH2 0xC00 DUP2 PUSH2 0xBE6 JUMP JUMPDEST DUP3 MSTORE POP POP JUMP JUMPDEST PUSH0 PUSH1 0x20 DUP3 ADD SWAP1 POP PUSH2 0xC19 PUSH0 DUP4 ADD DUP5 PUSH2 0xBF7 JUMP JUMPDEST SWAP3 SWAP2 POP POP JUMP JUMPDEST PUSH0 PUSH20 0xFFFFFFFFFFFFFFFFFFFFFFFFFFFFFFFFFFFFFFFF DUP3 AND SWAP1 POP SWAP2 SWAP1 POP JUMP JUMPDEST PUSH0 PUSH2 0xC48 DUP3 PUSH2 0xC1F JUMP JUMPDEST SWAP1 POP SWAP2 SWAP1 POP JUMP JUMPDEST PUSH2 0xC58 DUP2 PUSH2 0xC3E JUMP JUMPDEST DUP3 MSTORE POP POP JUMP JUMPDEST PUSH0 PUSH1 0x20 DUP3 ADD SWAP1 POP PUSH2 0xC71 PUSH0 DUP4 ADD DUP5 PUSH2 0xC4F JUMP JUMPDEST SWAP3 SWAP2 POP POP JUMP JUMPDEST PUSH0 DUP2 SWAP1 POP SWAP2 SWAP1 POP JUMP JUMPDEST PUSH2 0xC89 DUP2 PUSH2 0xC77 JUMP JUMPDEST DUP3 MSTORE POP POP JUMP JUMPDEST PUSH0 PUSH1 0x20 DUP3 ADD SWAP1 POP PUSH2 0xCA2 PUSH0 DUP4 ADD DUP5 PUSH2 0xC80 JUMP JUMPDEST SWAP3 SWAP2 POP POP JUMP JUMPDEST PUSH0 DUP1 REVERT JUMPDEST PUSH2 0xCB5 DUP2 PUSH2 0xC3E JUMP JUMPDEST DUP2 EQ PUSH2 0xCBF JUMPI PUSH0 DUP1 REVERT JUMPDEST POP JUMP JUMPDEST PUSH0 DUP2 CALLDATALOAD SWAP1 POP PUSH2 0xCD0 DUP2 PUSH2 0xCAC JUMP JUMPDEST SWAP3 SWAP2 POP POP JUMP JUMPDEST PUSH0 PUSH1 0x20 DUP3 DUP5 SUB SLT ISZERO PUSH2 0xCEB JUMPI PUSH2 0xCEA PUSH2 0xCA8 JUMP JUMPDEST JUMPDEST PUSH0 PUSH2 0xCF8 DUP5 DUP3 DUP6 ADD PUSH2 0xCC2 JUMP JUMPDEST SWAP2 POP POP SWAP3 SWAP2 POP POP JUMP JUMPDEST PUSH0 DUP3 DUP3 MSTORE PUSH1 0x20 DUP3 ADD SWAP1 POP SWAP3 SWAP2 POP POP JUMP JUMPDEST PUSH32 0x4E6F2066756E647320746F207769746864726177000000000000000000000000 PUSH0 DUP3 ADD MSTORE POP JUMP JUMPDEST PUSH0 PUSH2 0xD45 PUSH1 0x14 DUP4 PUSH2 0xD01 JUMP JUMPDEST SWAP2 POP PUSH2 0xD50 DUP3 PUSH2 0xD11 JUMP JUMPDEST PUSH1 0x20 DUP3 ADD SWAP1 POP SWAP2 SWAP1 POP JUMP JUMPDEST PUSH0 PUSH1 0x20 DUP3 ADD SWAP1 POP DUP2 DUP2 SUB PUSH0 DUP4 ADD MSTORE PUSH2 0xD72 DUP2 PUSH2 0xD39 JUMP JUMPDEST SWAP1 POP SWAP2 SWAP1 POP JUMP JUMPDEST PUSH0 DUP2 SWAP1 POP SWAP3 SWAP2 POP POP JUMP JUMPDEST POP JUMP JUMPDEST PUSH0 PUSH2 0xD91 PUSH0 DUP4 PUSH2 0xD79 JUMP JUMPDEST SWAP2 POP PUSH2 0xD9C DUP3 PUSH2 0xD83 JUMP JUMPDEST PUSH0 DUP3 ADD SWAP1 POP SWAP2 SWAP1 POP JUMP JUMPDEST PUSH0 PUSH2 0xDB0 DUP3 PUSH2 0xD86 JUMP JUMPDEST SWAP2 POP DUP2 SWAP1 POP SWAP2 SWAP1 POP JUMP JUMPDEST PUSH32 0x5769746864726177616C206661696C6564000000000000000000000000000000 PUSH0 DUP3 ADD MSTORE POP JUMP JUMPDEST PUSH0 PUSH2 0xDEE PUSH1 0x11 DUP4 PUSH2 0xD01 JUMP JUMPDEST SWAP2 POP PUSH2 0xDF9 DUP3 PUSH2 0xDBA JUMP JUMPDEST PUSH1 0x20 DUP3 ADD SWAP1 POP SWAP2 SWAP1 POP JUMP JUMPDEST PUSH0 PUSH1 0x20 DUP3 ADD SWAP1 POP DUP2 DUP2 SUB PUSH0 DUP4 ADD MSTORE PUSH2 0xE1B DUP2 PUSH2 0xDE2 JUMP JUMPDEST SWAP1 POP SWAP2 SWAP1 POP JUMP JUMPDEST PUSH32 0x41756374696F6E2068617320616C72656164792073746172746564206F722065 PUSH0 DUP3 ADD MSTORE PUSH32 0x6E6465642E000000000000000000000000000000000000000000000000000000 PUSH1 0x20 DUP3 ADD MSTORE POP JUMP JUMPDEST PUSH0 PUSH2 0xE7C PUSH1 0x25 DUP4 PUSH2 0xD01 JUMP JUMPDEST SWAP2 POP PUSH2 0xE87 DUP3 PUSH2 0xE22 JUMP JUMPDEST PUSH1 0x40 DUP3 ADD SWAP1 POP SWAP2 SWAP1 POP JUMP JUMPDEST PUSH0 PUSH1 0x20 DUP3 ADD SWAP1 POP DUP2 DUP2 SUB PUSH0 DUP4 ADD MSTORE PUSH2 0xEA9 DUP2 PUSH2 0xE70 JUMP JUMPDEST SWAP1 POP SWAP2 SWAP1 POP JUMP JUMPDEST PUSH32 0x41756374696F6E206973206E6F74206163746976652E00000000000000000000 PUSH0 DUP3 ADD MSTORE POP JUMP JUMPDEST PUSH0 PUSH2 0xEE4 PUSH1 0x16 DUP4 PUSH2 0xD01 JUMP JUMPDEST SWAP2 POP PUSH2 0xEEF DUP3 PUSH2 0xEB0 JUMP JUMPDEST PUSH1 0x20 DUP3 ADD SWAP1 POP SWAP2 SWAP1 POP JUMP JUMPDEST PUSH0 PUSH1 0x20 DUP3 ADD SWAP1 POP DUP2 DUP2 SUB PUSH0 DUP4 ADD MSTORE PUSH2 0xF11 DUP2 PUSH2 0xED8 JUMP JUMPDEST SWAP1 POP SWAP2 SWAP1 POP JUMP JUMPDEST PUSH32 0x7468652061756374696F6E206973206E6F742073746172740000000000000000 PUSH0 DUP3 ADD MSTORE POP JUMP JUMPDEST PUSH0 PUSH2 0xF4C PUSH1 0x18 DUP4 PUSH2 0xD01 JUMP JUMPDEST SWAP2 POP PUSH2 0xF57 DUP3 PUSH2 0xF18 JUMP JUMPDEST PUSH1 0x20 DUP3 ADD SWAP1 POP SWAP2 SWAP1 POP JUMP JUMPDEST PUSH0 PUSH1 0x20 DUP3 ADD SWAP1 POP DUP2 DUP2 SUB PUSH0 DUP4 ADD MSTORE PUSH2 0xF79 DUP2 PUSH2 0xF40 JUMP JUMPDEST SWAP1 POP SWAP2 SWAP1 POP JUMP JUMPDEST PUSH32 0x74686520616E6374696F6E20697320656E646564000000000000000000000000 PUSH0 DUP3 ADD MSTORE POP JUMP JUMPDEST PUSH0 PUSH2 0xFB4 PUSH1 0x14 DUP4 PUSH2 0xD01 JUMP JUMPDEST SWAP2 POP PUSH2 0xFBF DUP3 PUSH2 0xF80 JUMP JUMPDEST PUSH1 0x20 DUP3 ADD SWAP1 POP SWAP2 SWAP1 POP JUMP JUMPDEST PUSH0 PUSH1 0x20 DUP3 ADD SWAP1 POP DUP2 DUP2 SUB PUSH0 DUP4 ADD MSTORE PUSH2 0xFE1 DUP2 PUSH2 0xFA8 JUMP JUMPDEST SWAP1 POP SWAP2 SWAP1 POP JUMP JUMPDEST PUSH32 0x7072696365206D75737420686967686572207468616E2063757272656E742070 PUSH0 DUP3 ADD MSTORE PUSH32 0x7269636500000000000000000000000000000000000000000000000000000000 PUSH1 0x20 DUP3 ADD MSTORE POP JUMP JUMPDEST PUSH0 PUSH2 0x1042 PUSH1 0x24 DUP4 PUSH2 0xD01 JUMP JUMPDEST SWAP2 POP PUSH2 0x104D DUP3 PUSH2 0xFE8 JUMP JUMPDEST PUSH1 0x40 DUP3 ADD SWAP1 POP SWAP2 SWAP1 POP JUMP JUMPDEST PUSH0 PUSH1 0x20 DUP3 ADD SWAP1 POP DUP2 DUP2 SUB PUSH0 DUP4 ADD MSTORE PUSH2 0x106F DUP2 PUSH2 0x1036 JUMP JUMPDEST SWAP1 POP SWAP2 SWAP1 POP JUMP JUMPDEST PUSH32 0x4E487B7100000000000000000000000000000000000000000000000000000000 PUSH0 MSTORE PUSH1 0x11 PUSH1 0x4 MSTORE PUSH1 0x24 PUSH0 REVERT JUMPDEST PUSH0 PUSH2 0x10AD DUP3 PUSH2 0xC77 JUMP JUMPDEST SWAP2 POP PUSH2 0x10B8 DUP4 PUSH2 0xC77 JUMP JUMPDEST SWAP3 POP DUP3 DUP3 SUB SWAP1 POP DUP2 DUP2 GT ISZERO PUSH2 0x10D0 JUMPI PUSH2 0x10CF PUSH2 0x1076 JUMP JUMPDEST JUMPDEST SWAP3 SWAP2 POP POP JUMP JUMPDEST PUSH32 0x63616C6C20646F776E2C20796F7520626964696E67206A757374206E6F772C20 PUSH0 DUP3 ADD MSTORE PUSH32 0x7472792069742035206D696E206C617465720000000000000000000000000000 PUSH1 0x20 DUP3 ADD MSTORE POP JUMP JUMPDEST PUSH0 PUSH2 0x1130 PUSH1 0x32 DUP4 PUSH2 0xD01 JUMP JUMPDEST SWAP2 POP PUSH2 0x113B DUP3 PUSH2 0x10D6 JUMP JUMPDEST PUSH1 0x40 DUP3 ADD SWAP1 POP SWAP2 SWAP1 POP JUMP JUMPDEST PUSH0 PUSH1 0x20 DUP3 ADD SWAP1 POP DUP2 DUP2 SUB PUSH0 DUP4 ADD MSTORE PUSH2 0x115D DUP2 PUSH2 0x1124 JUMP JUMPDEST SWAP1 POP SWAP2 SWAP1 POP JUMP JUMPDEST PUSH0 PUSH2 0x116E DUP3 PUSH2 0xC77 JUMP JUMPDEST SWAP2 POP PUSH2 0x1179 DUP4 PUSH2 0xC77 JUMP JUMPDEST SWAP3 POP DUP3 DUP3 ADD SWAP1 POP DUP1 DUP3 GT ISZERO PUSH2 0x1191 JUMPI PUSH2 0x1190 PUSH2 0x1076 JUMP JUMPDEST JUMPDEST SWAP3 SWAP2 POP POP JUMP JUMPDEST PUSH0 PUSH1 0x40 DUP3 ADD SWAP1 POP PUSH2 0x11AA PUSH0 DUP4 ADD DUP6 PUSH2 0xC4F JUMP JUMPDEST PUSH2 0x11B7 PUSH1 0x20 DUP4 ADD DUP5 PUSH2 0xC80 JUMP JUMPDEST SWAP4 SWAP3 POP POP POP JUMP JUMPDEST PUSH32 0x61756374696F6E206973206E6F7420656E646564000000000000000000000000 PUSH0 DUP3 ADD MSTORE POP JUMP JUMPDEST PUSH0 PUSH2 0x11F2 PUSH1 0x14 DUP4 PUSH2 0xD01 JUMP JUMPDEST SWAP2 POP PUSH2 0x11FD DUP3 PUSH2 0x11BE JUMP JUMPDEST PUSH1 0x20 DUP3 ADD SWAP1 POP SWAP2 SWAP1 POP JUMP JUMPDEST PUSH0 PUSH1 0x20 DUP3 ADD SWAP1 POP DUP2 DUP2 SUB PUSH0 DUP4 ADD MSTORE PUSH2 0x121F DUP2 PUSH2 0x11E6 JUMP JUMPDEST SWAP1 POP SWAP2 SWAP1 POP JUMP JUMPDEST PUSH32 0x7472616E73666572206661696C65000000000000000000000000000000000000 PUSH0 DUP3 ADD MSTORE POP JUMP JUMPDEST PUSH0 PUSH2 0x125A PUSH1 0xE DUP4 PUSH2 0xD01 JUMP JUMPDEST SWAP2 POP PUSH2 0x1265 DUP3 PUSH2 0x1226 JUMP JUMPDEST PUSH1 0x20 DUP3 ADD SWAP1 POP SWAP2 SWAP1 POP JUMP JUMPDEST PUSH0 PUSH1 0x20 DUP3 ADD SWAP1 POP DUP2 DUP2 SUB PUSH0 DUP4 ADD MSTORE PUSH2 0x1287 DUP2 PUSH2 0x124E JUMP JUMPDEST SWAP1 POP SWAP2 SWAP1 POP JUMP INVALID LOG2 PUSH5 0x6970667358 0x22 SLT KECCAK256 KECCAK256 PUSH2 0xD85C 0xD2 PUSH11 0xF703570DDFD40B2A8660DE 0xB5 0xD4 PUSH16 0x4D131AD365832C74568A120464736F6C PUSH4 0x4300081A STOP CALLER "
				},
				"gasEstimates": {
					"creation": {
						"codeDepositCost": "960800",
						"executionCost": "infinite",
						"totalCost": "infinite"
					},
					"external": {
						"auctionState()": "2672",
						"bidding()": "infinite",
						"endAuction()": "infinite",
						"highestBid()": "2454",
						"owner()": "2515",
						"renounceOwnership()": "infinite",
						"startAuction()": "infinite",
						"transferOwnership(address)": "infinite",
						"withdraw()": "infinite"
					}
				},
				"methodIdentifiers": {
					"auctionState()": "7fb45099",
					"bidding()": "db774c79",
					"endAuction()": "fe67a54b",
					"highestBid()": "d57bde79",
					"owner()": "8da5cb5b",
					"renounceOwnership()": "715018a6",
					"startAuction()": "6b64c769",
					"transferOwnership(address)": "f2fde38b",
					"withdraw()": "3ccfd60b"
				}
			},
			"storageLayout": {
				"storage": [
					{
						"astId": 8,
						"contract": "auction_contract/src/Auction.sol:Auction",
						"label": "_owner",
						"offset": 0,
						"slot": "0",
						"type": "t_address"
					},
					{
						"astId": 186,
						"contract": "auction_contract/src/Auction.sol:Auction",
						"label": "call_down_time",
						"offset": 0,
						"slot": "1",
						"type": "t_uint256"
					},
					{
						"astId": 189,
						"contract": "auction_contract/src/Auction.sol:Auction",
						"label": "delay_time",
						"offset": 0,
						"slot": "2",
						"type": "t_uint256"
					},
					{
						"astId": 193,
						"contract": "auction_contract/src/Auction.sol:Auction",
						"label": "bid_time",
						"offset": 0,
						"slot": "3",
						"type": "t_mapping(t_address,t_uint256)"
					},
					{
						"astId": 195,
						"contract": "auction_contract/src/Auction.sol:Auction",
						"label": "seller",
						"offset": 0,
						"slot": "4",
						"type": "t_address"
					},
					{
						"astId": 199,
						"contract": "auction_contract/src/Auction.sol:Auction",
						"label": "pendingReturns",
						"offset": 0,
						"slot": "5",
						"type": "t_mapping(t_address,t_uint256)"
					},
					{
						"astId": 201,
						"contract": "auction_contract/src/Auction.sol:Auction",
						"label": "start_at",
						"offset": 0,
						"slot": "6",
						"type": "t_uint256"
					},
					{
						"astId": 203,
						"contract": "auction_contract/src/Auction.sol:Auction",
						"label": "expire_at",
						"offset": 0,
						"slot": "7",
						"type": "t_uint256"
					},
					{
						"astId": 205,
						"contract": "auction_contract/src/Auction.sol:Auction",
						"label": "current_bid",
						"offset": 0,
						"slot": "8",
						"type": "t_uint256"
					},
					{
						"astId": 208,
						"contract": "auction_contract/src/Auction.sol:Auction",
						"label": "last_days",
						"offset": 0,
						"slot": "9",
						"type": "t_uint256"
					},
					{
						"astId": 210,
						"contract": "auction_contract/src/Auction.sol:Auction",
						"label": "current_max_bidder",
						"offset": 0,
						"slot": "10",
						"type": "t_address_payable"
					},
					{
						"astId": 217,
						"contract": "auction_contract/src/Auction.sol:Auction",
						"label": "auctionState",
						"offset": 20,
						"slot": "10",
						"type": "t_enum(AuctionState)214"
					}
				],
				"types": {
					"t_address": {
						"encoding": "inplace",
						"label": "address",
						"numberOfBytes": "20"
					},
					"t_address_payable": {
						"encoding": "inplace",
						"label": "address payable",
						"numberOfBytes": "20"
					},
					"t_enum(AuctionState)214": {
						"encoding": "inplace",
						"label": "enum Auction.AuctionState",
						"numberOfBytes": "1"
					},
					"t_mapping(t_address,t_uint256)": {
						"encoding": "mapping",
						"key": "t_address",
						"label": "mapping(address => uint256)",
						"numberOfBytes": "32",
						"value": "t_uint256"
					},
					"t_uint256": {
						"encoding": "inplace",
						"label": "uint256",
						"numberOfBytes": "32"
					}
				}
			},
			"userdoc": {
				"kind": "user",
				"methods": {},
				"notice": "### DoDo：公开拍卖 每个购买者在拍卖期间发送他们的竞标到智能合约。 竞标包括发送资金，以便将购买者与他们的竞标绑定。 如果最高出价被提高，之前的出价者就可以拿回他们的竞标资金。 竞价期结束后，出售人可以手动调用合约，收到他们的收益。**公开拍卖** 1.每个购买者在拍卖期间发送他们的竞标到智能合约。 2.竞标包括发送资金，以便将购买者与他们的竞标绑定。 3.如果最高出价被提高，之前的出价者就可以拿回他们的竞标资金。 4.竞价期结束后，出售人可以手动调用合约，收到他们的收益。 - 5 时间加权出价奖励机制(在拍卖即将结束时，出价者的出价会根据距离拍卖结束 的时间权重进行调整。例如，在拍卖最后5分钟内的出价可以按某个倍数进行加 权，使得临近结束的出价会更有竞争力。) - 6 竞拍冷却机制(为防止竞拍者连续快速出价，可以设置一个竞拍冷却期。每个出 价者在一次出价后，需要等待一段时间后才能再次出价，让拍卖过程更具策略性。) - 7 拍卖终局延长(如果在拍卖快要结束的最后几分钟内有人出价，则拍卖时间会自 动延长一定的时间（例如5分钟），避免“最后一秒出价”的情况，并让竞拍更加激烈。 除了1，2，3，4基础拍卖功能外，还需要从5，6，7三个附加功能中选择任意一个实现。",
				"version": 1
			}
		}
	}
}