{"abi":[{"type":"function","name":"auctionMap","inputs":[{"name":"","type":"uint256","internalType":"uint256"}],"outputs":[{"name":"","type":"address","internalType":"contract AuctionItem"}],"stateMutability":"view"},{"type":"function","name":"auctionitems","inputs":[{"name":"","type":"uint256","internalType":"uint256"}],"outputs":[{"name":"","type":"address","internalType":"contract AuctionItem"}],"stateMutability":"view"},{"type":"function","name":"bid","inputs":[{"name":"price","type":"uint256","internalType":"uint256"},{"name":"idx","type":"uint256","internalType":"uint256"}],"outputs":[],"stateMutability":"payable"},{"type":"function","name":"createAuction","inputs":[{"name":"_duration","type":"uint256","internalType":"uint256"},{"name":"_startingPrice","type":"uint256","internalType":"uint256"},{"name":"_name","type":"string","internalType":"string"},{"name":"_description","type":"string","internalType":"string"},{"name":"_url","type":"string","internalType":"string"},{"name":"_delay_time","type":"uint256","internalType":"uint256"}],"outputs":[],"stateMutability":"payable"},{"type":"function","name":"getAcutions","inputs":[],"outputs":[{"name":"","type":"tuple[]","internalType":"struct AuctionManager.AuctionItemStruct[]","components":[{"name":"duration","type":"uint256","internalType":"uint256"},{"name":"max_price","type":"uint256","internalType":"uint256"},{"name":"name","type":"string","internalType":"string"},{"name":"description","type":"string","internalType":"string"},{"name":"url","type":"string","internalType":"string"},{"name":"expire_at","type":"uint256","internalType":"uint256"},{"name":"owner","type":"address","internalType":"address"},{"name":"token_id","type":"uint256","internalType":"uint256"},{"name":"status","type":"uint256","internalType":"uint256"}]}],"stateMutability":"view"},{"type":"function","name":"getCertainAcutions","inputs":[{"name":"idx","type":"uint256","internalType":"uint256"}],"outputs":[{"name":"","type":"tuple","internalType":"struct AuctionManager.AuctionItemStruct","components":[{"name":"duration","type":"uint256","internalType":"uint256"},{"name":"max_price","type":"uint256","internalType":"uint256"},{"name":"name","type":"string","internalType":"string"},{"name":"description","type":"string","internalType":"string"},{"name":"url","type":"string","internalType":"string"},{"name":"expire_at","type":"uint256","internalType":"uint256"},{"name":"owner","type":"address","internalType":"address"},{"name":"token_id","type":"uint256","internalType":"uint256"},{"name":"status","type":"uint256","internalType":"uint256"}]}],"stateMutability":"view"},{"type":"function","name":"startAuction","inputs":[{"name":"idx","type":"uint256","internalType":"uint256"}],"outputs":[],"stateMutability":"nonpayable"},{"type":"event","name":"AuctionCreated","inputs":[{"name":"auctionAddress","type":"address","indexed":false,"internalType":"address"},{"name":"name","type":"string","indexed":false,"internalType":"string"}],"anonymous":false}],"bytecode":{"object":"0x6080604052348015600f57600080fd5b506123c68061001f6000396000f3fe6080604052600436106100705760003560e01c806384854e2a1161004e57806384854e2a146100d55780639ae61f57146100e8578063c079c24014610115578063d92623a31461014d57600080fd5b8063065de74c1461007557806323c4757a14610097578063598647f8146100c2575b600080fd5b34801561008157600080fd5b50610095610090366004610e85565b610183565b005b3480156100a357600080fd5b506100ac6101f3565b6040516100b99190610f94565b60405180910390f35b6100956100d0366004610ff9565b61068b565b6100956100e33660046110e0565b610872565b3480156100f457600080fd5b50610108610103366004610e85565b610a04565b6040516100b99190611192565b34801561012157600080fd5b50610135610130366004610e85565b610df9565b6040516001600160a01b0390911681526020016100b9565b34801561015957600080fd5b50610135610168366004610e85565b6001602052600090815260409020546001600160a01b031681565b60008181526001602052604090819020549051634075fa0f60e01b81523360048201526001600160a01b03909116908190634075fa0f90602401600060405180830381600087803b1580156101d757600080fd5b505af11580156101eb573d6000803e3d6000fd5b505050505050565b600080546060919067ffffffffffffffff8111156102135761021361101b565b60405190808252806020026020018201604052801561024c57816020015b610239610e23565b8152602001906001900390816102315790505b50905060005b600054811015610685576000808281548110610270576102706111ac565b9060005260206000200160009054906101000a90046001600160a01b03169050604051806101200160405280826001600160a01b0316630fb5a6b46040518163ffffffff1660e01b8152600401602060405180830381865afa1580156102da573d6000803e3d6000fd5b505050506040513d601f19601f820116820180604052508101906102fe91906111c2565b8152602001826001600160a01b031663c5467e616040518163ffffffff1660e01b8152600401602060405180830381865afa158015610341573d6000803e3d6000fd5b505050506040513d601f19601f8201168201806040525081019061036591906111c2565b8152602001826001600160a01b03166306fdde036040518163ffffffff1660e01b8152600401600060405180830381865afa1580156103a8573d6000803e3d6000fd5b505050506040513d6000823e601f3d908101601f191682016040526103d091908101906111db565b8152602001826001600160a01b0316637284e4166040518163ffffffff1660e01b8152600401600060405180830381865afa158015610413573d6000803e3d6000fd5b505050506040513d6000823e601f3d908101601f1916820160405261043b91908101906111db565b8152602001826001600160a01b0316635600f04f6040518163ffffffff1660e01b8152600401600060405180830381865afa15801561047e573d6000803e3d6000fd5b505050506040513d6000823e601f3d908101601f191682016040526104a691908101906111db565b8152602001826001600160a01b0316631998cd1d6040518163ffffffff1660e01b8152600401602060405180830381865afa1580156104e9573d6000803e3d6000fd5b505050506040513d601f19601f8201168201806040525081019061050d91906111c2565b8152602001826001600160a01b0316638da5cb5b6040518163ffffffff1660e01b8152600401602060405180830381865afa158015610550573d6000803e3d6000fd5b505050506040513d601f19601f820116820180604052508101906105749190611252565b6001600160a01b03168152602001826001600160a01b031663d56681316040518163ffffffff1660e01b8152600401602060405180830381865afa1580156105c0573d6000803e3d6000fd5b505050506040513d601f19601f820116820180604052508101906105e491906111c2565b8152602001826001600160a01b0316637fb450996040518163ffffffff1660e01b8152600401602060405180830381865afa158015610627573d6000803e3d6000fd5b505050506040513d601f19601f8201168201806040525081019061064b919061127b565b600281111561065c5761065c61129c565b815250838381518110610671576106716111ac565b602090810291909101015250600101610252565b50919050565b600082116106e05760405162461bcd60e51b815260206004820152601960248201527f70726963652063616e206e6f74206c657373207468616e20300000000000000060448201526064015b60405180910390fd5b3482146107395760405162461bcd60e51b815260206004820152602160248201527f70726963652076616c7565206973206e6f742073616d6520617320726566756e6044820152601960fa1b60648201526084016106d7565b60008181526001602090815260409182902054825163c5467e6160e01b815292516001600160a01b0390911692839263c5467e61926004808401938290030181865afa15801561078d573d6000803e3d6000fd5b505050506040513d601f19601f820116820180604052508101906107b191906111c2565b831161080b5760405162461bcd60e51b8152602060048201526024808201527f70726963652063616e206f72206c657373207468616e2063757272656e7420706044820152637269636560e01b60648201526084016106d7565b604051633de56a8160e21b8152336004820152602481018490526001600160a01b0382169063f795aa049085906044016000604051808303818588803b15801561085457600080fd5b505af1158015610868573d6000803e3d6000fd5b5050505050505050565b851561087e5785610881565b60025b9550841561088f5784610895565b6305f5e1005b945083516000146108a657836108cc565b6040518060400160405280600c81526020016b61756374696f6e206974656d60a01b8152505b935082516000146108dd57826108fe565b604051806040016040528060078152602001666e6f7468696e6760c81b8152505b9250815160001461090f5781610929565b6040518060600160405280603a8152602001612357603a91395b91508015610937578061093b565b61012c5b600080549192509061094e9060016112b2565b9050600086888888888887893360405161096790610e78565b6109789897969594939291906112d9565b6040518091039082f0905080158015610995573d6000803e3d6000fd5b506000928352600160208190526040842080546001600160a01b039093166001600160a01b03199384168117909155845491820185559380527f290decd9548b62a8d60345a988386fc84ba6bc95484008f6362f93160ef3e56301805490911690921790915550505050505050565b610a0c610e23565b600082815260016020908152604080832054815161012081018084526303ed69ad60e21b905291516001600160a01b03909116939282918591630fb5a6b4916101248086019291908187030181865afa158015610a6d573d6000803e3d6000fd5b505050506040513d601f19601f82011682018060405250810190610a9191906111c2565b8152602001836001600160a01b031663c5467e616040518163ffffffff1660e01b8152600401602060405180830381865afa158015610ad4573d6000803e3d6000fd5b505050506040513d601f19601f82011682018060405250810190610af891906111c2565b8152602001836001600160a01b03166306fdde036040518163ffffffff1660e01b8152600401600060405180830381865afa158015610b3b573d6000803e3d6000fd5b505050506040513d6000823e601f3d908101601f19168201604052610b6391908101906111db565b8152602001836001600160a01b0316637284e4166040518163ffffffff1660e01b8152600401600060405180830381865afa158015610ba6573d6000803e3d6000fd5b505050506040513d6000823e601f3d908101601f19168201604052610bce91908101906111db565b8152602001836001600160a01b0316635600f04f6040518163ffffffff1660e01b8152600401600060405180830381865afa158015610c11573d6000803e3d6000fd5b505050506040513d6000823e601f3d908101601f19168201604052610c3991908101906111db565b8152602001836001600160a01b0316631998cd1d6040518163ffffffff1660e01b8152600401602060405180830381865afa158015610c7c573d6000803e3d6000fd5b505050506040513d601f19601f82011682018060405250810190610ca091906111c2565b8152602001836001600160a01b0316638da5cb5b6040518163ffffffff1660e01b8152600401602060405180830381865afa158015610ce3573d6000803e3d6000fd5b505050506040513d601f19601f82011682018060405250810190610d079190611252565b6001600160a01b03168152602001836001600160a01b031663d56681316040518163ffffffff1660e01b8152600401602060405180830381865afa158015610d53573d6000803e3d6000fd5b505050506040513d601f19601f82011682018060405250810190610d7791906111c2565b8152602001836001600160a01b0316637fb450996040518163ffffffff1660e01b8152600401602060405180830381865afa158015610dba573d6000803e3d6000fd5b505050506040513d601f19601f82011682018060405250810190610dde919061127b565b6002811115610def57610def61129c565b9052949350505050565b60008181548110610e0957600080fd5b6000918252602090912001546001600160a01b0316905081565b60405180610120016040528060008152602001600081526020016060815260200160608152602001606081526020016000815260200160006001600160a01b0316815260200160008152602001600081525090565b61100c8061134b83390190565b600060208284031215610e9757600080fd5b5035919050565b60005b83811015610eb9578181015183820152602001610ea1565b50506000910152565b60008151808452610eda816020860160208601610e9e565b601f01601f19169290920160200192915050565b8051825260208101516020830152600060408201516101206040850152610f19610120850182610ec2565b905060608301518482036060860152610f328282610ec2565b91505060808301518482036080860152610f4c8282610ec2565b91505060a083015160a085015260c0830151610f7360c08601826001600160a01b03169052565b5060e083015160e08501526101008301516101008501528091505092915050565b6000602082016020835280845180835260408501915060408160051b86010192506020860160005b82811015610fed57603f19878603018452610fd8858351610eee565b94506020938401939190910190600101610fbc565b50929695505050505050565b6000806040838503121561100c57600080fd5b50508035926020909101359150565b634e487b7160e01b600052604160045260246000fd5b604051601f8201601f1916810167ffffffffffffffff8111828210171561105a5761105a61101b565b604052919050565b600067ffffffffffffffff82111561107c5761107c61101b565b50601f01601f191660200190565b600082601f83011261109b57600080fd5b81356110ae6110a982611062565b611031565b8181528460208386010111156110c357600080fd5b816020850160208301376000918101602001919091529392505050565b60008060008060008060c087890312156110f957600080fd5b8635955060208701359450604087013567ffffffffffffffff81111561111e57600080fd5b61112a89828a0161108a565b945050606087013567ffffffffffffffff81111561114757600080fd5b61115389828a0161108a565b935050608087013567ffffffffffffffff81111561117057600080fd5b61117c89828a0161108a565b9699959850939692959460a09093013593505050565b6020815260006111a56020830184610eee565b9392505050565b634e487b7160e01b600052603260045260246000fd5b6000602082840312156111d457600080fd5b5051919050565b6000602082840312156111ed57600080fd5b815167ffffffffffffffff81111561120457600080fd5b8201601f8101841361121557600080fd5b80516112236110a982611062565b81815285602083850101111561123857600080fd5b611249826020830160208601610e9e565b95945050505050565b60006020828403121561126457600080fd5b81516001600160a01b03811681146111a557600080fd5b60006020828403121561128d57600080fd5b8151600381106111a557600080fd5b634e487b7160e01b600052602160045260246000fd5b808201808211156112d357634e487b7160e01b600052601160045260246000fd5b92915050565b888152876020820152610100604082015260006112fa610100830189610ec2565b828103606084015261130c8189610ec2565b905082810360808401526113208188610ec2565b60a0840196909652505060c08101929092526001600160a01b031660e0909101529594505050505056fe60806040526202a30060005561012c60085561012c60095560405161100c38038061100c833981016040819052610035916101b1565b6000889055600487905542600b556100508862015180610297565b600b5461005d91906102b4565b600c55600580546001600160a01b0319166001600160a01b0383161790556009829055600261008c8782610350565b5060016100998682610350565b5060036100a68582610350565b50600d80546001600160a01b0392909216610100026001600160a81b031990921691909117905550600a555061040e9350505050565b634e487b7160e01b600052604160045260246000fd5b600082601f83011261010357600080fd5b81516001600160401b0381111561011c5761011c6100dc565b604051601f8201601f19908116603f011681016001600160401b038111828210171561014a5761014a6100dc565b60405281815283820160200185101561016257600080fd5b60005b8281101561018157602081860181015183830182015201610165565b506000918101602001919091529392505050565b80516001600160a01b03811681146101ac57600080fd5b919050565b600080600080600080600080610100898b0312156101ce57600080fd5b885160208a015160408b015191995097506001600160401b038111156101f357600080fd5b6101ff8b828c016100f2565b60608b015190975090506001600160401b0381111561021d57600080fd5b6102298b828c016100f2565b60808b015190965090506001600160401b0381111561024757600080fd5b6102538b828c016100f2565b60a08b015160c08c015191965094509250610272905060e08a01610195565b90509295985092959890939650565b634e487b7160e01b600052601160045260246000fd5b80820281158282048414176102ae576102ae610281565b92915050565b808201808211156102ae576102ae610281565b600181811c908216806102db57607f821691505b6020821081036102fb57634e487b7160e01b600052602260045260246000fd5b50919050565b601f82111561034b57806000526020600020601f840160051c810160208510156103285750805b601f840160051c820191505b818110156103485760008155600101610334565b50505b505050565b81516001600160401b03811115610369576103696100dc565b61037d8161037784546102c7565b84610301565b6020601f8211600181146103b157600083156103995750848201515b600019600385901b1c1916600184901b178455610348565b600084815260208120601f198516915b828110156103e157878501518255602094850194600190920191016103c1565b50848210156103ff5786840151600019600387901b60f8161c191681555b50505050600190811b01905550565b610bef8061041d6000396000f3fe6080604052600436106100f35760003560e01c80635600f04f1161008a578063c5467e6111610059578063c5467e611461027f578063d566813114610295578063d57bde79146102ab578063f795aa04146102c057600080fd5b80635600f04f146102095780637284e4161461021e5780637fb45099146102335780638da5cb5b1461025a57600080fd5b80631998cd1d116100c65780631998cd1d146101915780632872abbc146101a75780634075fa0f146101c957806351cff8d9146101e957600080fd5b80630195b22a146100f857806306fdde03146101355780630912465d146101575780630fb5a6b41461017b575b600080fd5b34801561010457600080fd5b50600554610118906001600160a01b031681565b6040516001600160a01b0390911681526020015b60405180910390f35b34801561014157600080fd5b5061014a6102d3565b60405161012c9190610a49565b34801561016357600080fd5b5061016d600b5481565b60405190815260200161012c565b34801561018757600080fd5b5061016d60005481565b34801561019d57600080fd5b5061016d600c5481565b3480156101b357600080fd5b506101c76101c2366004610ab3565b610361565b005b3480156101d557600080fd5b506101c76101e4366004610ab3565b610560565b3480156101f557600080fd5b506101c7610204366004610ab3565b61064a565b34801561021557600080fd5b5061014a610750565b34801561022a57600080fd5b5061014a61075d565b34801561023f57600080fd5b50600d5461024d9060ff1681565b60405161012c9190610aeb565b34801561026657600080fd5b50600d546101189061010090046001600160a01b031681565b34801561028b57600080fd5b5061016d60045481565b3480156102a157600080fd5b5061016d600a5481565b3480156102b757600080fd5b5060045461016d565b6101c76102ce366004610b13565b61076a565b600280546102e090610b3d565b80601f016020809104026020016040519081016040528092919081815260200182805461030c90610b3d565b80156103595780601f1061032e57610100808354040283529160200191610359565b820191906000526020600020905b81548152906001019060200180831161033c57829003601f168201915b505050505081565b600d546001600160a01b0382811661010090920416146103c85760405162461bcd60e51b815260206004820152601960248201527f74686973206973206e6f742062656c6f6e6720746f20796f750000000000000060448201526064015b60405180910390fd5b600c5442116104105760405162461bcd60e51b8152602060048201526014602482015273185d58dd1a5bdb881a5cc81b9bdd08195b99195960621b60448201526064016103bf565b6001600d5460ff16600281111561042957610429610ad5565b1461046f5760405162461bcd60e51b815260206004820152601660248201527520bab1ba34b7b71034b9903737ba1030b1ba34bb329760511b60448201526064016103bf565b600d805460ff1916600217908190556004546040516000926001600160a01b036101009091041691908381818185875af1925050503d80600081146104d0576040519150601f19603f3d011682016040523d82523d6000602084013e6104d5565b606091505b50509050806105175760405162461bcd60e51b815260206004820152600e60248201526d7472616e73666572206661696c6560901b60448201526064016103bf565b6005546004546040519081526001600160a01b03909116907fdaec4582d5d9595688c8c98545fdd1c696d41c6aeaeb636737e84ed2f5c00eda9060200160405180910390a25050565b600d546001600160a01b0382811661010090920416146105c25760405162461bcd60e51b815260206004820152601760248201527f6f6e6c79206f6e7765722063616e20737461727420697400000000000000000060448201526064016103bf565b6000600d5460ff1660028111156105db576105db610ad5565b146106365760405162461bcd60e51b815260206004820152602560248201527f41756374696f6e2068617320616c72656164792073746172746564206f722065604482015264373232b21760d91b60648201526084016103bf565b50600d805460ff1916600117905542600b55565b6001600160a01b038116600090815260076020526040902054806106a75760405162461bcd60e51b81526020600482015260146024820152734e6f2066756e647320746f20776974686472617760601b60448201526064016103bf565b6001600160a01b0382166000818152600760205260408082208290555190919083908381818185875af1925050503d8060008114610701576040519150601f19603f3d011682016040523d82523d6000602084013e610706565b606091505b505090508061074b5760405162461bcd60e51b815260206004820152601160248201527015da5d1a191c985dd85b0819985a5b1959607a1b60448201526064016103bf565b505050565b600380546102e090610b3d565b600180546102e090610b3d565b6001600d5460ff16600281111561078357610783610ad5565b146107c95760405162461bcd60e51b815260206004820152601660248201527520bab1ba34b7b71034b9903737ba1030b1ba34bb329760511b60448201526064016103bf565b600b54421161081a5760405162461bcd60e51b815260206004820152601860248201527f7468652061756374696f6e206973206e6f74207374617274000000000000000060448201526064016103bf565b600c5442106108625760405162461bcd60e51b81526020600482015260146024820152731d1a1948185b98dd1a5bdb881a5cc8195b99195960621b60448201526064016103bf565b60045481116108bf5760405162461bcd60e51b8152602060048201526024808201527f7072696365206d75737420686967686572207468616e2063757272656e7420706044820152637269636560e01b60648201526084016103bf565b6008546001600160a01b0383166000908152600660205260409020546108e59042610b8d565b1161094d5760405162461bcd60e51b815260206004820152603260248201527f63616c6c20646f776e2c20796f7520626964696e67206a757374206e6f772c206044820152713a393c9034ba101a9036b4b7103630ba32b960711b60648201526084016103bf565b60095442600c5461095e9190610b8d565b101561097857600954600c546109749190610ba6565b600c555b6005546001600160a01b0316158015906109a057506005546001600160a01b03838116911614155b156109d8576004546005546001600160a01b0316600090815260076020526040812080549091906109d2908490610ba6565b90915550505b6004819055600580546001600160a01b0319166001600160a01b038416908117909155600081815260066020908152604091829020429055815192835282018390527fad39847edbff9b525a524a14bdea0ffc8ba7b93fca296e09a5147991599e8e56910160405180910390a15050565b602081526000825180602084015260005b81811015610a775760208186018101516040868401015201610a5a565b506000604082850101526040601f19601f83011684010191505092915050565b80356001600160a01b0381168114610aae57600080fd5b919050565b600060208284031215610ac557600080fd5b610ace82610a97565b9392505050565b634e487b7160e01b600052602160045260246000fd5b6020810160038310610b0d57634e487b7160e01b600052602160045260246000fd5b91905290565b60008060408385031215610b2657600080fd5b610b2f83610a97565b946020939093013593505050565b600181811c90821680610b5157607f821691505b602082108103610b7157634e487b7160e01b600052602260045260246000fd5b50919050565b634e487b7160e01b600052601160045260246000fd5b81810381811115610ba057610ba0610b77565b92915050565b80820180821115610ba057610ba0610b7756fea2646970667358221220561ee27b040b0a948a57c8da0d8cf4fa6f2a0d947ea01f73190079fcadd293e164736f6c634300081b003368747470733a2f2f7069632e3631367069632e636f6d2f79735f626e65775f696d672f30302f30362f36342f4b71344a6d7a6d4453532e6a7067a26469706673582212208ff6b82189b8a2dfc31f3ddd1a8ccdf232a13fdf099ee658fc2d41bc8d6f52ab64736f6c634300081b0033","linkReferences":{}},"methodIdentifiers":{"auctionMap(uint256)":"d92623a3","auctionitems(uint256)":"c079c240","bid(uint256,uint256)":"598647f8","createAuction(uint256,uint256,string,string,string,uint256)":"84854e2a","getAcutions()":"23c4757a","getCertainAcutions(uint256)":"9ae61f57","startAuction(uint256)":"065de74c"},"id":23}