{"abi":[{"type":"constructor","inputs":[{"name":"_duration","type":"uint256","internalType":"uint256"},{"name":"_startingPrice","type":"uint256","internalType":"uint256"},{"name":"_name","type":"string","internalType":"string"},{"name":"_description","type":"string","internalType":"string"},{"name":"_url","type":"string","internalType":"string"},{"name":"_token_id","type":"uint256","internalType":"uint256"},{"name":"_delay_time","type":"uint256","internalType":"uint256"},{"name":"creater","type":"address","internalType":"address payable"}],"stateMutability":"payable"},{"type":"function","name":"auctionState","inputs":[],"outputs":[{"name":"","type":"uint8","internalType":"enum AuctionItem.AuctionState"}],"stateMutability":"view"},{"type":"function","name":"bidding","inputs":[{"name":"sender","type":"address","internalType":"address"},{"name":"price","type":"uint256","internalType":"uint256"}],"outputs":[],"stateMutability":"payable"},{"type":"function","name":"current_bid","inputs":[],"outputs":[{"name":"","type":"uint256","internalType":"uint256"}],"stateMutability":"view"},{"type":"function","name":"current_max_bidder","inputs":[],"outputs":[{"name":"","type":"address","internalType":"address payable"}],"stateMutability":"view"},{"type":"function","name":"description","inputs":[],"outputs":[{"name":"","type":"string","internalType":"string"}],"stateMutability":"view"},{"type":"function","name":"duration","inputs":[],"outputs":[{"name":"","type":"uint256","internalType":"uint256"}],"stateMutability":"view"},{"type":"function","name":"endAuction","inputs":[{"name":"ender","type":"address","internalType":"address"}],"outputs":[],"stateMutability":"nonpayable"},{"type":"function","name":"expire_at","inputs":[],"outputs":[{"name":"","type":"uint256","internalType":"uint256"}],"stateMutability":"view"},{"type":"function","name":"highestBid","inputs":[],"outputs":[{"name":"","type":"uint256","internalType":"uint256"}],"stateMutability":"view"},{"type":"function","name":"name","inputs":[],"outputs":[{"name":"","type":"string","internalType":"string"}],"stateMutability":"view"},{"type":"function","name":"owner","inputs":[],"outputs":[{"name":"","type":"address","internalType":"address payable"}],"stateMutability":"view"},{"type":"function","name":"startAuction","inputs":[{"name":"_starter","type":"address","internalType":"address"}],"outputs":[],"stateMutability":"nonpayable"},{"type":"function","name":"start_at","inputs":[],"outputs":[{"name":"","type":"uint256","internalType":"uint256"}],"stateMutability":"view"},{"type":"function","name":"token_id","inputs":[],"outputs":[{"name":"","type":"uint256","internalType":"uint256"}],"stateMutability":"view"},{"type":"function","name":"url","inputs":[],"outputs":[{"name":"","type":"string","internalType":"string"}],"stateMutability":"view"},{"type":"function","name":"withdraw","inputs":[{"name":"drawer","type":"address","internalType":"address"}],"outputs":[],"stateMutability":"nonpayable"},{"type":"event","name":"AuctionEnded","inputs":[{"name":"winner","type":"address","indexed":true,"internalType":"address"},{"name":"winningBid","type":"uint256","indexed":false,"internalType":"uint256"}],"anonymous":false},{"type":"event","name":"Bidding_msg","inputs":[{"name":"addr","type":"address","indexed":false,"internalType":"address"},{"name":"price","type":"uint256","indexed":false,"internalType":"uint256"}],"anonymous":false}],"bytecode":{"object":"0x60806040526202a30060005561012c60085561012c60095560405161100c38038061100c833981016040819052610035916101b1565b6000889055600487905542600b556100508862015180610297565b600b5461005d91906102b4565b600c55600580546001600160a01b0319166001600160a01b0383161790556009829055600261008c8782610350565b5060016100998682610350565b5060036100a68582610350565b50600d80546001600160a01b0392909216610100026001600160a81b031990921691909117905550600a555061040e9350505050565b634e487b7160e01b600052604160045260246000fd5b600082601f83011261010357600080fd5b81516001600160401b0381111561011c5761011c6100dc565b604051601f8201601f19908116603f011681016001600160401b038111828210171561014a5761014a6100dc565b60405281815283820160200185101561016257600080fd5b60005b8281101561018157602081860181015183830182015201610165565b506000918101602001919091529392505050565b80516001600160a01b03811681146101ac57600080fd5b919050565b600080600080600080600080610100898b0312156101ce57600080fd5b885160208a015160408b015191995097506001600160401b038111156101f357600080fd5b6101ff8b828c016100f2565b60608b015190975090506001600160401b0381111561021d57600080fd5b6102298b828c016100f2565b60808b015190965090506001600160401b0381111561024757600080fd5b6102538b828c016100f2565b60a08b015160c08c015191965094509250610272905060e08a01610195565b90509295985092959890939650565b634e487b7160e01b600052601160045260246000fd5b80820281158282048414176102ae576102ae610281565b92915050565b808201808211156102ae576102ae610281565b600181811c908216806102db57607f821691505b6020821081036102fb57634e487b7160e01b600052602260045260246000fd5b50919050565b601f82111561034b57806000526020600020601f840160051c810160208510156103285750805b601f840160051c820191505b818110156103485760008155600101610334565b50505b505050565b81516001600160401b03811115610369576103696100dc565b61037d8161037784546102c7565b84610301565b6020601f8211600181146103b157600083156103995750848201515b600019600385901b1c1916600184901b178455610348565b600084815260208120601f198516915b828110156103e157878501518255602094850194600190920191016103c1565b50848210156103ff5786840151600019600387901b60f8161c191681555b50505050600190811b01905550565b610bef8061041d6000396000f3fe6080604052600436106100f35760003560e01c80635600f04f1161008a578063c5467e6111610059578063c5467e611461027f578063d566813114610295578063d57bde79146102ab578063f795aa04146102c057600080fd5b80635600f04f146102095780637284e4161461021e5780637fb45099146102335780638da5cb5b1461025a57600080fd5b80631998cd1d116100c65780631998cd1d146101915780632872abbc146101a75780634075fa0f146101c957806351cff8d9146101e957600080fd5b80630195b22a146100f857806306fdde03146101355780630912465d146101575780630fb5a6b41461017b575b600080fd5b34801561010457600080fd5b50600554610118906001600160a01b031681565b6040516001600160a01b0390911681526020015b60405180910390f35b34801561014157600080fd5b5061014a6102d3565b60405161012c9190610a49565b34801561016357600080fd5b5061016d600b5481565b60405190815260200161012c565b34801561018757600080fd5b5061016d60005481565b34801561019d57600080fd5b5061016d600c5481565b3480156101b357600080fd5b506101c76101c2366004610ab3565b610361565b005b3480156101d557600080fd5b506101c76101e4366004610ab3565b610560565b3480156101f557600080fd5b506101c7610204366004610ab3565b61064a565b34801561021557600080fd5b5061014a610750565b34801561022a57600080fd5b5061014a61075d565b34801561023f57600080fd5b50600d5461024d9060ff1681565b60405161012c9190610aeb565b34801561026657600080fd5b50600d546101189061010090046001600160a01b031681565b34801561028b57600080fd5b5061016d60045481565b3480156102a157600080fd5b5061016d600a5481565b3480156102b757600080fd5b5060045461016d565b6101c76102ce366004610b13565b61076a565b600280546102e090610b3d565b80601f016020809104026020016040519081016040528092919081815260200182805461030c90610b3d565b80156103595780601f1061032e57610100808354040283529160200191610359565b820191906000526020600020905b81548152906001019060200180831161033c57829003601f168201915b505050505081565b600d546001600160a01b0382811661010090920416146103c85760405162461bcd60e51b815260206004820152601960248201527f74686973206973206e6f742062656c6f6e6720746f20796f750000000000000060448201526064015b60405180910390fd5b600c5442116104105760405162461bcd60e51b8152602060048201526014602482015273185d58dd1a5bdb881a5cc81b9bdd08195b99195960621b60448201526064016103bf565b6001600d5460ff16600281111561042957610429610ad5565b1461046f5760405162461bcd60e51b815260206004820152601660248201527520bab1ba34b7b71034b9903737ba1030b1ba34bb329760511b60448201526064016103bf565b600d805460ff1916600217908190556004546040516000926001600160a01b036101009091041691908381818185875af1925050503d80600081146104d0576040519150601f19603f3d011682016040523d82523d6000602084013e6104d5565b606091505b50509050806105175760405162461bcd60e51b815260206004820152600e60248201526d7472616e73666572206661696c6560901b60448201526064016103bf565b6005546004546040519081526001600160a01b03909116907fdaec4582d5d9595688c8c98545fdd1c696d41c6aeaeb636737e84ed2f5c00eda9060200160405180910390a25050565b600d546001600160a01b0382811661010090920416146105c25760405162461bcd60e51b815260206004820152601760248201527f6f6e6c79206f6e7765722063616e20737461727420697400000000000000000060448201526064016103bf565b6000600d5460ff1660028111156105db576105db610ad5565b146106365760405162461bcd60e51b815260206004820152602560248201527f41756374696f6e2068617320616c72656164792073746172746564206f722065604482015264373232b21760d91b60648201526084016103bf565b50600d805460ff1916600117905542600b55565b6001600160a01b038116600090815260076020526040902054806106a75760405162461bcd60e51b81526020600482015260146024820152734e6f2066756e647320746f20776974686472617760601b60448201526064016103bf565b6001600160a01b0382166000818152600760205260408082208290555190919083908381818185875af1925050503d8060008114610701576040519150601f19603f3d011682016040523d82523d6000602084013e610706565b606091505b505090508061074b5760405162461bcd60e51b815260206004820152601160248201527015da5d1a191c985dd85b0819985a5b1959607a1b60448201526064016103bf565b505050565b600380546102e090610b3d565b600180546102e090610b3d565b6001600d5460ff16600281111561078357610783610ad5565b146107c95760405162461bcd60e51b815260206004820152601660248201527520bab1ba34b7b71034b9903737ba1030b1ba34bb329760511b60448201526064016103bf565b600b54421161081a5760405162461bcd60e51b815260206004820152601860248201527f7468652061756374696f6e206973206e6f74207374617274000000000000000060448201526064016103bf565b600c5442106108625760405162461bcd60e51b81526020600482015260146024820152731d1a1948185b98dd1a5bdb881a5cc8195b99195960621b60448201526064016103bf565b60045481116108bf5760405162461bcd60e51b8152602060048201526024808201527f7072696365206d75737420686967686572207468616e2063757272656e7420706044820152637269636560e01b60648201526084016103bf565b6008546001600160a01b0383166000908152600660205260409020546108e59042610b8d565b1161094d5760405162461bcd60e51b815260206004820152603260248201527f63616c6c20646f776e2c20796f7520626964696e67206a757374206e6f772c206044820152713a393c9034ba101a9036b4b7103630ba32b960711b60648201526084016103bf565b60095442600c5461095e9190610b8d565b101561097857600954600c546109749190610ba6565b600c555b6005546001600160a01b0316158015906109a057506005546001600160a01b03838116911614155b156109d8576004546005546001600160a01b0316600090815260076020526040812080549091906109d2908490610ba6565b90915550505b6004819055600580546001600160a01b0319166001600160a01b038416908117909155600081815260066020908152604091829020429055815192835282018390527fad39847edbff9b525a524a14bdea0ffc8ba7b93fca296e09a5147991599e8e56910160405180910390a15050565b602081526000825180602084015260005b81811015610a775760208186018101516040868401015201610a5a565b506000604082850101526040601f19601f83011684010191505092915050565b80356001600160a01b0381168114610aae57600080fd5b919050565b600060208284031215610ac557600080fd5b610ace82610a97565b9392505050565b634e487b7160e01b600052602160045260246000fd5b6020810160038310610b0d57634e487b7160e01b600052602160045260246000fd5b91905290565b60008060408385031215610b2657600080fd5b610b2f83610a97565b946020939093013593505050565b600181811c90821680610b5157607f821691505b602082108103610b7157634e487b7160e01b600052602260045260246000fd5b50919050565b634e487b7160e01b600052601160045260246000fd5b81810381811115610ba057610ba0610b77565b92915050565b80820180821115610ba057610ba0610b7756fea2646970667358221220561ee27b040b0a948a57c8da0d8cf4fa6f2a0d947ea01f73190079fcadd293e164736f6c634300081b0033","linkReferences":{}},"methodIdentifiers":{"auctionState()":"7fb45099","bidding(address,uint256)":"f795aa04","current_bid()":"c5467e61","current_max_bidder()":"0195b22a","description()":"7284e416","duration()":"0fb5a6b4","endAuction(address)":"2872abbc","expire_at()":"1998cd1d","highestBid()":"d57bde79","name()":"06fdde03","owner()":"8da5cb5b","startAuction(address)":"4075fa0f","start_at()":"0912465d","token_id()":"d5668131","url()":"5600f04f","withdraw(address)":"51cff8d9"},"id":22}