{"abi":[{"type":"constructor","inputs":[{"name":"_initPrice","type":"uint256","internalType":"uint256"}],"stateMutability":"nonpayable"},{"type":"function","name":"bidding","inputs":[],"outputs":[],"stateMutability":"payable"},{"type":"function","name":"endAuction","inputs":[],"outputs":[],"stateMutability":"nonpayable"},{"type":"function","name":"highestBid","inputs":[],"outputs":[{"name":"","type":"uint256","internalType":"uint256"}],"stateMutability":"view"},{"type":"function","name":"owner","inputs":[],"outputs":[{"name":"","type":"address","internalType":"address"}],"stateMutability":"view"},{"type":"function","name":"renounceOwnership","inputs":[],"outputs":[],"stateMutability":"nonpayable"},{"type":"function","name":"transferOwnership","inputs":[{"name":"newOwner","type":"address","internalType":"address"}],"outputs":[],"stateMutability":"nonpayable"},{"type":"event","name":"AuctionEnded","inputs":[{"name":"winner","type":"address","indexed":true,"internalType":"address"},{"name":"winningBid","type":"uint256","indexed":false,"internalType":"uint256"}],"anonymous":false},{"type":"event","name":"Bidding_msg","inputs":[{"name":"addr","type":"address","indexed":false,"internalType":"address"},{"name":"price","type":"uint256","indexed":false,"internalType":"uint256"}],"anonymous":false},{"type":"event","name":"OwnershipTransferred","inputs":[{"name":"previousOwner","type":"address","indexed":true,"internalType":"address"},{"name":"newOwner","type":"address","indexed":true,"internalType":"address"}],"anonymous":false},{"type":"error","name":"OwnableInvalidOwner","inputs":[{"name":"owner","type":"address","internalType":"address"}]},{"type":"error","name":"OwnableUnauthorizedAccount","inputs":[{"name":"account","type":"address","internalType":"address"}]}],"bytecode":{"object":"0x60c060405262278d0060035534801561001757600080fd5b50604051610711380380610711833981016040819052610036916100e5565b338061005c57604051631e4fbdf760e01b81526000600482015260240160405180910390fd5b61006581610095565b50426080819052600354610078916100fe565b60a052600255600180546001600160a01b03191633179055610125565b600080546001600160a01b038381166001600160a01b0319831681178455604051919092169283917f8be0079c531659141344cd1fd0a4f28419497f9722a3daafe3b4186f6b6457e09190a35050565b6000602082840312156100f757600080fd5b5051919050565b8082018082111561011f57634e487b7160e01b600052601160045260246000fd5b92915050565b60805160a0516105c061015160003960008181610183015261039b0152600061010f01526105c06000f3fe6080604052600436106100555760003560e01c8063715018a61461005a5780638da5cb5b14610071578063d57bde791461009e578063db774c79146100bc578063f2fde38b146100c4578063fe67a54b146100e4575b600080fd5b34801561006657600080fd5b5061006f6100f9565b005b34801561007d57600080fd5b506000546040516001600160a01b0390911681526020015b60405180910390f35b3480156100aa57600080fd5b50600254604051908152602001610095565b61006f61010d565b3480156100d057600080fd5b5061006f6100df36600461055a565b610353565b3480156100f057600080fd5b5061006f610391565b6101016104dd565b61010b600061050a565b565b7f000000000000000000000000000000000000000000000000000000000000000042116101815760405162461bcd60e51b815260206004820152601860248201527f7468652061756374696f6e206973206e6f74207374617274000000000000000060448201526064015b60405180910390fd5b7f000000000000000000000000000000000000000000000000000000000000000042106101e75760405162461bcd60e51b81526020600482015260146024820152731d1a1948185b98dd1a5bdb881a5cc8195b99195960621b6044820152606401610178565b60025434116102445760405162461bcd60e51b8152602060048201526024808201527f7072696365206d75737420686967686572207468616e2063757272656e7420706044820152637269636560e01b6064820152608401610178565b6004546001600160a01b0316156102fc576004546002546040516000926001600160a01b031691908381818185875af1925050503d80600081146102a4576040519150601f19603f3d011682016040523d82523d6000602084013e6102a9565b606091505b50509050806102fa5760405162461bcd60e51b815260206004820152601d60248201527f526566756e642070726576696f757320626964646572206661696c65640000006044820152606401610178565b505b346002819055600480546001600160a01b031916339081179091556040805191825260208201929092527fad39847edbff9b525a524a14bdea0ffc8ba7b93fca296e09a5147991599e8e56910160405180910390a1565b61035b6104dd565b6001600160a01b03811661038557604051631e4fbdf760e01b815260006004820152602401610178565b61038e8161050a565b50565b6103996104dd565b7f000000000000000000000000000000000000000000000000000000000000000042116103ff5760405162461bcd60e51b8152602060048201526014602482015273185d58dd1a5bdb881a5cc81b9bdd08195b99195960621b6044820152606401610178565b6001546002546040516000926001600160a01b031691908381818185875af1925050503d806000811461044e576040519150601f19603f3d011682016040523d82523d6000602084013e610453565b606091505b50509050806104955760405162461bcd60e51b815260206004820152600e60248201526d7472616e73666572206661696c6560901b6044820152606401610178565b6004546002546040519081526001600160a01b03909116907fdaec4582d5d9595688c8c98545fdd1c696d41c6aeaeb636737e84ed2f5c00eda9060200160405180910390a250565b6000546001600160a01b0316331461010b5760405163118cdaa760e01b8152336004820152602401610178565b600080546001600160a01b038381166001600160a01b0319831681178455604051919092169283917f8be0079c531659141344cd1fd0a4f28419497f9722a3daafe3b4186f6b6457e09190a35050565b60006020828403121561056c57600080fd5b81356001600160a01b038116811461058357600080fd5b939250505056fea264697066735822122070a132674d148013af2889765c03bacc8496953e6fc29f693420eab5875e320f64736f6c634300081b0033","linkReferences":{}},"methodIdentifiers":{"bidding()":"db774c79","endAuction()":"fe67a54b","highestBid()":"d57bde79","owner()":"8da5cb5b","renounceOwnership()":"715018a6","transferOwnership(address)":"f2fde38b"},"id":22}