{
	"data": {
		"bytecode": {
			"linkReferences": {},
			"object": "60806040526202a3005f5561012c60085561012c600955348015610021575f80fd5b506040516120013803806120018339818101604052810190610043919061033b565b875f819055508660048190555042600b819055505f54600b54610066919061046d565b600c819055508060055f6101000a81548173ffffffffffffffffffffffffffffffffffffffff021916908373ffffffffffffffffffffffffffffffffffffffff1602179055508160098190555085600290816100c291906106a4565b5084600190816100d291906106a4565b5083600390816100e291906106a4565b505f600d5f6101000a81548160ff0219169083600281111561010757610106610773565b5b021790555080600d60016101000a81548173ffffffffffffffffffffffffffffffffffffffff021916908373ffffffffffffffffffffffffffffffffffffffff16021790555082600a8190555050505050505050506107a0565b5f604051905090565b5f80fd5b5f80fd5b5f819050919050565b61018481610172565b811461018e575f80fd5b50565b5f8151905061019f8161017b565b92915050565b5f80fd5b5f80fd5b5f601f19601f8301169050919050565b7f4e487b71000000000000000000000000000000000000000000000000000000005f52604160045260245ffd5b6101f3826101ad565b810181811067ffffffffffffffff82111715610212576102116101bd565b5b80604052505050565b5f610224610161565b905061023082826101ea565b919050565b5f67ffffffffffffffff82111561024f5761024e6101bd565b5b610258826101ad565b9050602081019050919050565b8281835e5f83830152505050565b5f61028561028084610235565b61021b565b9050828152602081018484840111156102a1576102a06101a9565b5b6102ac848285610265565b509392505050565b5f82601f8301126102c8576102c76101a5565b5b81516102d8848260208601610273565b91505092915050565b5f73ffffffffffffffffffffffffffffffffffffffff82169050919050565b5f61030a826102e1565b9050919050565b61031a81610300565b8114610324575f80fd5b50565b5f8151905061033581610311565b92915050565b5f805f805f805f80610100898b0312156103585761035761016a565b5b5f6103658b828c01610191565b98505060206103768b828c01610191565b975050604089015167ffffffffffffffff8111156103975761039661016e565b5b6103a38b828c016102b4565b965050606089015167ffffffffffffffff8111156103c4576103c361016e565b5b6103d08b828c016102b4565b955050608089015167ffffffffffffffff8111156103f1576103f061016e565b5b6103fd8b828c016102b4565b94505060a061040e8b828c01610191565b93505060c061041f8b828c01610191565b92505060e06104308b828c01610327565b9150509295985092959890939650565b7f4e487b71000000000000000000000000000000000000000000000000000000005f52601160045260245ffd5b5f61047782610172565b915061048283610172565b925082820190508082111561049a57610499610440565b5b92915050565b5f81519050919050565b7f4e487b71000000000000000000000000000000000000000000000000000000005f52602260045260245ffd5b5f60028204905060018216806104ee57607f821691505b602082108103610501576105006104aa565b5b50919050565b5f819050815f5260205f209050919050565b5f6020601f8301049050919050565b5f82821b905092915050565b5f600883026105637fffffffffffffffffffffffffffffffffffffffffffffffffffffffffffffffff82610528565b61056d8683610528565b95508019841693508086168417925050509392505050565b5f819050919050565b5f6105a86105a361059e84610172565b610585565b610172565b9050919050565b5f819050919050565b6105c18361058e565b6105d56105cd826105af565b848454610534565b825550505050565b5f90565b6105e96105dd565b6105f48184846105b8565b505050565b5b818110156106175761060c5f826105e1565b6001810190506105fa565b5050565b601f82111561065c5761062d81610507565b61063684610519565b81016020851015610645578190505b61065961065185610519565b8301826105f9565b50505b505050565b5f82821c905092915050565b5f61067c5f1984600802610661565b1980831691505092915050565b5f610694838361066d565b9150826002028217905092915050565b6106ad826104a0565b67ffffffffffffffff8111156106c6576106c56101bd565b5b6106d082546104d7565b6106db82828561061b565b5f60209050601f83116001811461070c575f84156106fa578287015190505b6107048582610689565b86555061076b565b601f19841661071a86610507565b5f5b828110156107415784890151825560018201915060208501945060208101905061071c565b8683101561075e578489015161075a601f89168261066d565b8355505b6001600288020188555050505b505050505050565b7f4e487b71000000000000000000000000000000000000000000000000000000005f52602160045260245ffd5b611854806107ad5f395ff3fe6080604052600436106100f2575f3560e01c80635600f04f11610089578063c5467e6111610058578063c5467e61146102e8578063d566813114610312578063d57bde791461033c578063f795aa0414610366576100f2565b80635600f04f146102405780637284e4161461026a5780637fb45099146102945780638da5cb5b146102be576100f2565b80631998cd1d116100c55780631998cd1d1461019e5780632872abbc146101c85780634075fa0f146101f057806351cff8d914610218576100f2565b80630195b22a146100f657806306fdde03146101205780630912465d1461014a5780630fb5a6b414610174575b5f80fd5b348015610101575f80fd5b5061010a610382565b6040516101179190610f2d565b60405180910390f35b34801561012b575f80fd5b506101346103a7565b6040516101419190610fb6565b60405180910390f35b348015610155575f80fd5b5061015e610433565b60405161016b9190610fee565b60405180910390f35b34801561017f575f80fd5b50610188610439565b6040516101959190610fee565b60405180910390f35b3480156101a9575f80fd5b506101b261043e565b6040516101bf9190610fee565b60405180910390f35b3480156101d3575f80fd5b506101ee60048036038101906101e99190611046565b610444565b005b3480156101fb575f80fd5b5061021660048036038101906102119190611046565b6106f8565b005b348015610223575f80fd5b5061023e60048036038101906102399190611046565b610830565b005b34801561024b575f80fd5b506102546109a2565b6040516102619190610fb6565b60405180910390f35b348015610275575f80fd5b5061027e610a2e565b60405161028b9190610fb6565b60405180910390f35b34801561029f575f80fd5b506102a8610aba565b6040516102b591906110e4565b60405180910390f35b3480156102c9575f80fd5b506102d2610acc565b6040516102df9190610f2d565b60405180910390f35b3480156102f3575f80fd5b506102fc610af2565b6040516103099190610fee565b60405180910390f35b34801561031d575f80fd5b50610326610af8565b6040516103339190610fee565b60405180910390f35b348015610347575f80fd5b50610350610afe565b60405161035d9190610fee565b60405180910390f35b610380600480360381019061037b9190611127565b610b07565b005b60055f9054906101000a900473ffffffffffffffffffffffffffffffffffffffff1681565b600280546103b490611192565b80601f01602080910402602001604051908101604052809291908181526020018280546103e090611192565b801561042b5780601f106104025761010080835404028352916020019161042b565b820191905f5260205f20905b81548152906001019060200180831161040e57829003601f168201915b505050505081565b600b5481565b5f5481565b600c5481565b8073ffffffffffffffffffffffffffffffffffffffff16600d60019054906101000a900473ffffffffffffffffffffffffffffffffffffffff1673ffffffffffffffffffffffffffffffffffffffff16146104d4576040517f08c379a00000000000000000000000000000000000000000000000000000000081526004016104cb9061120c565b60405180910390fd5b600c544211610518576040517f08c379a000000000000000000000000000000000000000000000000000000000815260040161050f90611274565b60405180910390fd5b6001600281111561052c5761052b611071565b5b600d5f9054906101000a900460ff16600281111561054d5761054c611071565b5b1461058d576040517f08c379a0000000000000000000000000000000000000000000000000000000008152600401610584906112dc565b60405180910390fd5b6002600d5f6101000a81548160ff021916908360028111156105b2576105b1611071565b5b02179055505f600d60019054906101000a900473ffffffffffffffffffffffffffffffffffffffff1673ffffffffffffffffffffffffffffffffffffffff1660045460405161060090611327565b5f6040518083038185875af1925050503d805f811461063a576040519150601f19603f3d011682016040523d82523d5f602084013e61063f565b606091505b5050905080610683576040517f08c379a000000000000000000000000000000000000000000000000000000000815260040161067a90611385565b60405180910390fd5b60055f9054906101000a900473ffffffffffffffffffffffffffffffffffffffff1673ffffffffffffffffffffffffffffffffffffffff167fdaec4582d5d9595688c8c98545fdd1c696d41c6aeaeb636737e84ed2f5c00eda6004546040516106ec9190610fee565b60405180910390a25050565b600d60019054906101000a900473ffffffffffffffffffffffffffffffffffffffff1673ffffffffffffffffffffffffffffffffffffffff168173ffffffffffffffffffffffffffffffffffffffff1614610788576040517f08c379a000000000000000000000000000000000000000000000000000000000815260040161077f906113ed565b60405180910390fd5b5f600281111561079b5761079a611071565b5b600d5f9054906101000a900460ff1660028111156107bc576107bb611071565b5b146107fc576040517f08c379a00000000000000000000000000000000000000000000000000000000081526004016107f39061147b565b60405180910390fd5b6001600d5f6101000a81548160ff0219169083600281111561082157610820611071565b5b021790555042600b8190555050565b5f60075f8373ffffffffffffffffffffffffffffffffffffffff1673ffffffffffffffffffffffffffffffffffffffff1681526020019081526020015f205490505f81116108b3576040517f08c379a00000000000000000000000000000000000000000000000000000000081526004016108aa906114e3565b60405180910390fd5b5f60075f8473ffffffffffffffffffffffffffffffffffffffff1673ffffffffffffffffffffffffffffffffffffffff1681526020019081526020015f20819055505f8273ffffffffffffffffffffffffffffffffffffffff168260405161091a90611327565b5f6040518083038185875af1925050503d805f8114610954576040519150601f19603f3d011682016040523d82523d5f602084013e610959565b606091505b505090508061099d576040517f08c379a00000000000000000000000000000000000000000000000000000000081526004016109949061154b565b60405180910390fd5b505050565b600380546109af90611192565b80601f01602080910402602001604051908101604052809291908181526020018280546109db90611192565b8015610a265780601f106109fd57610100808354040283529160200191610a26565b820191905f5260205f20905b815481529060010190602001808311610a0957829003601f168201915b505050505081565b60018054610a3b90611192565b80601f0160208091040260200160405190810160405280929190818152602001828054610a6790611192565b8015610ab25780601f10610a8957610100808354040283529160200191610ab2565b820191905f5260205f20905b815481529060010190602001808311610a9557829003601f168201915b505050505081565b600d5f9054906101000a900460ff1681565b600d60019054906101000a900473ffffffffffffffffffffffffffffffffffffffff1681565b60045481565b600a5481565b5f600454905090565b60016002811115610b1b57610b1a611071565b5b600d5f9054906101000a900460ff166002811115610b3c57610b3b611071565b5b14610b7c576040517f08c379a0000000000000000000000000000000000000000000000000000000008152600401610b73906112dc565b60405180910390fd5b600b544211610bc0576040517f08c379a0000000000000000000000000000000000000000000000000000000008152600401610bb7906115b3565b60405180910390fd5b600c544210610c04576040517f08c379a0000000000000000000000000000000000000000000000000000000008152600401610bfb9061161b565b60405180910390fd5b6004548111610c48576040517f08c379a0000000000000000000000000000000000000000000000000000000008152600401610c3f906116a9565b60405180910390fd5b60085460065f8473ffffffffffffffffffffffffffffffffffffffff1673ffffffffffffffffffffffffffffffffffffffff1681526020019081526020015f205442610c9491906116f4565b11610cd4576040517f08c379a0000000000000000000000000000000000000000000000000000000008152600401610ccb90611797565b60405180910390fd5b60095442600c54610ce591906116f4565b1015610d0257600954600c54610cfb91906117b5565b600c819055505b5f73ffffffffffffffffffffffffffffffffffffffff1660055f9054906101000a900473ffffffffffffffffffffffffffffffffffffffff1673ffffffffffffffffffffffffffffffffffffffff1614158015610dac57508173ffffffffffffffffffffffffffffffffffffffff1660055f9054906101000a900473ffffffffffffffffffffffffffffffffffffffff1673ffffffffffffffffffffffffffffffffffffffff1614155b15610e285760045460075f60055f9054906101000a900473ffffffffffffffffffffffffffffffffffffffff1673ffffffffffffffffffffffffffffffffffffffff1673ffffffffffffffffffffffffffffffffffffffff1681526020019081526020015f205f828254610e2091906117b5565b925050819055505b806004819055508160055f6101000a81548173ffffffffffffffffffffffffffffffffffffffff021916908373ffffffffffffffffffffffffffffffffffffffff1602179055504260065f8473ffffffffffffffffffffffffffffffffffffffff1673ffffffffffffffffffffffffffffffffffffffff1681526020019081526020015f20819055507fad39847edbff9b525a524a14bdea0ffc8ba7b93fca296e09a5147991599e8e568282604051610ee29291906117f7565b60405180910390a15050565b5f73ffffffffffffffffffffffffffffffffffffffff82169050919050565b5f610f1782610eee565b9050919050565b610f2781610f0d565b82525050565b5f602082019050610f405f830184610f1e565b92915050565b5f81519050919050565b5f82825260208201905092915050565b8281835e5f83830152505050565b5f601f19601f8301169050919050565b5f610f8882610f46565b610f928185610f50565b9350610fa2818560208601610f60565b610fab81610f6e565b840191505092915050565b5f6020820190508181035f830152610fce8184610f7e565b905092915050565b5f819050919050565b610fe881610fd6565b82525050565b5f6020820190506110015f830184610fdf565b92915050565b5f80fd5b5f61101582610eee565b9050919050565b6110258161100b565b811461102f575f80fd5b50565b5f813590506110408161101c565b92915050565b5f6020828403121561105b5761105a611007565b5b5f61106884828501611032565b91505092915050565b7f4e487b71000000000000000000000000000000000000000000000000000000005f52602160045260245ffd5b600381106110af576110ae611071565b5b50565b5f8190506110bf8261109e565b919050565b5f6110ce826110b2565b9050919050565b6110de816110c4565b82525050565b5f6020820190506110f75f8301846110d5565b92915050565b61110681610fd6565b8114611110575f80fd5b50565b5f81359050611121816110fd565b92915050565b5f806040838503121561113d5761113c611007565b5b5f61114a85828601611032565b925050602061115b85828601611113565b9150509250929050565b7f4e487b71000000000000000000000000000000000000000000000000000000005f52602260045260245ffd5b5f60028204905060018216806111a957607f821691505b6020821081036111bc576111bb611165565b5b50919050565b7f74686973206973206e6f742062656c6f6e6720746f20796f75000000000000005f82015250565b5f6111f6601983610f50565b9150611201826111c2565b602082019050919050565b5f6020820190508181035f830152611223816111ea565b9050919050565b7f61756374696f6e206973206e6f7420656e6465640000000000000000000000005f82015250565b5f61125e601483610f50565b91506112698261122a565b602082019050919050565b5f6020820190508181035f83015261128b81611252565b9050919050565b7f41756374696f6e206973206e6f74206163746976652e000000000000000000005f82015250565b5f6112c6601683610f50565b91506112d182611292565b602082019050919050565b5f6020820190508181035f8301526112f3816112ba565b9050919050565b5f81905092915050565b50565b5f6113125f836112fa565b915061131d82611304565b5f82019050919050565b5f61133182611307565b9150819050919050565b7f7472616e73666572206661696c650000000000000000000000000000000000005f82015250565b5f61136f600e83610f50565b915061137a8261133b565b602082019050919050565b5f6020820190508181035f83015261139c81611363565b9050919050565b7f6f6e6c79206f6e7765722063616e2073746172742069740000000000000000005f82015250565b5f6113d7601783610f50565b91506113e2826113a3565b602082019050919050565b5f6020820190508181035f830152611404816113cb565b9050919050565b7f41756374696f6e2068617320616c72656164792073746172746564206f7220655f8201527f6e6465642e000000000000000000000000000000000000000000000000000000602082015250565b5f611465602583610f50565b91506114708261140b565b604082019050919050565b5f6020820190508181035f83015261149281611459565b9050919050565b7f4e6f2066756e647320746f2077697468647261770000000000000000000000005f82015250565b5f6114cd601483610f50565b91506114d882611499565b602082019050919050565b5f6020820190508181035f8301526114fa816114c1565b9050919050565b7f5769746864726177616c206661696c65640000000000000000000000000000005f82015250565b5f611535601183610f50565b915061154082611501565b602082019050919050565b5f6020820190508181035f83015261156281611529565b9050919050565b7f7468652061756374696f6e206973206e6f7420737461727400000000000000005f82015250565b5f61159d601883610f50565b91506115a882611569565b602082019050919050565b5f6020820190508181035f8301526115ca81611591565b9050919050565b7f74686520616e6374696f6e20697320656e6465640000000000000000000000005f82015250565b5f611605601483610f50565b9150611610826115d1565b602082019050919050565b5f6020820190508181035f830152611632816115f9565b9050919050565b7f7072696365206d75737420686967686572207468616e2063757272656e7420705f8201527f7269636500000000000000000000000000000000000000000000000000000000602082015250565b5f611693602483610f50565b915061169e82611639565b604082019050919050565b5f6020820190508181035f8301526116c081611687565b9050919050565b7f4e487b71000000000000000000000000000000000000000000000000000000005f52601160045260245ffd5b5f6116fe82610fd6565b915061170983610fd6565b9250828203905081811115611721576117206116c7565b5b92915050565b7f63616c6c20646f776e2c20796f7520626964696e67206a757374206e6f772c205f8201527f7472792069742035206d696e206c617465720000000000000000000000000000602082015250565b5f611781603283610f50565b915061178c82611727565b604082019050919050565b5f6020820190508181035f8301526117ae81611775565b9050919050565b5f6117bf82610fd6565b91506117ca83610fd6565b92508282019050808211156117e2576117e16116c7565b5b92915050565b6117f18161100b565b82525050565b5f60408201905061180a5f8301856117e8565b6118176020830184610fdf565b939250505056fea2646970667358221220192c7efb9242a2ac97b8f1d532ca69e77be3bc2c3cd29af3676c224157a9696464736f6c634300081a0033",
			"opcodes": "PUSH1 0x80 PUSH1 0x40 MSTORE PUSH3 0x2A300 PUSH0 SSTORE PUSH2 0x12C PUSH1 0x8 SSTORE PUSH2 0x12C PUSH1 0x9 SSTORE CALLVALUE DUP1 ISZERO PUSH2 0x21 JUMPI PUSH0 DUP1 REVERT JUMPDEST POP PUSH1 0x40 MLOAD PUSH2 0x2001 CODESIZE SUB DUP1 PUSH2 0x2001 DUP4 CODECOPY DUP2 DUP2 ADD PUSH1 0x40 MSTORE DUP2 ADD SWAP1 PUSH2 0x43 SWAP2 SWAP1 PUSH2 0x33B JUMP JUMPDEST DUP8 PUSH0 DUP2 SWAP1 SSTORE POP DUP7 PUSH1 0x4 DUP2 SWAP1 SSTORE POP TIMESTAMP PUSH1 0xB DUP2 SWAP1 SSTORE POP PUSH0 SLOAD PUSH1 0xB SLOAD PUSH2 0x66 SWAP2 SWAP1 PUSH2 0x46D JUMP JUMPDEST PUSH1 0xC DUP2 SWAP1 SSTORE POP DUP1 PUSH1 0x5 PUSH0 PUSH2 0x100 EXP DUP2 SLOAD DUP2 PUSH20 0xFFFFFFFFFFFFFFFFFFFFFFFFFFFFFFFFFFFFFFFF MUL NOT AND SWAP1 DUP4 PUSH20 0xFFFFFFFFFFFFFFFFFFFFFFFFFFFFFFFFFFFFFFFF AND MUL OR SWAP1 SSTORE POP DUP2 PUSH1 0x9 DUP2 SWAP1 SSTORE POP DUP6 PUSH1 0x2 SWAP1 DUP2 PUSH2 0xC2 SWAP2 SWAP1 PUSH2 0x6A4 JUMP JUMPDEST POP DUP5 PUSH1 0x1 SWAP1 DUP2 PUSH2 0xD2 SWAP2 SWAP1 PUSH2 0x6A4 JUMP JUMPDEST POP DUP4 PUSH1 0x3 SWAP1 DUP2 PUSH2 0xE2 SWAP2 SWAP1 PUSH2 0x6A4 JUMP JUMPDEST POP PUSH0 PUSH1 0xD PUSH0 PUSH2 0x100 EXP DUP2 SLOAD DUP2 PUSH1 0xFF MUL NOT AND SWAP1 DUP4 PUSH1 0x2 DUP2 GT ISZERO PUSH2 0x107 JUMPI PUSH2 0x106 PUSH2 0x773 JUMP JUMPDEST JUMPDEST MUL OR SWAP1 SSTORE POP DUP1 PUSH1 0xD PUSH1 0x1 PUSH2 0x100 EXP DUP2 SLOAD DUP2 PUSH20 0xFFFFFFFFFFFFFFFFFFFFFFFFFFFFFFFFFFFFFFFF MUL NOT AND SWAP1 DUP4 PUSH20 0xFFFFFFFFFFFFFFFFFFFFFFFFFFFFFFFFFFFFFFFF AND MUL OR SWAP1 SSTORE POP DUP3 PUSH1 0xA DUP2 SWAP1 SSTORE POP POP POP POP POP POP POP POP POP PUSH2 0x7A0 JUMP JUMPDEST PUSH0 PUSH1 0x40 MLOAD SWAP1 POP SWAP1 JUMP JUMPDEST PUSH0 DUP1 REVERT JUMPDEST PUSH0 DUP1 REVERT JUMPDEST PUSH0 DUP2 SWAP1 POP SWAP2 SWAP1 POP JUMP JUMPDEST PUSH2 0x184 DUP2 PUSH2 0x172 JUMP JUMPDEST DUP2 EQ PUSH2 0x18E JUMPI PUSH0 DUP1 REVERT JUMPDEST POP JUMP JUMPDEST PUSH0 DUP2 MLOAD SWAP1 POP PUSH2 0x19F DUP2 PUSH2 0x17B JUMP JUMPDEST SWAP3 SWAP2 POP POP JUMP JUMPDEST PUSH0 DUP1 REVERT JUMPDEST PUSH0 DUP1 REVERT JUMPDEST PUSH0 PUSH1 0x1F NOT PUSH1 0x1F DUP4 ADD AND SWAP1 POP SWAP2 SWAP1 POP JUMP JUMPDEST PUSH32 0x4E487B7100000000000000000000000000000000000000000000000000000000 PUSH0 MSTORE PUSH1 0x41 PUSH1 0x4 MSTORE PUSH1 0x24 PUSH0 REVERT JUMPDEST PUSH2 0x1F3 DUP3 PUSH2 0x1AD JUMP JUMPDEST DUP2 ADD DUP2 DUP2 LT PUSH8 0xFFFFFFFFFFFFFFFF DUP3 GT OR ISZERO PUSH2 0x212 JUMPI PUSH2 0x211 PUSH2 0x1BD JUMP JUMPDEST JUMPDEST DUP1 PUSH1 0x40 MSTORE POP POP POP JUMP JUMPDEST PUSH0 PUSH2 0x224 PUSH2 0x161 JUMP JUMPDEST SWAP1 POP PUSH2 0x230 DUP3 DUP3 PUSH2 0x1EA JUMP JUMPDEST SWAP2 SWAP1 POP JUMP JUMPDEST PUSH0 PUSH8 0xFFFFFFFFFFFFFFFF DUP3 GT ISZERO PUSH2 0x24F JUMPI PUSH2 0x24E PUSH2 0x1BD JUMP JUMPDEST JUMPDEST PUSH2 0x258 DUP3 PUSH2 0x1AD JUMP JUMPDEST SWAP1 POP PUSH1 0x20 DUP2 ADD SWAP1 POP SWAP2 SWAP1 POP JUMP JUMPDEST DUP3 DUP2 DUP4 MCOPY PUSH0 DUP4 DUP4 ADD MSTORE POP POP POP JUMP JUMPDEST PUSH0 PUSH2 0x285 PUSH2 0x280 DUP5 PUSH2 0x235 JUMP JUMPDEST PUSH2 0x21B JUMP JUMPDEST SWAP1 POP DUP3 DUP2 MSTORE PUSH1 0x20 DUP2 ADD DUP5 DUP5 DUP5 ADD GT ISZERO PUSH2 0x2A1 JUMPI PUSH2 0x2A0 PUSH2 0x1A9 JUMP JUMPDEST JUMPDEST PUSH2 0x2AC DUP5 DUP3 DUP6 PUSH2 0x265 JUMP JUMPDEST POP SWAP4 SWAP3 POP POP POP JUMP JUMPDEST PUSH0 DUP3 PUSH1 0x1F DUP4 ADD SLT PUSH2 0x2C8 JUMPI PUSH2 0x2C7 PUSH2 0x1A5 JUMP JUMPDEST JUMPDEST DUP2 MLOAD PUSH2 0x2D8 DUP5 DUP3 PUSH1 0x20 DUP7 ADD PUSH2 0x273 JUMP JUMPDEST SWAP2 POP POP SWAP3 SWAP2 POP POP JUMP JUMPDEST PUSH0 PUSH20 0xFFFFFFFFFFFFFFFFFFFFFFFFFFFFFFFFFFFFFFFF DUP3 AND SWAP1 POP SWAP2 SWAP1 POP JUMP JUMPDEST PUSH0 PUSH2 0x30A DUP3 PUSH2 0x2E1 JUMP JUMPDEST SWAP1 POP SWAP2 SWAP1 POP JUMP JUMPDEST PUSH2 0x31A DUP2 PUSH2 0x300 JUMP JUMPDEST DUP2 EQ PUSH2 0x324 JUMPI PUSH0 DUP1 REVERT JUMPDEST POP JUMP JUMPDEST PUSH0 DUP2 MLOAD SWAP1 POP PUSH2 0x335 DUP2 PUSH2 0x311 JUMP JUMPDEST SWAP3 SWAP2 POP POP JUMP JUMPDEST PUSH0 DUP1 PUSH0 DUP1 PUSH0 DUP1 PUSH0 DUP1 PUSH2 0x100 DUP10 DUP12 SUB SLT ISZERO PUSH2 0x358 JUMPI PUSH2 0x357 PUSH2 0x16A JUMP JUMPDEST JUMPDEST PUSH0 PUSH2 0x365 DUP12 DUP3 DUP13 ADD PUSH2 0x191 JUMP JUMPDEST SWAP9 POP POP PUSH1 0x20 PUSH2 0x376 DUP12 DUP3 DUP13 ADD PUSH2 0x191 JUMP JUMPDEST SWAP8 POP POP PUSH1 0x40 DUP10 ADD MLOAD PUSH8 0xFFFFFFFFFFFFFFFF DUP2 GT ISZERO PUSH2 0x397 JUMPI PUSH2 0x396 PUSH2 0x16E JUMP JUMPDEST JUMPDEST PUSH2 0x3A3 DUP12 DUP3 DUP13 ADD PUSH2 0x2B4 JUMP JUMPDEST SWAP7 POP POP PUSH1 0x60 DUP10 ADD MLOAD PUSH8 0xFFFFFFFFFFFFFFFF DUP2 GT ISZERO PUSH2 0x3C4 JUMPI PUSH2 0x3C3 PUSH2 0x16E JUMP JUMPDEST JUMPDEST PUSH2 0x3D0 DUP12 DUP3 DUP13 ADD PUSH2 0x2B4 JUMP JUMPDEST SWAP6 POP POP PUSH1 0x80 DUP10 ADD MLOAD PUSH8 0xFFFFFFFFFFFFFFFF DUP2 GT ISZERO PUSH2 0x3F1 JUMPI PUSH2 0x3F0 PUSH2 0x16E JUMP JUMPDEST JUMPDEST PUSH2 0x3FD DUP12 DUP3 DUP13 ADD PUSH2 0x2B4 JUMP JUMPDEST SWAP5 POP POP PUSH1 0xA0 PUSH2 0x40E DUP12 DUP3 DUP13 ADD PUSH2 0x191 JUMP JUMPDEST SWAP4 POP POP PUSH1 0xC0 PUSH2 0x41F DUP12 DUP3 DUP13 ADD PUSH2 0x191 JUMP JUMPDEST SWAP3 POP POP PUSH1 0xE0 PUSH2 0x430 DUP12 DUP3 DUP13 ADD PUSH2 0x327 JUMP JUMPDEST SWAP2 POP POP SWAP3 SWAP6 SWAP9 POP SWAP3 SWAP6 SWAP9 SWAP1 SWAP4 SWAP7 POP JUMP JUMPDEST PUSH32 0x4E487B7100000000000000000000000000000000000000000000000000000000 PUSH0 MSTORE PUSH1 0x11 PUSH1 0x4 MSTORE PUSH1 0x24 PUSH0 REVERT JUMPDEST PUSH0 PUSH2 0x477 DUP3 PUSH2 0x172 JUMP JUMPDEST SWAP2 POP PUSH2 0x482 DUP4 PUSH2 0x172 JUMP JUMPDEST SWAP3 POP DUP3 DUP3 ADD SWAP1 POP DUP1 DUP3 GT ISZERO PUSH2 0x49A JUMPI PUSH2 0x499 PUSH2 0x440 JUMP JUMPDEST JUMPDEST SWAP3 SWAP2 POP POP JUMP JUMPDEST PUSH0 DUP2 MLOAD SWAP1 POP SWAP2 SWAP1 POP JUMP JUMPDEST PUSH32 0x4E487B7100000000000000000000000000000000000000000000000000000000 PUSH0 MSTORE PUSH1 0x22 PUSH1 0x4 MSTORE PUSH1 0x24 PUSH0 REVERT JUMPDEST PUSH0 PUSH1 0x2 DUP3 DIV SWAP1 POP PUSH1 0x1 DUP3 AND DUP1 PUSH2 0x4EE JUMPI PUSH1 0x7F DUP3 AND SWAP2 POP JUMPDEST PUSH1 0x20 DUP3 LT DUP2 SUB PUSH2 0x501 JUMPI PUSH2 0x500 PUSH2 0x4AA JUMP JUMPDEST JUMPDEST POP SWAP2 SWAP1 POP JUMP JUMPDEST PUSH0 DUP2 SWAP1 POP DUP2 PUSH0 MSTORE PUSH1 0x20 PUSH0 KECCAK256 SWAP1 POP SWAP2 SWAP1 POP JUMP JUMPDEST PUSH0 PUSH1 0x20 PUSH1 0x1F DUP4 ADD DIV SWAP1 POP SWAP2 SWAP1 POP JUMP JUMPDEST PUSH0 DUP3 DUP3 SHL SWAP1 POP SWAP3 SWAP2 POP POP JUMP JUMPDEST PUSH0 PUSH1 0x8 DUP4 MUL PUSH2 0x563 PUSH32 0xFFFFFFFFFFFFFFFFFFFFFFFFFFFFFFFFFFFFFFFFFFFFFFFFFFFFFFFFFFFFFFFF DUP3 PUSH2 0x528 JUMP JUMPDEST PUSH2 0x56D DUP7 DUP4 PUSH2 0x528 JUMP JUMPDEST SWAP6 POP DUP1 NOT DUP5 AND SWAP4 POP DUP1 DUP7 AND DUP5 OR SWAP3 POP POP POP SWAP4 SWAP3 POP POP POP JUMP JUMPDEST PUSH0 DUP2 SWAP1 POP SWAP2 SWAP1 POP JUMP JUMPDEST PUSH0 PUSH2 0x5A8 PUSH2 0x5A3 PUSH2 0x59E DUP5 PUSH2 0x172 JUMP JUMPDEST PUSH2 0x585 JUMP JUMPDEST PUSH2 0x172 JUMP JUMPDEST SWAP1 POP SWAP2 SWAP1 POP JUMP JUMPDEST PUSH0 DUP2 SWAP1 POP SWAP2 SWAP1 POP JUMP JUMPDEST PUSH2 0x5C1 DUP4 PUSH2 0x58E JUMP JUMPDEST PUSH2 0x5D5 PUSH2 0x5CD DUP3 PUSH2 0x5AF JUMP JUMPDEST DUP5 DUP5 SLOAD PUSH2 0x534 JUMP JUMPDEST DUP3 SSTORE POP POP POP POP JUMP JUMPDEST PUSH0 SWAP1 JUMP JUMPDEST PUSH2 0x5E9 PUSH2 0x5DD JUMP JUMPDEST PUSH2 0x5F4 DUP2 DUP5 DUP5 PUSH2 0x5B8 JUMP JUMPDEST POP POP POP JUMP JUMPDEST JUMPDEST DUP2 DUP2 LT ISZERO PUSH2 0x617 JUMPI PUSH2 0x60C PUSH0 DUP3 PUSH2 0x5E1 JUMP JUMPDEST PUSH1 0x1 DUP2 ADD SWAP1 POP PUSH2 0x5FA JUMP JUMPDEST POP POP JUMP JUMPDEST PUSH1 0x1F DUP3 GT ISZERO PUSH2 0x65C JUMPI PUSH2 0x62D DUP2 PUSH2 0x507 JUMP JUMPDEST PUSH2 0x636 DUP5 PUSH2 0x519 JUMP JUMPDEST DUP2 ADD PUSH1 0x20 DUP6 LT ISZERO PUSH2 0x645 JUMPI DUP2 SWAP1 POP JUMPDEST PUSH2 0x659 PUSH2 0x651 DUP6 PUSH2 0x519 JUMP JUMPDEST DUP4 ADD DUP3 PUSH2 0x5F9 JUMP JUMPDEST POP POP JUMPDEST POP POP POP JUMP JUMPDEST PUSH0 DUP3 DUP3 SHR SWAP1 POP SWAP3 SWAP2 POP POP JUMP JUMPDEST PUSH0 PUSH2 0x67C PUSH0 NOT DUP5 PUSH1 0x8 MUL PUSH2 0x661 JUMP JUMPDEST NOT DUP1 DUP4 AND SWAP2 POP POP SWAP3 SWAP2 POP POP JUMP JUMPDEST PUSH0 PUSH2 0x694 DUP4 DUP4 PUSH2 0x66D JUMP JUMPDEST SWAP2 POP DUP3 PUSH1 0x2 MUL DUP3 OR SWAP1 POP SWAP3 SWAP2 POP POP JUMP JUMPDEST PUSH2 0x6AD DUP3 PUSH2 0x4A0 JUMP JUMPDEST PUSH8 0xFFFFFFFFFFFFFFFF DUP2 GT ISZERO PUSH2 0x6C6 JUMPI PUSH2 0x6C5 PUSH2 0x1BD JUMP JUMPDEST JUMPDEST PUSH2 0x6D0 DUP3 SLOAD PUSH2 0x4D7 JUMP JUMPDEST PUSH2 0x6DB DUP3 DUP3 DUP6 PUSH2 0x61B JUMP JUMPDEST PUSH0 PUSH1 0x20 SWAP1 POP PUSH1 0x1F DUP4 GT PUSH1 0x1 DUP2 EQ PUSH2 0x70C JUMPI PUSH0 DUP5 ISZERO PUSH2 0x6FA JUMPI DUP3 DUP8 ADD MLOAD SWAP1 POP JUMPDEST PUSH2 0x704 DUP6 DUP3 PUSH2 0x689 JUMP JUMPDEST DUP7 SSTORE POP PUSH2 0x76B JUMP JUMPDEST PUSH1 0x1F NOT DUP5 AND PUSH2 0x71A DUP7 PUSH2 0x507 JUMP JUMPDEST PUSH0 JUMPDEST DUP3 DUP2 LT ISZERO PUSH2 0x741 JUMPI DUP5 DUP10 ADD MLOAD DUP3 SSTORE PUSH1 0x1 DUP3 ADD SWAP2 POP PUSH1 0x20 DUP6 ADD SWAP5 POP PUSH1 0x20 DUP2 ADD SWAP1 POP PUSH2 0x71C JUMP JUMPDEST DUP7 DUP4 LT ISZERO PUSH2 0x75E JUMPI DUP5 DUP10 ADD MLOAD PUSH2 0x75A PUSH1 0x1F DUP10 AND DUP3 PUSH2 0x66D JUMP JUMPDEST DUP4 SSTORE POP JUMPDEST PUSH1 0x1 PUSH1 0x2 DUP9 MUL ADD DUP9 SSTORE POP POP POP JUMPDEST POP POP POP POP POP POP JUMP JUMPDEST PUSH32 0x4E487B7100000000000000000000000000000000000000000000000000000000 PUSH0 MSTORE PUSH1 0x21 PUSH1 0x4 MSTORE PUSH1 0x24 PUSH0 REVERT JUMPDEST PUSH2 0x1854 DUP1 PUSH2 0x7AD PUSH0 CODECOPY PUSH0 RETURN INVALID PUSH1 0x80 PUSH1 0x40 MSTORE PUSH1 0x4 CALLDATASIZE LT PUSH2 0xF2 JUMPI PUSH0 CALLDATALOAD PUSH1 0xE0 SHR DUP1 PUSH4 0x5600F04F GT PUSH2 0x89 JUMPI DUP1 PUSH4 0xC5467E61 GT PUSH2 0x58 JUMPI DUP1 PUSH4 0xC5467E61 EQ PUSH2 0x2E8 JUMPI DUP1 PUSH4 0xD5668131 EQ PUSH2 0x312 JUMPI DUP1 PUSH4 0xD57BDE79 EQ PUSH2 0x33C JUMPI DUP1 PUSH4 0xF795AA04 EQ PUSH2 0x366 JUMPI PUSH2 0xF2 JUMP JUMPDEST DUP1 PUSH4 0x5600F04F EQ PUSH2 0x240 JUMPI DUP1 PUSH4 0x7284E416 EQ PUSH2 0x26A JUMPI DUP1 PUSH4 0x7FB45099 EQ PUSH2 0x294 JUMPI DUP1 PUSH4 0x8DA5CB5B EQ PUSH2 0x2BE JUMPI PUSH2 0xF2 JUMP JUMPDEST DUP1 PUSH4 0x1998CD1D GT PUSH2 0xC5 JUMPI DUP1 PUSH4 0x1998CD1D EQ PUSH2 0x19E JUMPI DUP1 PUSH4 0x2872ABBC EQ PUSH2 0x1C8 JUMPI DUP1 PUSH4 0x4075FA0F EQ PUSH2 0x1F0 JUMPI DUP1 PUSH4 0x51CFF8D9 EQ PUSH2 0x218 JUMPI PUSH2 0xF2 JUMP JUMPDEST DUP1 PUSH4 0x195B22A EQ PUSH2 0xF6 JUMPI DUP1 PUSH4 0x6FDDE03 EQ PUSH2 0x120 JUMPI DUP1 PUSH4 0x912465D EQ PUSH2 0x14A JUMPI DUP1 PUSH4 0xFB5A6B4 EQ PUSH2 0x174 JUMPI JUMPDEST PUSH0 DUP1 REVERT JUMPDEST CALLVALUE DUP1 ISZERO PUSH2 0x101 JUMPI PUSH0 DUP1 REVERT JUMPDEST POP PUSH2 0x10A PUSH2 0x382 JUMP JUMPDEST PUSH1 0x40 MLOAD PUSH2 0x117 SWAP2 SWAP1 PUSH2 0xF2D JUMP JUMPDEST PUSH1 0x40 MLOAD DUP1 SWAP2 SUB SWAP1 RETURN JUMPDEST CALLVALUE DUP1 ISZERO PUSH2 0x12B JUMPI PUSH0 DUP1 REVERT JUMPDEST POP PUSH2 0x134 PUSH2 0x3A7 JUMP JUMPDEST PUSH1 0x40 MLOAD PUSH2 0x141 SWAP2 SWAP1 PUSH2 0xFB6 JUMP JUMPDEST PUSH1 0x40 MLOAD DUP1 SWAP2 SUB SWAP1 RETURN JUMPDEST CALLVALUE DUP1 ISZERO PUSH2 0x155 JUMPI PUSH0 DUP1 REVERT JUMPDEST POP PUSH2 0x15E PUSH2 0x433 JUMP JUMPDEST PUSH1 0x40 MLOAD PUSH2 0x16B SWAP2 SWAP1 PUSH2 0xFEE JUMP JUMPDEST PUSH1 0x40 MLOAD DUP1 SWAP2 SUB SWAP1 RETURN JUMPDEST CALLVALUE DUP1 ISZERO PUSH2 0x17F JUMPI PUSH0 DUP1 REVERT JUMPDEST POP PUSH2 0x188 PUSH2 0x439 JUMP JUMPDEST PUSH1 0x40 MLOAD PUSH2 0x195 SWAP2 SWAP1 PUSH2 0xFEE JUMP JUMPDEST PUSH1 0x40 MLOAD DUP1 SWAP2 SUB SWAP1 RETURN JUMPDEST CALLVALUE DUP1 ISZERO PUSH2 0x1A9 JUMPI PUSH0 DUP1 REVERT JUMPDEST POP PUSH2 0x1B2 PUSH2 0x43E JUMP JUMPDEST PUSH1 0x40 MLOAD PUSH2 0x1BF SWAP2 SWAP1 PUSH2 0xFEE JUMP JUMPDEST PUSH1 0x40 MLOAD DUP1 SWAP2 SUB SWAP1 RETURN JUMPDEST CALLVALUE DUP1 ISZERO PUSH2 0x1D3 JUMPI PUSH0 DUP1 REVERT JUMPDEST POP PUSH2 0x1EE PUSH1 0x4 DUP1 CALLDATASIZE SUB DUP2 ADD SWAP1 PUSH2 0x1E9 SWAP2 SWAP1 PUSH2 0x1046 JUMP JUMPDEST PUSH2 0x444 JUMP JUMPDEST STOP JUMPDEST CALLVALUE DUP1 ISZERO PUSH2 0x1FB JUMPI PUSH0 DUP1 REVERT JUMPDEST POP PUSH2 0x216 PUSH1 0x4 DUP1 CALLDATASIZE SUB DUP2 ADD SWAP1 PUSH2 0x211 SWAP2 SWAP1 PUSH2 0x1046 JUMP JUMPDEST PUSH2 0x6F8 JUMP JUMPDEST STOP JUMPDEST CALLVALUE DUP1 ISZERO PUSH2 0x223 JUMPI PUSH0 DUP1 REVERT JUMPDEST POP PUSH2 0x23E PUSH1 0x4 DUP1 CALLDATASIZE SUB DUP2 ADD SWAP1 PUSH2 0x239 SWAP2 SWAP1 PUSH2 0x1046 JUMP JUMPDEST PUSH2 0x830 JUMP JUMPDEST STOP JUMPDEST CALLVALUE DUP1 ISZERO PUSH2 0x24B JUMPI PUSH0 DUP1 REVERT JUMPDEST POP PUSH2 0x254 PUSH2 0x9A2 JUMP JUMPDEST PUSH1 0x40 MLOAD PUSH2 0x261 SWAP2 SWAP1 PUSH2 0xFB6 JUMP JUMPDEST PUSH1 0x40 MLOAD DUP1 SWAP2 SUB SWAP1 RETURN JUMPDEST CALLVALUE DUP1 ISZERO PUSH2 0x275 JUMPI PUSH0 DUP1 REVERT JUMPDEST POP PUSH2 0x27E PUSH2 0xA2E JUMP JUMPDEST PUSH1 0x40 MLOAD PUSH2 0x28B SWAP2 SWAP1 PUSH2 0xFB6 JUMP JUMPDEST PUSH1 0x40 MLOAD DUP1 SWAP2 SUB SWAP1 RETURN JUMPDEST CALLVALUE DUP1 ISZERO PUSH2 0x29F JUMPI PUSH0 DUP1 REVERT JUMPDEST POP PUSH2 0x2A8 PUSH2 0xABA JUMP JUMPDEST PUSH1 0x40 MLOAD PUSH2 0x2B5 SWAP2 SWAP1 PUSH2 0x10E4 JUMP JUMPDEST PUSH1 0x40 MLOAD DUP1 SWAP2 SUB SWAP1 RETURN JUMPDEST CALLVALUE DUP1 ISZERO PUSH2 0x2C9 JUMPI PUSH0 DUP1 REVERT JUMPDEST POP PUSH2 0x2D2 PUSH2 0xACC JUMP JUMPDEST PUSH1 0x40 MLOAD PUSH2 0x2DF SWAP2 SWAP1 PUSH2 0xF2D JUMP JUMPDEST PUSH1 0x40 MLOAD DUP1 SWAP2 SUB SWAP1 RETURN JUMPDEST CALLVALUE DUP1 ISZERO PUSH2 0x2F3 JUMPI PUSH0 DUP1 REVERT JUMPDEST POP PUSH2 0x2FC PUSH2 0xAF2 JUMP JUMPDEST PUSH1 0x40 MLOAD PUSH2 0x309 SWAP2 SWAP1 PUSH2 0xFEE JUMP JUMPDEST PUSH1 0x40 MLOAD DUP1 SWAP2 SUB SWAP1 RETURN JUMPDEST CALLVALUE DUP1 ISZERO PUSH2 0x31D JUMPI PUSH0 DUP1 REVERT JUMPDEST POP PUSH2 0x326 PUSH2 0xAF8 JUMP JUMPDEST PUSH1 0x40 MLOAD PUSH2 0x333 SWAP2 SWAP1 PUSH2 0xFEE JUMP JUMPDEST PUSH1 0x40 MLOAD DUP1 SWAP2 SUB SWAP1 RETURN JUMPDEST CALLVALUE DUP1 ISZERO PUSH2 0x347 JUMPI PUSH0 DUP1 REVERT JUMPDEST POP PUSH2 0x350 PUSH2 0xAFE JUMP JUMPDEST PUSH1 0x40 MLOAD PUSH2 0x35D SWAP2 SWAP1 PUSH2 0xFEE JUMP JUMPDEST PUSH1 0x40 MLOAD DUP1 SWAP2 SUB SWAP1 RETURN JUMPDEST PUSH2 0x380 PUSH1 0x4 DUP1 CALLDATASIZE SUB DUP2 ADD SWAP1 PUSH2 0x37B SWAP2 SWAP1 PUSH2 0x1127 JUMP JUMPDEST PUSH2 0xB07 JUMP JUMPDEST STOP JUMPDEST PUSH1 0x5 PUSH0 SWAP1 SLOAD SWAP1 PUSH2 0x100 EXP SWAP1 DIV PUSH20 0xFFFFFFFFFFFFFFFFFFFFFFFFFFFFFFFFFFFFFFFF AND DUP2 JUMP JUMPDEST PUSH1 0x2 DUP1 SLOAD PUSH2 0x3B4 SWAP1 PUSH2 0x1192 JUMP JUMPDEST DUP1 PUSH1 0x1F ADD PUSH1 0x20 DUP1 SWAP2 DIV MUL PUSH1 0x20 ADD PUSH1 0x40 MLOAD SWAP1 DUP2 ADD PUSH1 0x40 MSTORE DUP1 SWAP3 SWAP2 SWAP1 DUP2 DUP2 MSTORE PUSH1 0x20 ADD DUP3 DUP1 SLOAD PUSH2 0x3E0 SWAP1 PUSH2 0x1192 JUMP JUMPDEST DUP1 ISZERO PUSH2 0x42B JUMPI DUP1 PUSH1 0x1F LT PUSH2 0x402 JUMPI PUSH2 0x100 DUP1 DUP4 SLOAD DIV MUL DUP4 MSTORE SWAP2 PUSH1 0x20 ADD SWAP2 PUSH2 0x42B JUMP JUMPDEST DUP3 ADD SWAP2 SWAP1 PUSH0 MSTORE PUSH1 0x20 PUSH0 KECCAK256 SWAP1 JUMPDEST DUP2 SLOAD DUP2 MSTORE SWAP1 PUSH1 0x1 ADD SWAP1 PUSH1 0x20 ADD DUP1 DUP4 GT PUSH2 0x40E JUMPI DUP3 SWAP1 SUB PUSH1 0x1F AND DUP3 ADD SWAP2 JUMPDEST POP POP POP POP POP DUP2 JUMP JUMPDEST PUSH1 0xB SLOAD DUP2 JUMP JUMPDEST PUSH0 SLOAD DUP2 JUMP JUMPDEST PUSH1 0xC SLOAD DUP2 JUMP JUMPDEST DUP1 PUSH20 0xFFFFFFFFFFFFFFFFFFFFFFFFFFFFFFFFFFFFFFFF AND PUSH1 0xD PUSH1 0x1 SWAP1 SLOAD SWAP1 PUSH2 0x100 EXP SWAP1 DIV PUSH20 0xFFFFFFFFFFFFFFFFFFFFFFFFFFFFFFFFFFFFFFFF AND PUSH20 0xFFFFFFFFFFFFFFFFFFFFFFFFFFFFFFFFFFFFFFFF AND EQ PUSH2 0x4D4 JUMPI PUSH1 0x40 MLOAD PUSH32 0x8C379A000000000000000000000000000000000000000000000000000000000 DUP2 MSTORE PUSH1 0x4 ADD PUSH2 0x4CB SWAP1 PUSH2 0x120C JUMP JUMPDEST PUSH1 0x40 MLOAD DUP1 SWAP2 SUB SWAP1 REVERT JUMPDEST PUSH1 0xC SLOAD TIMESTAMP GT PUSH2 0x518 JUMPI PUSH1 0x40 MLOAD PUSH32 0x8C379A000000000000000000000000000000000000000000000000000000000 DUP2 MSTORE PUSH1 0x4 ADD PUSH2 0x50F SWAP1 PUSH2 0x1274 JUMP JUMPDEST PUSH1 0x40 MLOAD DUP1 SWAP2 SUB SWAP1 REVERT JUMPDEST PUSH1 0x1 PUSH1 0x2 DUP2 GT ISZERO PUSH2 0x52C JUMPI PUSH2 0x52B PUSH2 0x1071 JUMP JUMPDEST JUMPDEST PUSH1 0xD PUSH0 SWAP1 SLOAD SWAP1 PUSH2 0x100 EXP SWAP1 DIV PUSH1 0xFF AND PUSH1 0x2 DUP2 GT ISZERO PUSH2 0x54D JUMPI PUSH2 0x54C PUSH2 0x1071 JUMP JUMPDEST JUMPDEST EQ PUSH2 0x58D JUMPI PUSH1 0x40 MLOAD PUSH32 0x8C379A000000000000000000000000000000000000000000000000000000000 DUP2 MSTORE PUSH1 0x4 ADD PUSH2 0x584 SWAP1 PUSH2 0x12DC JUMP JUMPDEST PUSH1 0x40 MLOAD DUP1 SWAP2 SUB SWAP1 REVERT JUMPDEST PUSH1 0x2 PUSH1 0xD PUSH0 PUSH2 0x100 EXP DUP2 SLOAD DUP2 PUSH1 0xFF MUL NOT AND SWAP1 DUP4 PUSH1 0x2 DUP2 GT ISZERO PUSH2 0x5B2 JUMPI PUSH2 0x5B1 PUSH2 0x1071 JUMP JUMPDEST JUMPDEST MUL OR SWAP1 SSTORE POP PUSH0 PUSH1 0xD PUSH1 0x1 SWAP1 SLOAD SWAP1 PUSH2 0x100 EXP SWAP1 DIV PUSH20 0xFFFFFFFFFFFFFFFFFFFFFFFFFFFFFFFFFFFFFFFF AND PUSH20 0xFFFFFFFFFFFFFFFFFFFFFFFFFFFFFFFFFFFFFFFF AND PUSH1 0x4 SLOAD PUSH1 0x40 MLOAD PUSH2 0x600 SWAP1 PUSH2 0x1327 JUMP JUMPDEST PUSH0 PUSH1 0x40 MLOAD DUP1 DUP4 SUB DUP2 DUP6 DUP8 GAS CALL SWAP3 POP POP POP RETURNDATASIZE DUP1 PUSH0 DUP2 EQ PUSH2 0x63A JUMPI PUSH1 0x40 MLOAD SWAP2 POP PUSH1 0x1F NOT PUSH1 0x3F RETURNDATASIZE ADD AND DUP3 ADD PUSH1 0x40 MSTORE RETURNDATASIZE DUP3 MSTORE RETURNDATASIZE PUSH0 PUSH1 0x20 DUP5 ADD RETURNDATACOPY PUSH2 0x63F JUMP JUMPDEST PUSH1 0x60 SWAP2 POP JUMPDEST POP POP SWAP1 POP DUP1 PUSH2 0x683 JUMPI PUSH1 0x40 MLOAD PUSH32 0x8C379A000000000000000000000000000000000000000000000000000000000 DUP2 MSTORE PUSH1 0x4 ADD PUSH2 0x67A SWAP1 PUSH2 0x1385 JUMP JUMPDEST PUSH1 0x40 MLOAD DUP1 SWAP2 SUB SWAP1 REVERT JUMPDEST PUSH1 0x5 PUSH0 SWAP1 SLOAD SWAP1 PUSH2 0x100 EXP SWAP1 DIV PUSH20 0xFFFFFFFFFFFFFFFFFFFFFFFFFFFFFFFFFFFFFFFF AND PUSH20 0xFFFFFFFFFFFFFFFFFFFFFFFFFFFFFFFFFFFFFFFF AND PUSH32 0xDAEC4582D5D9595688C8C98545FDD1C696D41C6AEAEB636737E84ED2F5C00EDA PUSH1 0x4 SLOAD PUSH1 0x40 MLOAD PUSH2 0x6EC SWAP2 SWAP1 PUSH2 0xFEE JUMP JUMPDEST PUSH1 0x40 MLOAD DUP1 SWAP2 SUB SWAP1 LOG2 POP POP JUMP JUMPDEST PUSH1 0xD PUSH1 0x1 SWAP1 SLOAD SWAP1 PUSH2 0x100 EXP SWAP1 DIV PUSH20 0xFFFFFFFFFFFFFFFFFFFFFFFFFFFFFFFFFFFFFFFF AND PUSH20 0xFFFFFFFFFFFFFFFFFFFFFFFFFFFFFFFFFFFFFFFF AND DUP2 PUSH20 0xFFFFFFFFFFFFFFFFFFFFFFFFFFFFFFFFFFFFFFFF AND EQ PUSH2 0x788 JUMPI PUSH1 0x40 MLOAD PUSH32 0x8C379A000000000000000000000000000000000000000000000000000000000 DUP2 MSTORE PUSH1 0x4 ADD PUSH2 0x77F SWAP1 PUSH2 0x13ED JUMP JUMPDEST PUSH1 0x40 MLOAD DUP1 SWAP2 SUB SWAP1 REVERT JUMPDEST PUSH0 PUSH1 0x2 DUP2 GT ISZERO PUSH2 0x79B JUMPI PUSH2 0x79A PUSH2 0x1071 JUMP JUMPDEST JUMPDEST PUSH1 0xD PUSH0 SWAP1 SLOAD SWAP1 PUSH2 0x100 EXP SWAP1 DIV PUSH1 0xFF AND PUSH1 0x2 DUP2 GT ISZERO PUSH2 0x7BC JUMPI PUSH2 0x7BB PUSH2 0x1071 JUMP JUMPDEST JUMPDEST EQ PUSH2 0x7FC JUMPI PUSH1 0x40 MLOAD PUSH32 0x8C379A000000000000000000000000000000000000000000000000000000000 DUP2 MSTORE PUSH1 0x4 ADD PUSH2 0x7F3 SWAP1 PUSH2 0x147B JUMP JUMPDEST PUSH1 0x40 MLOAD DUP1 SWAP2 SUB SWAP1 REVERT JUMPDEST PUSH1 0x1 PUSH1 0xD PUSH0 PUSH2 0x100 EXP DUP2 SLOAD DUP2 PUSH1 0xFF MUL NOT AND SWAP1 DUP4 PUSH1 0x2 DUP2 GT ISZERO PUSH2 0x821 JUMPI PUSH2 0x820 PUSH2 0x1071 JUMP JUMPDEST JUMPDEST MUL OR SWAP1 SSTORE POP TIMESTAMP PUSH1 0xB DUP2 SWAP1 SSTORE POP POP JUMP JUMPDEST PUSH0 PUSH1 0x7 PUSH0 DUP4 PUSH20 0xFFFFFFFFFFFFFFFFFFFFFFFFFFFFFFFFFFFFFFFF AND PUSH20 0xFFFFFFFFFFFFFFFFFFFFFFFFFFFFFFFFFFFFFFFF AND DUP2 MSTORE PUSH1 0x20 ADD SWAP1 DUP2 MSTORE PUSH1 0x20 ADD PUSH0 KECCAK256 SLOAD SWAP1 POP PUSH0 DUP2 GT PUSH2 0x8B3 JUMPI PUSH1 0x40 MLOAD PUSH32 0x8C379A000000000000000000000000000000000000000000000000000000000 DUP2 MSTORE PUSH1 0x4 ADD PUSH2 0x8AA SWAP1 PUSH2 0x14E3 JUMP JUMPDEST PUSH1 0x40 MLOAD DUP1 SWAP2 SUB SWAP1 REVERT JUMPDEST PUSH0 PUSH1 0x7 PUSH0 DUP5 PUSH20 0xFFFFFFFFFFFFFFFFFFFFFFFFFFFFFFFFFFFFFFFF AND PUSH20 0xFFFFFFFFFFFFFFFFFFFFFFFFFFFFFFFFFFFFFFFF AND DUP2 MSTORE PUSH1 0x20 ADD SWAP1 DUP2 MSTORE PUSH1 0x20 ADD PUSH0 KECCAK256 DUP2 SWAP1 SSTORE POP PUSH0 DUP3 PUSH20 0xFFFFFFFFFFFFFFFFFFFFFFFFFFFFFFFFFFFFFFFF AND DUP3 PUSH1 0x40 MLOAD PUSH2 0x91A SWAP1 PUSH2 0x1327 JUMP JUMPDEST PUSH0 PUSH1 0x40 MLOAD DUP1 DUP4 SUB DUP2 DUP6 DUP8 GAS CALL SWAP3 POP POP POP RETURNDATASIZE DUP1 PUSH0 DUP2 EQ PUSH2 0x954 JUMPI PUSH1 0x40 MLOAD SWAP2 POP PUSH1 0x1F NOT PUSH1 0x3F RETURNDATASIZE ADD AND DUP3 ADD PUSH1 0x40 MSTORE RETURNDATASIZE DUP3 MSTORE RETURNDATASIZE PUSH0 PUSH1 0x20 DUP5 ADD RETURNDATACOPY PUSH2 0x959 JUMP JUMPDEST PUSH1 0x60 SWAP2 POP JUMPDEST POP POP SWAP1 POP DUP1 PUSH2 0x99D JUMPI PUSH1 0x40 MLOAD PUSH32 0x8C379A000000000000000000000000000000000000000000000000000000000 DUP2 MSTORE PUSH1 0x4 ADD PUSH2 0x994 SWAP1 PUSH2 0x154B JUMP JUMPDEST PUSH1 0x40 MLOAD DUP1 SWAP2 SUB SWAP1 REVERT JUMPDEST POP POP POP JUMP JUMPDEST PUSH1 0x3 DUP1 SLOAD PUSH2 0x9AF SWAP1 PUSH2 0x1192 JUMP JUMPDEST DUP1 PUSH1 0x1F ADD PUSH1 0x20 DUP1 SWAP2 DIV MUL PUSH1 0x20 ADD PUSH1 0x40 MLOAD SWAP1 DUP2 ADD PUSH1 0x40 MSTORE DUP1 SWAP3 SWAP2 SWAP1 DUP2 DUP2 MSTORE PUSH1 0x20 ADD DUP3 DUP1 SLOAD PUSH2 0x9DB SWAP1 PUSH2 0x1192 JUMP JUMPDEST DUP1 ISZERO PUSH2 0xA26 JUMPI DUP1 PUSH1 0x1F LT PUSH2 0x9FD JUMPI PUSH2 0x100 DUP1 DUP4 SLOAD DIV MUL DUP4 MSTORE SWAP2 PUSH1 0x20 ADD SWAP2 PUSH2 0xA26 JUMP JUMPDEST DUP3 ADD SWAP2 SWAP1 PUSH0 MSTORE PUSH1 0x20 PUSH0 KECCAK256 SWAP1 JUMPDEST DUP2 SLOAD DUP2 MSTORE SWAP1 PUSH1 0x1 ADD SWAP1 PUSH1 0x20 ADD DUP1 DUP4 GT PUSH2 0xA09 JUMPI DUP3 SWAP1 SUB PUSH1 0x1F AND DUP3 ADD SWAP2 JUMPDEST POP POP POP POP POP DUP2 JUMP JUMPDEST PUSH1 0x1 DUP1 SLOAD PUSH2 0xA3B SWAP1 PUSH2 0x1192 JUMP JUMPDEST DUP1 PUSH1 0x1F ADD PUSH1 0x20 DUP1 SWAP2 DIV MUL PUSH1 0x20 ADD PUSH1 0x40 MLOAD SWAP1 DUP2 ADD PUSH1 0x40 MSTORE DUP1 SWAP3 SWAP2 SWAP1 DUP2 DUP2 MSTORE PUSH1 0x20 ADD DUP3 DUP1 SLOAD PUSH2 0xA67 SWAP1 PUSH2 0x1192 JUMP JUMPDEST DUP1 ISZERO PUSH2 0xAB2 JUMPI DUP1 PUSH1 0x1F LT PUSH2 0xA89 JUMPI PUSH2 0x100 DUP1 DUP4 SLOAD DIV MUL DUP4 MSTORE SWAP2 PUSH1 0x20 ADD SWAP2 PUSH2 0xAB2 JUMP JUMPDEST DUP3 ADD SWAP2 SWAP1 PUSH0 MSTORE PUSH1 0x20 PUSH0 KECCAK256 SWAP1 JUMPDEST DUP2 SLOAD DUP2 MSTORE SWAP1 PUSH1 0x1 ADD SWAP1 PUSH1 0x20 ADD DUP1 DUP4 GT PUSH2 0xA95 JUMPI DUP3 SWAP1 SUB PUSH1 0x1F AND DUP3 ADD SWAP2 JUMPDEST POP POP POP POP POP DUP2 JUMP JUMPDEST PUSH1 0xD PUSH0 SWAP1 SLOAD SWAP1 PUSH2 0x100 EXP SWAP1 DIV PUSH1 0xFF AND DUP2 JUMP JUMPDEST PUSH1 0xD PUSH1 0x1 SWAP1 SLOAD SWAP1 PUSH2 0x100 EXP SWAP1 DIV PUSH20 0xFFFFFFFFFFFFFFFFFFFFFFFFFFFFFFFFFFFFFFFF AND DUP2 JUMP JUMPDEST PUSH1 0x4 SLOAD DUP2 JUMP JUMPDEST PUSH1 0xA SLOAD DUP2 JUMP JUMPDEST PUSH0 PUSH1 0x4 SLOAD SWAP1 POP SWAP1 JUMP JUMPDEST PUSH1 0x1 PUSH1 0x2 DUP2 GT ISZERO PUSH2 0xB1B JUMPI PUSH2 0xB1A PUSH2 0x1071 JUMP JUMPDEST JUMPDEST PUSH1 0xD PUSH0 SWAP1 SLOAD SWAP1 PUSH2 0x100 EXP SWAP1 DIV PUSH1 0xFF AND PUSH1 0x2 DUP2 GT ISZERO PUSH2 0xB3C JUMPI PUSH2 0xB3B PUSH2 0x1071 JUMP JUMPDEST JUMPDEST EQ PUSH2 0xB7C JUMPI PUSH1 0x40 MLOAD PUSH32 0x8C379A000000000000000000000000000000000000000000000000000000000 DUP2 MSTORE PUSH1 0x4 ADD PUSH2 0xB73 SWAP1 PUSH2 0x12DC JUMP JUMPDEST PUSH1 0x40 MLOAD DUP1 SWAP2 SUB SWAP1 REVERT JUMPDEST PUSH1 0xB SLOAD TIMESTAMP GT PUSH2 0xBC0 JUMPI PUSH1 0x40 MLOAD PUSH32 0x8C379A000000000000000000000000000000000000000000000000000000000 DUP2 MSTORE PUSH1 0x4 ADD PUSH2 0xBB7 SWAP1 PUSH2 0x15B3 JUMP JUMPDEST PUSH1 0x40 MLOAD DUP1 SWAP2 SUB SWAP1 REVERT JUMPDEST PUSH1 0xC SLOAD TIMESTAMP LT PUSH2 0xC04 JUMPI PUSH1 0x40 MLOAD PUSH32 0x8C379A000000000000000000000000000000000000000000000000000000000 DUP2 MSTORE PUSH1 0x4 ADD PUSH2 0xBFB SWAP1 PUSH2 0x161B JUMP JUMPDEST PUSH1 0x40 MLOAD DUP1 SWAP2 SUB SWAP1 REVERT JUMPDEST PUSH1 0x4 SLOAD DUP2 GT PUSH2 0xC48 JUMPI PUSH1 0x40 MLOAD PUSH32 0x8C379A000000000000000000000000000000000000000000000000000000000 DUP2 MSTORE PUSH1 0x4 ADD PUSH2 0xC3F SWAP1 PUSH2 0x16A9 JUMP JUMPDEST PUSH1 0x40 MLOAD DUP1 SWAP2 SUB SWAP1 REVERT JUMPDEST PUSH1 0x8 SLOAD PUSH1 0x6 PUSH0 DUP5 PUSH20 0xFFFFFFFFFFFFFFFFFFFFFFFFFFFFFFFFFFFFFFFF AND PUSH20 0xFFFFFFFFFFFFFFFFFFFFFFFFFFFFFFFFFFFFFFFF AND DUP2 MSTORE PUSH1 0x20 ADD SWAP1 DUP2 MSTORE PUSH1 0x20 ADD PUSH0 KECCAK256 SLOAD TIMESTAMP PUSH2 0xC94 SWAP2 SWAP1 PUSH2 0x16F4 JUMP JUMPDEST GT PUSH2 0xCD4 JUMPI PUSH1 0x40 MLOAD PUSH32 0x8C379A000000000000000000000000000000000000000000000000000000000 DUP2 MSTORE PUSH1 0x4 ADD PUSH2 0xCCB SWAP1 PUSH2 0x1797 JUMP JUMPDEST PUSH1 0x40 MLOAD DUP1 SWAP2 SUB SWAP1 REVERT JUMPDEST PUSH1 0x9 SLOAD TIMESTAMP PUSH1 0xC SLOAD PUSH2 0xCE5 SWAP2 SWAP1 PUSH2 0x16F4 JUMP JUMPDEST LT ISZERO PUSH2 0xD02 JUMPI PUSH1 0x9 SLOAD PUSH1 0xC SLOAD PUSH2 0xCFB SWAP2 SWAP1 PUSH2 0x17B5 JUMP JUMPDEST PUSH1 0xC DUP2 SWAP1 SSTORE POP JUMPDEST PUSH0 PUSH20 0xFFFFFFFFFFFFFFFFFFFFFFFFFFFFFFFFFFFFFFFF AND PUSH1 0x5 PUSH0 SWAP1 SLOAD SWAP1 PUSH2 0x100 EXP SWAP1 DIV PUSH20 0xFFFFFFFFFFFFFFFFFFFFFFFFFFFFFFFFFFFFFFFF AND PUSH20 0xFFFFFFFFFFFFFFFFFFFFFFFFFFFFFFFFFFFFFFFF AND EQ ISZERO DUP1 ISZERO PUSH2 0xDAC JUMPI POP DUP2 PUSH20 0xFFFFFFFFFFFFFFFFFFFFFFFFFFFFFFFFFFFFFFFF AND PUSH1 0x5 PUSH0 SWAP1 SLOAD SWAP1 PUSH2 0x100 EXP SWAP1 DIV PUSH20 0xFFFFFFFFFFFFFFFFFFFFFFFFFFFFFFFFFFFFFFFF AND PUSH20 0xFFFFFFFFFFFFFFFFFFFFFFFFFFFFFFFFFFFFFFFF AND EQ ISZERO JUMPDEST ISZERO PUSH2 0xE28 JUMPI PUSH1 0x4 SLOAD PUSH1 0x7 PUSH0 PUSH1 0x5 PUSH0 SWAP1 SLOAD SWAP1 PUSH2 0x100 EXP SWAP1 DIV PUSH20 0xFFFFFFFFFFFFFFFFFFFFFFFFFFFFFFFFFFFFFFFF AND PUSH20 0xFFFFFFFFFFFFFFFFFFFFFFFFFFFFFFFFFFFFFFFF AND PUSH20 0xFFFFFFFFFFFFFFFFFFFFFFFFFFFFFFFFFFFFFFFF AND DUP2 MSTORE PUSH1 0x20 ADD SWAP1 DUP2 MSTORE PUSH1 0x20 ADD PUSH0 KECCAK256 PUSH0 DUP3 DUP3 SLOAD PUSH2 0xE20 SWAP2 SWAP1 PUSH2 0x17B5 JUMP JUMPDEST SWAP3 POP POP DUP2 SWAP1 SSTORE POP JUMPDEST DUP1 PUSH1 0x4 DUP2 SWAP1 SSTORE POP DUP2 PUSH1 0x5 PUSH0 PUSH2 0x100 EXP DUP2 SLOAD DUP2 PUSH20 0xFFFFFFFFFFFFFFFFFFFFFFFFFFFFFFFFFFFFFFFF MUL NOT AND SWAP1 DUP4 PUSH20 0xFFFFFFFFFFFFFFFFFFFFFFFFFFFFFFFFFFFFFFFF AND MUL OR SWAP1 SSTORE POP TIMESTAMP PUSH1 0x6 PUSH0 DUP5 PUSH20 0xFFFFFFFFFFFFFFFFFFFFFFFFFFFFFFFFFFFFFFFF AND PUSH20 0xFFFFFFFFFFFFFFFFFFFFFFFFFFFFFFFFFFFFFFFF AND DUP2 MSTORE PUSH1 0x20 ADD SWAP1 DUP2 MSTORE PUSH1 0x20 ADD PUSH0 KECCAK256 DUP2 SWAP1 SSTORE POP PUSH32 0xAD39847EDBFF9B525A524A14BDEA0FFC8BA7B93FCA296E09A5147991599E8E56 DUP3 DUP3 PUSH1 0x40 MLOAD PUSH2 0xEE2 SWAP3 SWAP2 SWAP1 PUSH2 0x17F7 JUMP JUMPDEST PUSH1 0x40 MLOAD DUP1 SWAP2 SUB SWAP1 LOG1 POP POP JUMP JUMPDEST PUSH0 PUSH20 0xFFFFFFFFFFFFFFFFFFFFFFFFFFFFFFFFFFFFFFFF DUP3 AND SWAP1 POP SWAP2 SWAP1 POP JUMP JUMPDEST PUSH0 PUSH2 0xF17 DUP3 PUSH2 0xEEE JUMP JUMPDEST SWAP1 POP SWAP2 SWAP1 POP JUMP JUMPDEST PUSH2 0xF27 DUP2 PUSH2 0xF0D JUMP JUMPDEST DUP3 MSTORE POP POP JUMP JUMPDEST PUSH0 PUSH1 0x20 DUP3 ADD SWAP1 POP PUSH2 0xF40 PUSH0 DUP4 ADD DUP5 PUSH2 0xF1E JUMP JUMPDEST SWAP3 SWAP2 POP POP JUMP JUMPDEST PUSH0 DUP2 MLOAD SWAP1 POP SWAP2 SWAP1 POP JUMP JUMPDEST PUSH0 DUP3 DUP3 MSTORE PUSH1 0x20 DUP3 ADD SWAP1 POP SWAP3 SWAP2 POP POP JUMP JUMPDEST DUP3 DUP2 DUP4 MCOPY PUSH0 DUP4 DUP4 ADD MSTORE POP POP POP JUMP JUMPDEST PUSH0 PUSH1 0x1F NOT PUSH1 0x1F DUP4 ADD AND SWAP1 POP SWAP2 SWAP1 POP JUMP JUMPDEST PUSH0 PUSH2 0xF88 DUP3 PUSH2 0xF46 JUMP JUMPDEST PUSH2 0xF92 DUP2 DUP6 PUSH2 0xF50 JUMP JUMPDEST SWAP4 POP PUSH2 0xFA2 DUP2 DUP6 PUSH1 0x20 DUP7 ADD PUSH2 0xF60 JUMP JUMPDEST PUSH2 0xFAB DUP2 PUSH2 0xF6E JUMP JUMPDEST DUP5 ADD SWAP2 POP POP SWAP3 SWAP2 POP POP JUMP JUMPDEST PUSH0 PUSH1 0x20 DUP3 ADD SWAP1 POP DUP2 DUP2 SUB PUSH0 DUP4 ADD MSTORE PUSH2 0xFCE DUP2 DUP5 PUSH2 0xF7E JUMP JUMPDEST SWAP1 POP SWAP3 SWAP2 POP POP JUMP JUMPDEST PUSH0 DUP2 SWAP1 POP SWAP2 SWAP1 POP JUMP JUMPDEST PUSH2 0xFE8 DUP2 PUSH2 0xFD6 JUMP JUMPDEST DUP3 MSTORE POP POP JUMP JUMPDEST PUSH0 PUSH1 0x20 DUP3 ADD SWAP1 POP PUSH2 0x1001 PUSH0 DUP4 ADD DUP5 PUSH2 0xFDF JUMP JUMPDEST SWAP3 SWAP2 POP POP JUMP JUMPDEST PUSH0 DUP1 REVERT JUMPDEST PUSH0 PUSH2 0x1015 DUP3 PUSH2 0xEEE JUMP JUMPDEST SWAP1 POP SWAP2 SWAP1 POP JUMP JUMPDEST PUSH2 0x1025 DUP2 PUSH2 0x100B JUMP JUMPDEST DUP2 EQ PUSH2 0x102F JUMPI PUSH0 DUP1 REVERT JUMPDEST POP JUMP JUMPDEST PUSH0 DUP2 CALLDATALOAD SWAP1 POP PUSH2 0x1040 DUP2 PUSH2 0x101C JUMP JUMPDEST SWAP3 SWAP2 POP POP JUMP JUMPDEST PUSH0 PUSH1 0x20 DUP3 DUP5 SUB SLT ISZERO PUSH2 0x105B JUMPI PUSH2 0x105A PUSH2 0x1007 JUMP JUMPDEST JUMPDEST PUSH0 PUSH2 0x1068 DUP5 DUP3 DUP6 ADD PUSH2 0x1032 JUMP JUMPDEST SWAP2 POP POP SWAP3 SWAP2 POP POP JUMP JUMPDEST PUSH32 0x4E487B7100000000000000000000000000000000000000000000000000000000 PUSH0 MSTORE PUSH1 0x21 PUSH1 0x4 MSTORE PUSH1 0x24 PUSH0 REVERT JUMPDEST PUSH1 0x3 DUP2 LT PUSH2 0x10AF JUMPI PUSH2 0x10AE PUSH2 0x1071 JUMP JUMPDEST JUMPDEST POP JUMP JUMPDEST PUSH0 DUP2 SWAP1 POP PUSH2 0x10BF DUP3 PUSH2 0x109E JUMP JUMPDEST SWAP2 SWAP1 POP JUMP JUMPDEST PUSH0 PUSH2 0x10CE DUP3 PUSH2 0x10B2 JUMP JUMPDEST SWAP1 POP SWAP2 SWAP1 POP JUMP JUMPDEST PUSH2 0x10DE DUP2 PUSH2 0x10C4 JUMP JUMPDEST DUP3 MSTORE POP POP JUMP JUMPDEST PUSH0 PUSH1 0x20 DUP3 ADD SWAP1 POP PUSH2 0x10F7 PUSH0 DUP4 ADD DUP5 PUSH2 0x10D5 JUMP JUMPDEST SWAP3 SWAP2 POP POP JUMP JUMPDEST PUSH2 0x1106 DUP2 PUSH2 0xFD6 JUMP JUMPDEST DUP2 EQ PUSH2 0x1110 JUMPI PUSH0 DUP1 REVERT JUMPDEST POP JUMP JUMPDEST PUSH0 DUP2 CALLDATALOAD SWAP1 POP PUSH2 0x1121 DUP2 PUSH2 0x10FD JUMP JUMPDEST SWAP3 SWAP2 POP POP JUMP JUMPDEST PUSH0 DUP1 PUSH1 0x40 DUP4 DUP6 SUB SLT ISZERO PUSH2 0x113D JUMPI PUSH2 0x113C PUSH2 0x1007 JUMP JUMPDEST JUMPDEST PUSH0 PUSH2 0x114A DUP6 DUP3 DUP7 ADD PUSH2 0x1032 JUMP JUMPDEST SWAP3 POP POP PUSH1 0x20 PUSH2 0x115B DUP6 DUP3 DUP7 ADD PUSH2 0x1113 JUMP JUMPDEST SWAP2 POP POP SWAP3 POP SWAP3 SWAP1 POP JUMP JUMPDEST PUSH32 0x4E487B7100000000000000000000000000000000000000000000000000000000 PUSH0 MSTORE PUSH1 0x22 PUSH1 0x4 MSTORE PUSH1 0x24 PUSH0 REVERT JUMPDEST PUSH0 PUSH1 0x2 DUP3 DIV SWAP1 POP PUSH1 0x1 DUP3 AND DUP1 PUSH2 0x11A9 JUMPI PUSH1 0x7F DUP3 AND SWAP2 POP JUMPDEST PUSH1 0x20 DUP3 LT DUP2 SUB PUSH2 0x11BC JUMPI PUSH2 0x11BB PUSH2 0x1165 JUMP JUMPDEST JUMPDEST POP SWAP2 SWAP1 POP JUMP JUMPDEST PUSH32 0x74686973206973206E6F742062656C6F6E6720746F20796F7500000000000000 PUSH0 DUP3 ADD MSTORE POP JUMP JUMPDEST PUSH0 PUSH2 0x11F6 PUSH1 0x19 DUP4 PUSH2 0xF50 JUMP JUMPDEST SWAP2 POP PUSH2 0x1201 DUP3 PUSH2 0x11C2 JUMP JUMPDEST PUSH1 0x20 DUP3 ADD SWAP1 POP SWAP2 SWAP1 POP JUMP JUMPDEST PUSH0 PUSH1 0x20 DUP3 ADD SWAP1 POP DUP2 DUP2 SUB PUSH0 DUP4 ADD MSTORE PUSH2 0x1223 DUP2 PUSH2 0x11EA JUMP JUMPDEST SWAP1 POP SWAP2 SWAP1 POP JUMP JUMPDEST PUSH32 0x61756374696F6E206973206E6F7420656E646564000000000000000000000000 PUSH0 DUP3 ADD MSTORE POP JUMP JUMPDEST PUSH0 PUSH2 0x125E PUSH1 0x14 DUP4 PUSH2 0xF50 JUMP JUMPDEST SWAP2 POP PUSH2 0x1269 DUP3 PUSH2 0x122A JUMP JUMPDEST PUSH1 0x20 DUP3 ADD SWAP1 POP SWAP2 SWAP1 POP JUMP JUMPDEST PUSH0 PUSH1 0x20 DUP3 ADD SWAP1 POP DUP2 DUP2 SUB PUSH0 DUP4 ADD MSTORE PUSH2 0x128B DUP2 PUSH2 0x1252 JUMP JUMPDEST SWAP1 POP SWAP2 SWAP1 POP JUMP JUMPDEST PUSH32 0x41756374696F6E206973206E6F74206163746976652E00000000000000000000 PUSH0 DUP3 ADD MSTORE POP JUMP JUMPDEST PUSH0 PUSH2 0x12C6 PUSH1 0x16 DUP4 PUSH2 0xF50 JUMP JUMPDEST SWAP2 POP PUSH2 0x12D1 DUP3 PUSH2 0x1292 JUMP JUMPDEST PUSH1 0x20 DUP3 ADD SWAP1 POP SWAP2 SWAP1 POP JUMP JUMPDEST PUSH0 PUSH1 0x20 DUP3 ADD SWAP1 POP DUP2 DUP2 SUB PUSH0 DUP4 ADD MSTORE PUSH2 0x12F3 DUP2 PUSH2 0x12BA JUMP JUMPDEST SWAP1 POP SWAP2 SWAP1 POP JUMP JUMPDEST PUSH0 DUP2 SWAP1 POP SWAP3 SWAP2 POP POP JUMP JUMPDEST POP JUMP JUMPDEST PUSH0 PUSH2 0x1312 PUSH0 DUP4 PUSH2 0x12FA JUMP JUMPDEST SWAP2 POP PUSH2 0x131D DUP3 PUSH2 0x1304 JUMP JUMPDEST PUSH0 DUP3 ADD SWAP1 POP SWAP2 SWAP1 POP JUMP JUMPDEST PUSH0 PUSH2 0x1331 DUP3 PUSH2 0x1307 JUMP JUMPDEST SWAP2 POP DUP2 SWAP1 POP SWAP2 SWAP1 POP JUMP JUMPDEST PUSH32 0x7472616E73666572206661696C65000000000000000000000000000000000000 PUSH0 DUP3 ADD MSTORE POP JUMP JUMPDEST PUSH0 PUSH2 0x136F PUSH1 0xE DUP4 PUSH2 0xF50 JUMP JUMPDEST SWAP2 POP PUSH2 0x137A DUP3 PUSH2 0x133B JUMP JUMPDEST PUSH1 0x20 DUP3 ADD SWAP1 POP SWAP2 SWAP1 POP JUMP JUMPDEST PUSH0 PUSH1 0x20 DUP3 ADD SWAP1 POP DUP2 DUP2 SUB PUSH0 DUP4 ADD MSTORE PUSH2 0x139C DUP2 PUSH2 0x1363 JUMP JUMPDEST SWAP1 POP SWAP2 SWAP1 POP JUMP JUMPDEST PUSH32 0x6F6E6C79206F6E7765722063616E207374617274206974000000000000000000 PUSH0 DUP3 ADD MSTORE POP JUMP JUMPDEST PUSH0 PUSH2 0x13D7 PUSH1 0x17 DUP4 PUSH2 0xF50 JUMP JUMPDEST SWAP2 POP PUSH2 0x13E2 DUP3 PUSH2 0x13A3 JUMP JUMPDEST PUSH1 0x20 DUP3 ADD SWAP1 POP SWAP2 SWAP1 POP JUMP JUMPDEST PUSH0 PUSH1 0x20 DUP3 ADD SWAP1 POP DUP2 DUP2 SUB PUSH0 DUP4 ADD MSTORE PUSH2 0x1404 DUP2 PUSH2 0x13CB JUMP JUMPDEST SWAP1 POP SWAP2 SWAP1 POP JUMP JUMPDEST PUSH32 0x41756374696F6E2068617320616C72656164792073746172746564206F722065 PUSH0 DUP3 ADD MSTORE PUSH32 0x6E6465642E000000000000000000000000000000000000000000000000000000 PUSH1 0x20 DUP3 ADD MSTORE POP JUMP JUMPDEST PUSH0 PUSH2 0x1465 PUSH1 0x25 DUP4 PUSH2 0xF50 JUMP JUMPDEST SWAP2 POP PUSH2 0x1470 DUP3 PUSH2 0x140B JUMP JUMPDEST PUSH1 0x40 DUP3 ADD SWAP1 POP SWAP2 SWAP1 POP JUMP JUMPDEST PUSH0 PUSH1 0x20 DUP3 ADD SWAP1 POP DUP2 DUP2 SUB PUSH0 DUP4 ADD MSTORE PUSH2 0x1492 DUP2 PUSH2 0x1459 JUMP JUMPDEST SWAP1 POP SWAP2 SWAP1 POP JUMP JUMPDEST PUSH32 0x4E6F2066756E647320746F207769746864726177000000000000000000000000 PUSH0 DUP3 ADD MSTORE POP JUMP JUMPDEST PUSH0 PUSH2 0x14CD PUSH1 0x14 DUP4 PUSH2 0xF50 JUMP JUMPDEST SWAP2 POP PUSH2 0x14D8 DUP3 PUSH2 0x1499 JUMP JUMPDEST PUSH1 0x20 DUP3 ADD SWAP1 POP SWAP2 SWAP1 POP JUMP JUMPDEST PUSH0 PUSH1 0x20 DUP3 ADD SWAP1 POP DUP2 DUP2 SUB PUSH0 DUP4 ADD MSTORE PUSH2 0x14FA DUP2 PUSH2 0x14C1 JUMP JUMPDEST SWAP1 POP SWAP2 SWAP1 POP JUMP JUMPDEST PUSH32 0x5769746864726177616C206661696C6564000000000000000000000000000000 PUSH0 DUP3 ADD MSTORE POP JUMP JUMPDEST PUSH0 PUSH2 0x1535 PUSH1 0x11 DUP4 PUSH2 0xF50 JUMP JUMPDEST SWAP2 POP PUSH2 0x1540 DUP3 PUSH2 0x1501 JUMP JUMPDEST PUSH1 0x20 DUP3 ADD SWAP1 POP SWAP2 SWAP1 POP JUMP JUMPDEST PUSH0 PUSH1 0x20 DUP3 ADD SWAP1 POP DUP2 DUP2 SUB PUSH0 DUP4 ADD MSTORE PUSH2 0x1562 DUP2 PUSH2 0x1529 JUMP JUMPDEST SWAP1 POP SWAP2 SWAP1 POP JUMP JUMPDEST PUSH32 0x7468652061756374696F6E206973206E6F742073746172740000000000000000 PUSH0 DUP3 ADD MSTORE POP JUMP JUMPDEST PUSH0 PUSH2 0x159D PUSH1 0x18 DUP4 PUSH2 0xF50 JUMP JUMPDEST SWAP2 POP PUSH2 0x15A8 DUP3 PUSH2 0x1569 JUMP JUMPDEST PUSH1 0x20 DUP3 ADD SWAP1 POP SWAP2 SWAP1 POP JUMP JUMPDEST PUSH0 PUSH1 0x20 DUP3 ADD SWAP1 POP DUP2 DUP2 SUB PUSH0 DUP4 ADD MSTORE PUSH2 0x15CA DUP2 PUSH2 0x1591 JUMP JUMPDEST SWAP1 POP SWAP2 SWAP1 POP JUMP JUMPDEST PUSH32 0x74686520616E6374696F6E20697320656E646564000000000000000000000000 PUSH0 DUP3 ADD MSTORE POP JUMP JUMPDEST PUSH0 PUSH2 0x1605 PUSH1 0x14 DUP4 PUSH2 0xF50 JUMP JUMPDEST SWAP2 POP PUSH2 0x1610 DUP3 PUSH2 0x15D1 JUMP JUMPDEST PUSH1 0x20 DUP3 ADD SWAP1 POP SWAP2 SWAP1 POP JUMP JUMPDEST PUSH0 PUSH1 0x20 DUP3 ADD SWAP1 POP DUP2 DUP2 SUB PUSH0 DUP4 ADD MSTORE PUSH2 0x1632 DUP2 PUSH2 0x15F9 JUMP JUMPDEST SWAP1 POP SWAP2 SWAP1 POP JUMP JUMPDEST PUSH32 0x7072696365206D75737420686967686572207468616E2063757272656E742070 PUSH0 DUP3 ADD MSTORE PUSH32 0x7269636500000000000000000000000000000000000000000000000000000000 PUSH1 0x20 DUP3 ADD MSTORE POP JUMP JUMPDEST PUSH0 PUSH2 0x1693 PUSH1 0x24 DUP4 PUSH2 0xF50 JUMP JUMPDEST SWAP2 POP PUSH2 0x169E DUP3 PUSH2 0x1639 JUMP JUMPDEST PUSH1 0x40 DUP3 ADD SWAP1 POP SWAP2 SWAP1 POP JUMP JUMPDEST PUSH0 PUSH1 0x20 DUP3 ADD SWAP1 POP DUP2 DUP2 SUB PUSH0 DUP4 ADD MSTORE PUSH2 0x16C0 DUP2 PUSH2 0x1687 JUMP JUMPDEST SWAP1 POP SWAP2 SWAP1 POP JUMP JUMPDEST PUSH32 0x4E487B7100000000000000000000000000000000000000000000000000000000 PUSH0 MSTORE PUSH1 0x11 PUSH1 0x4 MSTORE PUSH1 0x24 PUSH0 REVERT JUMPDEST PUSH0 PUSH2 0x16FE DUP3 PUSH2 0xFD6 JUMP JUMPDEST SWAP2 POP PUSH2 0x1709 DUP4 PUSH2 0xFD6 JUMP JUMPDEST SWAP3 POP DUP3 DUP3 SUB SWAP1 POP DUP2 DUP2 GT ISZERO PUSH2 0x1721 JUMPI PUSH2 0x1720 PUSH2 0x16C7 JUMP JUMPDEST JUMPDEST SWAP3 SWAP2 POP POP JUMP JUMPDEST PUSH32 0x63616C6C20646F776E2C20796F7520626964696E67206A757374206E6F772C20 PUSH0 DUP3 ADD MSTORE PUSH32 0x7472792069742035206D696E206C617465720000000000000000000000000000 PUSH1 0x20 DUP3 ADD MSTORE POP JUMP JUMPDEST PUSH0 PUSH2 0x1781 PUSH1 0x32 DUP4 PUSH2 0xF50 JUMP JUMPDEST SWAP2 POP PUSH2 0x178C DUP3 PUSH2 0x1727 JUMP JUMPDEST PUSH1 0x40 DUP3 ADD SWAP1 POP SWAP2 SWAP1 POP JUMP JUMPDEST PUSH0 PUSH1 0x20 DUP3 ADD SWAP1 POP DUP2 DUP2 SUB PUSH0 DUP4 ADD MSTORE PUSH2 0x17AE DUP2 PUSH2 0x1775 JUMP JUMPDEST SWAP1 POP SWAP2 SWAP1 POP JUMP JUMPDEST PUSH0 PUSH2 0x17BF DUP3 PUSH2 0xFD6 JUMP JUMPDEST SWAP2 POP PUSH2 0x17CA DUP4 PUSH2 0xFD6 JUMP JUMPDEST SWAP3 POP DUP3 DUP3 ADD SWAP1 POP DUP1 DUP3 GT ISZERO PUSH2 0x17E2 JUMPI PUSH2 0x17E1 PUSH2 0x16C7 JUMP JUMPDEST JUMPDEST SWAP3 SWAP2 POP POP JUMP JUMPDEST PUSH2 0x17F1 DUP2 PUSH2 0x100B JUMP JUMPDEST DUP3 MSTORE POP POP JUMP JUMPDEST PUSH0 PUSH1 0x40 DUP3 ADD SWAP1 POP PUSH2 0x180A PUSH0 DUP4 ADD DUP6 PUSH2 0x17E8 JUMP JUMPDEST PUSH2 0x1817 PUSH1 0x20 DUP4 ADD DUP5 PUSH2 0xFDF JUMP JUMPDEST SWAP4 SWAP3 POP POP POP JUMP INVALID LOG2 PUSH5 0x6970667358 0x22 SLT KECCAK256 NOT 0x2C PUSH31 0xFB9242A2AC97B8F1D532CA69E77BE3BC2C3CD29AF3676C224157A969646473 PUSH16 0x6C634300081A00330000000000000000 "
		},
		"gasEstimates": {
			"creation": {
				"codeDepositCost": "1245600",
				"executionCost": "infinite",
				"totalCost": "infinite"
			},
			"external": {
				"auctionState()": "2621",
				"bidding(address,uint256)": "infinite",
				"current_bid()": "2447",
				"current_max_bidder()": "2532",
				"description()": "infinite",
				"duration()": "2514",
				"endAuction(address)": "infinite",
				"expire_at()": "2448",
				"highestBid()": "2498",
				"name()": "infinite",
				"owner()": "2648",
				"startAuction(address)": "51345",
				"start_at()": "2493",
				"token_id()": "2469",
				"url()": "infinite",
				"withdraw(address)": "infinite"
			}
		},
		"methodIdentifiers": {
			"auctionState()": "7fb45099",
			"bidding(address,uint256)": "f795aa04",
			"current_bid()": "c5467e61",
			"current_max_bidder()": "0195b22a",
			"description()": "7284e416",
			"duration()": "0fb5a6b4",
			"endAuction(address)": "2872abbc",
			"expire_at()": "1998cd1d",
			"highestBid()": "d57bde79",
			"name()": "06fdde03",
			"owner()": "8da5cb5b",
			"startAuction(address)": "4075fa0f",
			"start_at()": "0912465d",
			"token_id()": "d5668131",
			"url()": "5600f04f",
			"withdraw(address)": "51cff8d9"
		}
	},
	"abi": [
		{
			"inputs": [
				{
					"internalType": "uint256",
					"name": "_duration",
					"type": "uint256"
				},
				{
					"internalType": "uint256",
					"name": "_startingPrice",
					"type": "uint256"
				},
				{
					"internalType": "string",
					"name": "_name",
					"type": "string"
				},
				{
					"internalType": "string",
					"name": "_description",
					"type": "string"
				},
				{
					"internalType": "string",
					"name": "_url",
					"type": "string"
				},
				{
					"internalType": "uint256",
					"name": "_token_id",
					"type": "uint256"
				},
				{
					"internalType": "uint256",
					"name": "_delay_time",
					"type": "uint256"
				},
				{
					"internalType": "address payable",
					"name": "creater",
					"type": "address"
				}
			],
			"stateMutability": "nonpayable",
			"type": "constructor"
		},
		{
			"anonymous": false,
			"inputs": [
				{
					"indexed": true,
					"internalType": "address",
					"name": "winner",
					"type": "address"
				},
				{
					"indexed": false,
					"internalType": "uint256",
					"name": "winningBid",
					"type": "uint256"
				}
			],
			"name": "AuctionEnded",
			"type": "event"
		},
		{
			"anonymous": false,
			"inputs": [
				{
					"indexed": false,
					"internalType": "address",
					"name": "addr",
					"type": "address"
				},
				{
					"indexed": false,
					"internalType": "uint256",
					"name": "price",
					"type": "uint256"
				}
			],
			"name": "Bidding_msg",
			"type": "event"
		},
		{
			"inputs": [],
			"name": "auctionState",
			"outputs": [
				{
					"internalType": "enum AuctionItem.AuctionState",
					"name": "",
					"type": "uint8"
				}
			],
			"stateMutability": "view",
			"type": "function"
		},
		{
			"inputs": [
				{
					"internalType": "address",
					"name": "sender",
					"type": "address"
				},
				{
					"internalType": "uint256",
					"name": "price",
					"type": "uint256"
				}
			],
			"name": "bidding",
			"outputs": [],
			"stateMutability": "payable",
			"type": "function"
		},
		{
			"inputs": [],
			"name": "current_bid",
			"outputs": [
				{
					"internalType": "uint256",
					"name": "",
					"type": "uint256"
				}
			],
			"stateMutability": "view",
			"type": "function"
		},
		{
			"inputs": [],
			"name": "current_max_bidder",
			"outputs": [
				{
					"internalType": "address payable",
					"name": "",
					"type": "address"
				}
			],
			"stateMutability": "view",
			"type": "function"
		},
		{
			"inputs": [],
			"name": "description",
			"outputs": [
				{
					"internalType": "string",
					"name": "",
					"type": "string"
				}
			],
			"stateMutability": "view",
			"type": "function"
		},
		{
			"inputs": [],
			"name": "duration",
			"outputs": [
				{
					"internalType": "uint256",
					"name": "",
					"type": "uint256"
				}
			],
			"stateMutability": "view",
			"type": "function"
		},
		{
			"inputs": [
				{
					"internalType": "address",
					"name": "ender",
					"type": "address"
				}
			],
			"name": "endAuction",
			"outputs": [],
			"stateMutability": "nonpayable",
			"type": "function"
		},
		{
			"inputs": [],
			"name": "expire_at",
			"outputs": [
				{
					"internalType": "uint256",
					"name": "",
					"type": "uint256"
				}
			],
			"stateMutability": "view",
			"type": "function"
		},
		{
			"inputs": [],
			"name": "highestBid",
			"outputs": [
				{
					"internalType": "uint256",
					"name": "",
					"type": "uint256"
				}
			],
			"stateMutability": "view",
			"type": "function"
		},
		{
			"inputs": [],
			"name": "name",
			"outputs": [
				{
					"internalType": "string",
					"name": "",
					"type": "string"
				}
			],
			"stateMutability": "view",
			"type": "function"
		},
		{
			"inputs": [],
			"name": "owner",
			"outputs": [
				{
					"internalType": "address payable",
					"name": "",
					"type": "address"
				}
			],
			"stateMutability": "view",
			"type": "function"
		},
		{
			"inputs": [
				{
					"internalType": "address",
					"name": "_starter",
					"type": "address"
				}
			],
			"name": "startAuction",
			"outputs": [],
			"stateMutability": "nonpayable",
			"type": "function"
		},
		{
			"inputs": [],
			"name": "start_at",
			"outputs": [
				{
					"internalType": "uint256",
					"name": "",
					"type": "uint256"
				}
			],
			"stateMutability": "view",
			"type": "function"
		},
		{
			"inputs": [],
			"name": "token_id",
			"outputs": [
				{
					"internalType": "uint256",
					"name": "",
					"type": "uint256"
				}
			],
			"stateMutability": "view",
			"type": "function"
		},
		{
			"inputs": [],
			"name": "url",
			"outputs": [
				{
					"internalType": "string",
					"name": "",
					"type": "string"
				}
			],
			"stateMutability": "view",
			"type": "function"
		},
		{
			"inputs": [
				{
					"internalType": "address",
					"name": "drawer",
					"type": "address"
				}
			],
			"name": "withdraw",
			"outputs": [],
			"stateMutability": "nonpayable",
			"type": "function"
		}
	]
}